{
  "contractName": "Agreements",
  "abi": [
    {
      "constant": true,
      "inputs": [
        {
          "name": "",
          "type": "uint256"
        }
      ],
      "name": "agreementAddrList",
      "outputs": [
        {
          "name": "",
          "type": "address"
        }
      ],
      "payable": false,
      "stateMutability": "view",
      "type": "function",
      "signature": "0x6fffaec0"
    },
    {
      "constant": true,
      "inputs": [
        {
          "name": "",
          "type": "address"
        }
      ],
      "name": "agreementStructList",
      "outputs": [
        {
          "name": "id",
          "type": "address"
        },
        {
          "name": "traderEmitterId",
          "type": "address"
        },
        {
          "name": "traderReceiverId",
          "type": "address"
        },
        {
          "name": "percentage",
          "type": "uint256"
        },
        {
          "name": "trackId",
          "type": "address"
        },
        {
          "name": "isAgreement",
          "type": "bool"
        }
      ],
      "payable": false,
      "stateMutability": "view",
      "type": "function",
      "signature": "0x9aa044af"
    },
    {
      "anonymous": false,
      "inputs": [
        {
          "indexed": false,
          "name": "stringLogs",
          "type": "string"
        }
      ],
      "name": "stringLogs",
      "type": "event",
      "signature": "0x7204b477e961d11af7867ee2b94f62807cfb4d9bb931dab71c541f19f2152d46"
    },
    {
      "anonymous": false,
      "inputs": [
        {
          "indexed": false,
          "name": "intLogs",
          "type": "uint256"
        }
      ],
      "name": "intLogs",
      "type": "event",
      "signature": "0x82a5e81cde1835f4f28f4fdaac7e5ea0827d449ba9eb096e75cd3626cf3ec27f"
    },
    {
      "constant": false,
      "inputs": [
        {
          "name": "id",
          "type": "address"
        }
      ],
      "name": "isAgreement",
      "outputs": [
        {
          "name": "",
          "type": "bool"
        }
      ],
      "payable": false,
      "stateMutability": "nonpayable",
      "type": "function",
      "signature": "0x904a8890"
    },
    {
      "constant": false,
      "inputs": [
        {
          "name": "id",
          "type": "address"
        },
        {
          "name": "traderEmitterId",
          "type": "address"
        },
        {
          "name": "traderReceiverId",
          "type": "address"
        },
        {
          "name": "percentageReceiver",
          "type": "uint256"
        },
        {
          "name": "trackId",
          "type": "address"
        },
        {
          "name": "tradersContractAddr",
          "type": "address"
        },
        {
          "name": "tracksContractAddr",
          "type": "address"
        }
      ],
      "name": "createAgreement",
      "outputs": [],
      "payable": false,
      "stateMutability": "nonpayable",
      "type": "function",
      "signature": "0xec856c6e"
    },
    {
      "constant": true,
      "inputs": [
        {
          "name": "emitterId",
          "type": "address"
        }
      ],
      "name": "getAgreementsByEmitter",
      "outputs": [
        {
          "name": "",
          "type": "address[]"
        }
      ],
      "payable": false,
      "stateMutability": "view",
      "type": "function",
      "signature": "0x849ea241"
    },
    {
      "constant": true,
      "inputs": [
        {
          "name": "id",
          "type": "address"
        }
      ],
      "name": "getAgreement",
      "outputs": [
        {
          "name": "",
          "type": "address"
        },
        {
          "name": "",
          "type": "address"
        },
        {
          "name": "",
          "type": "address"
        },
        {
          "name": "",
          "type": "uint256"
        },
        {
          "name": "",
          "type": "address"
        }
      ],
      "payable": false,
      "stateMutability": "view",
      "type": "function",
      "signature": "0x295c1fed"
    },
    {
      "constant": false,
      "inputs": [
        {
          "name": "agreementId",
          "type": "address"
        },
        {
          "name": "traderEmitterId",
          "type": "address"
        },
        {
          "name": "traderReceiverId",
          "type": "address"
        },
        {
          "name": "trackId",
          "type": "address"
        }
      ],
      "name": "validateAgreementByEmRc",
      "outputs": [
        {
          "name": "",
          "type": "bool"
        }
      ],
      "payable": false,
      "stateMutability": "nonpayable",
      "type": "function",
      "signature": "0x4ac65cf4"
    }
  ],
  "bytecode": "0x608060405234801561001057600080fd5b50610b13806100206000396000f3fe6080604052600436106100695763ffffffff60e060020a600035041663295c1fed811461006e5780634ac65cf4146100dd5780636fffaec01461013c578063849ea24114610182578063904a8890146102055780639aa044af14610238578063ec856c6e146102af575b600080fd5b34801561007a57600080fd5b506100a16004803603602081101561009157600080fd5b5035600160a060020a0316610314565b60408051600160a060020a0396871681529486166020860152928516848401526060840191909152909216608082015290519081900360a00190f35b3480156100e957600080fd5b506101286004803603608081101561010057600080fd5b50600160a060020a038135811691602081013582169160408201358116916060013516610355565b604080519115158252519081900360200190f35b34801561014857600080fd5b506101666004803603602081101561015f57600080fd5b5035610406565b60408051600160a060020a039092168252519081900360200190f35b34801561018e57600080fd5b506101b5600480360360208110156101a557600080fd5b5035600160a060020a031661042e565b60408051602080825283518183015283519192839290830191858101910280838360005b838110156101f15781810151838201526020016101d9565b505050509050019250505060405180910390f35b34801561021157600080fd5b506101286004803603602081101561022857600080fd5b5035600160a060020a03166104a7565b34801561024457600080fd5b5061026b6004803603602081101561025b57600080fd5b5035600160a060020a03166104e0565b60408051600160a060020a0397881681529587166020870152938616858501526060850192909252909316608083015291151560a082015290519081900360c00190f35b3480156102bb57600080fd5b50610312600480360360e08110156102d257600080fd5b50600160a060020a03813581169160208101358216916040820135811691606081013591608082013581169160a081013582169160c0909101351661053b565b005b600160a060020a0390811660009081526020819052604090208054600182015460028301546003840154600490940154928516959185169490811693921690565b6000610360856104a7565b1561036d575060006103fe565b600160a060020a0385811660009081526020819052604090206001015481169085161461039c575060006103fe565b600160a060020a038581166000908152602081905260409020600201548116908416146103cb575060006103fe565b600160a060020a038581166000908152602081905260409020600401548116908316146103fa575060006103fe565b5060015b949350505050565b600280548290811061041457fe5b600091825260209091200154600160a060020a0316905081565b600160a060020a03811660009081526001602081815260409283902090910180548351818402810184019094528084526060939283018282801561049b57602002820191906000526020600020905b8154600160a060020a0316815260019091019060200180831161047d575b50505050509050919050565b600160a060020a031660009081526020819052604090206004015474010000000000000000000000000000000000000000900460ff1690565b60006020819052908152604090208054600182015460028301546003840154600490940154600160a060020a039384169492841693918216929181169074010000000000000000000000000000000000000000900460ff1686565b610544876104a7565b15610599576040805160e560020a62461bcd02815260206004820152601860248201527f41677265656d656e7420616c7265616479206578697374730000000000000000604482015290519081900360640190fd5b600160a060020a038681166000818152600160208181526040808420805473ffffffffffffffffffffffffffffffffffffffff199081168717825590840180549485018155855282852090930180549093168d87161790925581517f4039ad0d000000000000000000000000000000000000000000000000000000008152600481019490945290518694869490861693634039ad0d9360248084019491939192918390030190829087803b15801561065057600080fd5b505af1158015610664573d6000803e3d6000fd5b505050506040513d602081101561067a57600080fd5b505115156106d2576040805160e560020a62461bcd02815260206004820152601560248201527f456d697474657220646f65736e74206578697374730000000000000000000000604482015290519081900360640190fd5b81600160a060020a0316634039ad0d886040518263ffffffff1660e060020a0281526004018082600160a060020a0316600160a060020a03168152602001915050602060405180830381600087803b15801561072d57600080fd5b505af1158015610741573d6000803e3d6000fd5b505050506040513d602081101561075757600080fd5b505115156107af576040805160e560020a62461bcd02815260206004820152601660248201527f526563656976657220646f65736e742065786973747300000000000000000000604482015290519081900360640190fd5b80600160a060020a0316634bff9494866040518263ffffffff1660e060020a0281526004018082600160a060020a0316600160a060020a03168152602001915050602060405180830381600087803b15801561080a57600080fd5b505af115801561081e573d6000803e3d6000fd5b505050506040513d602081101561083457600080fd5b5051151561088c576040805160e560020a62461bcd02815260206004820152601360248201527f547261636b20646f656e73742065786973747300000000000000000000000000604482015290519081900360640190fd5b886000808b600160a060020a0316600160a060020a0316815260200190815260200160002060000160006101000a815481600160a060020a030219169083600160a060020a03160217905550876000808b600160a060020a0316600160a060020a0316815260200190815260200160002060010160006101000a815481600160a060020a030219169083600160a060020a03160217905550866000808b600160a060020a0316600160a060020a0316815260200190815260200160002060020160006101000a815481600160a060020a030219169083600160a060020a03160217905550856000808b600160a060020a0316600160a060020a0316815260200190815260200160002060030181905550846000808b600160a060020a0316600160a060020a0316815260200190815260200160002060040160006101000a815481600160a060020a030219169083600160a060020a0316021790555060016000808b600160a060020a0316600160a060020a0316815260200190815260200160002060040160146101000a81548160ff02191690831515021790555060028990806001815401808255809150509060018203906000526020600020016000909192909190916101000a815481600160a060020a030219169083600160a060020a03160217905550507f7204b477e961d11af7867ee2b94f62807cfb4d9bb931dab71c541f19f2152d466040518080602001828103825260148152602001807f41677265656d656e74206372656174656421212100000000000000000000000081525060200191505060405180910390a150505050505050505056fea165627a7a7230582072179c7ac9920118bc1cc11e31ce3b20ac4917bfcc8ffcbbd885fba6f25d82c60029",
  "source": "pragma solidity ^0.5.0;\n\ncontract Traders{\n    function getTrader(address id) public returns(uint, string memory,string memory, string memory,uint){}\n    function isTrader(address id) public returns(bool){}\n}\ncontract Tracks{\n    function getTrack(address id) public returns(uint, string memory, uint, address){}\n    function isTrack(address id) public returns(bool){}\n}\n\n//This is the best way to structure a digital entity in a contract\ncontract Agreements{\n    struct Agreement{\n        address id;\n        address traderEmitterId;\n        address traderReceiverId;\n        uint percentage;\n        address trackId;\n        bool isAgreement;\n    }\n    struct AgreementByEmitter{\n        address emitter;\n        address[] agreements;\n    }\n    mapping(address=>Agreement) public agreementStructList;\n    mapping(address=> AgreementByEmitter) agreementsByEmitter; //query\n    address[] public agreementAddrList;\n\n    function isAgreement(address id) public returns(bool){\n        return agreementStructList[id].isAgreement;\n    }\n    function createAgreement(address id, \n                            address traderEmitterId, \n                            address traderReceiverId, \n                            uint percentageReceiver, \n                            address trackId,\n                            address tradersContractAddr,\n                            address tracksContractAddr\n                            ) public{\n        if(isAgreement(id)) revert(\"Agreement already exists\");\n\n        //This is just some testing\n        agreementsByEmitter[traderEmitterId].emitter=traderEmitterId;\n        agreementsByEmitter[traderEmitterId].agreements.push(id);//This is for query the agreement by receiver\n               \n        Traders tradersContract= Traders(tradersContractAddr);\n        Tracks tracksContract = Tracks(tracksContractAddr);\n\n        if(!tradersContract.isTrader(traderEmitterId)) revert('Emitter doesnt exists');\n        if(!tradersContract.isTrader(traderReceiverId)) revert('Receiver doesnt exists');\n        if(!tracksContract.isTrack(trackId)) revert('Track doenst exists');\n        //TODO: There should be some validation of the existence of duplication of emitter and receiver\n\n        agreementStructList[id].id= id;\n        agreementStructList[id].traderEmitterId=traderEmitterId;\n        agreementStructList[id].traderReceiverId=traderReceiverId;\n        agreementStructList[id].percentage=percentageReceiver;\n        agreementStructList[id].trackId = trackId;\n        agreementStructList[id].isAgreement=true;\n        \n        agreementAddrList.push(id);\n\n        emit stringLogs(\"Agreement created!!!\"); //this is an event\n        //TODO: check the percentage limit \n\n    }\n      function getAgreementsByEmitter(address emitterId) view public returns(address[] memory){\n        return agreementsByEmitter[emitterId].agreements;\n    }\n\n    function getAgreement(address id) view public returns(address,address, address, uint,address) {\n        //This is the best way to avoid error stack too deep\n        return (\n                agreementStructList[id].id,\n                agreementStructList[id].traderEmitterId,\n                agreementStructList[id].traderReceiverId,\n                agreementStructList[id].percentage,\n                agreementStructList[id].trackId);\n    }\n\n    function validateAgreementByEmRc(\n        address agreementId,\n        address traderEmitterId, \n        address traderReceiverId,\n        address trackId) public returns(bool){\n            if(isAgreement(agreementId)) return false;\n            if(agreementStructList[agreementId].traderEmitterId!=traderEmitterId) return false;\n            if(agreementStructList[agreementId].traderReceiverId!=traderReceiverId) return false;\n            if(agreementStructList[agreementId].trackId!=trackId) return false;\n            return true;\n        }\n    event stringLogs(string stringLogs);\n    event intLogs(uint intLogs);\n}    \n",
  "sourcePath": "/home/nemesis1346/Documents/UniversityProjects/distribution-algorithm-hyperledger-composer/ethereum-node-server/contracts/Agreements.sol",
  "compiler": {
    "name": "solc",
    "version": "0.5.0+commit.1d4f565a.Emscripten.clang"
  },
  "schemaVersion": "3.0.2",
  "updatedAt": "2019-05-12T23:23:15.939Z",
  "devdoc": {
    "methods": {}
  },
  "userdoc": {
    "methods": {}
  }
}