{
  "contractName": "Agreements",
  "abi": [
    {
      "constant": true,
      "inputs": [
        {
          "name": "",
          "type": "uint256"
        }
      ],
      "name": "agreements",
      "outputs": [
        {
          "name": "id",
          "type": "uint256"
        },
        {
          "name": "traderEmitterId",
          "type": "uint256"
        },
        {
          "name": "traderReceiverId",
          "type": "uint256"
        },
        {
          "name": "percentage",
          "type": "uint256"
        },
        {
          "name": "status",
          "type": "string"
        },
        {
          "name": "isrc",
          "type": "uint256"
        },
        {
          "name": "traderEmiterName",
          "type": "string"
        },
        {
          "name": "traderReceiverName",
          "type": "string"
        }
      ],
      "payable": false,
      "stateMutability": "view",
      "type": "function",
      "signature": "0xbd14de96"
    },
    {
      "anonymous": false,
      "inputs": [
        {
          "indexed": false,
          "name": "stringLogs",
          "type": "string"
        }
      ],
      "name": "stringLogs",
      "type": "event",
      "signature": "0x7204b477e961d11af7867ee2b94f62807cfb4d9bb931dab71c541f19f2152d46"
    },
    {
      "anonymous": false,
      "inputs": [
        {
          "indexed": false,
          "name": "intLogs",
          "type": "uint256"
        }
      ],
      "name": "intLogs",
      "type": "event",
      "signature": "0x82a5e81cde1835f4f28f4fdaac7e5ea0827d449ba9eb096e75cd3626cf3ec27f"
    },
    {
      "constant": false,
      "inputs": [
        {
          "name": "id",
          "type": "uint256"
        },
        {
          "name": "traderEmitterId",
          "type": "uint256"
        },
        {
          "name": "traderReceiverId",
          "type": "uint256"
        },
        {
          "name": "percentageReceiver",
          "type": "uint256"
        },
        {
          "name": "status",
          "type": "string"
        },
        {
          "name": "isrc",
          "type": "uint256"
        },
        {
          "name": "traderEmiterName",
          "type": "string"
        },
        {
          "name": "traderReceiverName",
          "type": "string"
        },
        {
          "name": "tradersContractAddr",
          "type": "address"
        },
        {
          "name": "tracksContractAddr",
          "type": "address"
        }
      ],
      "name": "createAgreement",
      "outputs": [],
      "payable": false,
      "stateMutability": "nonpayable",
      "type": "function",
      "signature": "0x6af680b1"
    },
    {
      "constant": false,
      "inputs": [
        {
          "name": "receiverId",
          "type": "uint256"
        }
      ],
      "name": "getAgreementIdByReceiver",
      "outputs": [
        {
          "name": "",
          "type": "uint256"
        }
      ],
      "payable": false,
      "stateMutability": "nonpayable",
      "type": "function",
      "signature": "0xb230db03"
    },
    {
      "constant": false,
      "inputs": [
        {
          "name": "isrc",
          "type": "uint256"
        },
        {
          "name": "tracksContractAddr",
          "type": "address"
        }
      ],
      "name": "existTrack",
      "outputs": [
        {
          "name": "",
          "type": "bool"
        }
      ],
      "payable": false,
      "stateMutability": "nonpayable",
      "type": "function",
      "signature": "0xf0717803"
    },
    {
      "constant": false,
      "inputs": [
        {
          "name": "traderId",
          "type": "uint256"
        },
        {
          "name": "tradersContractAddr",
          "type": "address"
        }
      ],
      "name": "existTrader",
      "outputs": [
        {
          "name": "",
          "type": "bool"
        }
      ],
      "payable": false,
      "stateMutability": "nonpayable",
      "type": "function",
      "signature": "0x87a04f62"
    },
    {
      "constant": true,
      "inputs": [
        {
          "name": "id",
          "type": "uint256"
        }
      ],
      "name": "getAgreement",
      "outputs": [
        {
          "name": "",
          "type": "uint256"
        },
        {
          "name": "",
          "type": "uint256"
        },
        {
          "name": "",
          "type": "uint256"
        },
        {
          "name": "",
          "type": "string"
        },
        {
          "name": "",
          "type": "uint256"
        },
        {
          "name": "",
          "type": "string"
        },
        {
          "name": "",
          "type": "string"
        }
      ],
      "payable": false,
      "stateMutability": "view",
      "type": "function",
      "signature": "0x4f9f6fe6"
    }
  ],
  "bytecode": "0x608060405234801561001057600080fd5b5061126c806100206000396000f3fe608060405260043610610078576000357c0100000000000000000000000000000000000000000000000000000000900463ffffffff1680634f9f6fe61461007d5780636af680b11461022557806387a04f621461048e578063b230db0314610501578063bd14de9614610550578063f0717803146106ff575b600080fd5b34801561008957600080fd5b506100b6600480360360208110156100a057600080fd5b8101908080359060200190929190505050610772565b60405180888152602001878152602001868152602001806020018581526020018060200180602001848103845288818151815260200191508051906020019080838360005b838110156101165780820151818401526020810190506100fb565b50505050905090810190601f1680156101435780820380516001836020036101000a031916815260200191505b50848103835286818151815260200191508051906020019080838360005b8381101561017c578082015181840152602081019050610161565b50505050905090810190601f1680156101a95780820380516001836020036101000a031916815260200191505b50848103825285818151815260200191508051906020019080838360005b838110156101e25780820151818401526020810190506101c7565b50505050905090810190601f16801561020f5780820380516001836020036101000a031916815260200191505b509a505050505050505050505060405180910390f35b34801561023157600080fd5b5061048c600480360361014081101561024957600080fd5b81019080803590602001909291908035906020019092919080359060200190929190803590602001909291908035906020019064010000000081111561028e57600080fd5b8201836020820111156102a057600080fd5b803590602001918460018302840111640100000000831117156102c257600080fd5b91908080601f016020809104026020016040519081016040528093929190818152602001838380828437600081840152601f19601f820116905080830192505050505050509192919290803590602001909291908035906020019064010000000081111561032f57600080fd5b82018360208201111561034157600080fd5b8035906020019184600183028401116401000000008311171561036357600080fd5b91908080601f016020809104026020016040519081016040528093929190818152602001838380828437600081840152601f19601f820116905080830192505050505050509192919290803590602001906401000000008111156103c657600080fd5b8201836020820111156103d857600080fd5b803590602001918460018302840111640100000000831117156103fa57600080fd5b91908080601f016020809104026020016040519081016040528093929190818152602001838380828437600081840152601f19601f820116905080830192505050505050509192919290803573ffffffffffffffffffffffffffffffffffffffff169060200190929190803573ffffffffffffffffffffffffffffffffffffffff169060200190929190505050610a05565b005b34801561049a57600080fd5b506104e7600480360360408110156104b157600080fd5b8101908080359060200190929190803573ffffffffffffffffffffffffffffffffffffffff169060200190929190505050610bb8565b604051808215151515815260200191505060405180910390f35b34801561050d57600080fd5b5061053a6004803603602081101561052457600080fd5b8101908080359060200190929190505050610dbd565b6040518082815260200191505060405180910390f35b34801561055c57600080fd5b506105896004803603602081101561057357600080fd5b8101908080359060200190929190505050610dda565b60405180898152602001888152602001878152602001868152602001806020018581526020018060200180602001848103845288818151815260200191508051906020019080838360005b838110156105ef5780820151818401526020810190506105d4565b50505050905090810190601f16801561061c5780820380516001836020036101000a031916815260200191505b50848103835286818151815260200191508051906020019080838360005b8381101561065557808201518184015260208101905061063a565b50505050905090810190601f1680156106825780820380516001836020036101000a031916815260200191505b50848103825285818151815260200191508051906020019080838360005b838110156106bb5780820151818401526020810190506106a0565b50505050905090810190601f1680156106e85780820380516001836020036101000a031916815260200191505b509b50505050505050505050505060405180910390f35b34801561070b57600080fd5b506107586004803603604081101561072257600080fd5b8101908080359060200190929190803573ffffffffffffffffffffffffffffffffffffffff169060200190929190505050610fea565b604051808215151515815260200191505060405180910390f35b600080600060606000606080610786611155565b6000808a8152602001908152602001600020610100604051908101604052908160008201548152602001600182015481526020016002820154815260200160038201548152602001600482018054600181600116156101000203166002900480601f0160208091040260200160405190810160405280929190818152602001828054600181600116156101000203166002900480156108665780601f1061083b57610100808354040283529160200191610866565b820191906000526020600020905b81548152906001019060200180831161084957829003601f168201915b5050505050815260200160058201548152602001600682018054600181600116156101000203166002900480601f0160208091040260200160405190810160405280929190818152602001828054600181600116156101000203166002900480156109125780601f106108e757610100808354040283529160200191610912565b820191906000526020600020905b8154815290600101906020018083116108f557829003601f168201915b50505050508152602001600782018054600181600116156101000203166002900480601f0160208091040260200160405190810160405280929190818152602001828054600181600116156101000203166002900480156109b45780601f10610989576101008083540402835291602001916109b4565b820191906000526020600020905b81548152906001019060200180831161099757829003601f168201915b505050505081525050905080602001518160400151826060015183608001518460a001518560c001518660e00151839350819150809050975097509750975097509750975050919395979092949650565b89600160008a815260200190815260200160002081905550606487811515610a2957fe5b049650610100604051908101604052808b81526020018a8152602001898152602001888152602001878152602001868152602001858152602001848152506000808c8152602001908152602001600020600082015181600001556020820151816001015560408201518160020155606082015181600301556080820151816004019080519060200190610abd92919061119b565b5060a0820151816005015560c0820151816006019080519060200190610ae492919061119b565b5060e0820151816007019080519060200190610b0192919061119b565b50905050610b0f8983610bb8565b1515610b1a57600080fd5b610b248883610bb8565b1515610b2f57600080fd5b610b398582610fea565b1515610b4457600080fd5b7f7204b477e961d11af7867ee2b94f62807cfb4d9bb931dab71c541f19f2152d466040518080602001828103825260148152602001807f41677265656d656e74206372656174656421212100000000000000000000000081525060200191505060405180910390a150505050505050505050565b6000808290506000606080606060008573ffffffffffffffffffffffffffffffffffffffff1663bcfbd4458a6040518263ffffffff167c010000000000000000000000000000000000000000000000000000000002815260040180828152602001915050600060405180830381600087803b158015610c3657600080fd5b505af1158015610c4a573d6000803e3d6000fd5b505050506040513d6000823e3d601f19601f8201168201806040525060a0811015610c7457600080fd5b81019080805190602001909291908051640100000000811115610c9657600080fd5b82810190506020810184811115610cac57600080fd5b8151856001820283011164010000000082111715610cc957600080fd5b50509291906020018051640100000000811115610ce557600080fd5b82810190506020810184811115610cfb57600080fd5b8151856001820283011164010000000082111715610d1857600080fd5b50509291906020018051640100000000811115610d3457600080fd5b82810190506020810184811115610d4a57600080fd5b8151856001820283011164010000000082111715610d6757600080fd5b5050929190602001805190602001909291905050509450945094509450945060008514158015610d98575060008451115b15610dac5760019650505050505050610db7565b600096505050505050505b92915050565b600060016000838152602001908152602001600020549050919050565b6000602052806000526040600020600091509050806000015490806001015490806002015490806003015490806004018054600181600116156101000203166002900480601f016020809104026020016040519081016040528092919081815260200182805460018160011615610100020316600290048015610e9e5780601f10610e7357610100808354040283529160200191610e9e565b820191906000526020600020905b815481529060010190602001808311610e8157829003601f168201915b505050505090806005015490806006018054600181600116156101000203166002900480601f016020809104026020016040519081016040528092919081815260200182805460018160011615610100020316600290048015610f425780601f10610f1757610100808354040283529160200191610f42565b820191906000526020600020905b815481529060010190602001808311610f2557829003601f168201915b505050505090806007018054600181600116156101000203166002900480601f016020809104026020016040519081016040528092919081815260200182805460018160011615610100020316600290048015610fe05780601f10610fb557610100808354040283529160200191610fe0565b820191906000526020600020905b815481529060010190602001808311610fc357829003601f168201915b5050505050905088565b600080829050600060606000808473ffffffffffffffffffffffffffffffffffffffff1663629058ca896040518263ffffffff167c010000000000000000000000000000000000000000000000000000000002815260040180828152602001915050600060405180830381600087803b15801561106657600080fd5b505af115801561107a573d6000803e3d6000fd5b505050506040513d6000823e3d601f19601f8201168201806040525060808110156110a457600080fd5b810190808051906020019092919080516401000000008111156110c657600080fd5b828101905060208101848111156110dc57600080fd5b81518560018202830111640100000000821117156110f957600080fd5b50509291906020018051906020019092919080519060200190929190505050935093509350935060008414158015611132575060008351115b156111455760019550505050505061114f565b6000955050505050505b92915050565b6101006040519081016040528060008152602001600081526020016000815260200160008152602001606081526020016000815260200160608152602001606081525090565b828054600181600116156101000203166002900490600052602060002090601f016020900481019282601f106111dc57805160ff191683800117855561120a565b8280016001018555821561120a579182015b828111156112095782518255916020019190600101906111ee565b5b509050611217919061121b565b5090565b61123d91905b80821115611239576000816000905550600101611221565b5090565b9056fea165627a7a723058207a9ca2a760dc88da8368afb9340b2404676a83cbcabc8ce663b86ea49db286b10029",
  "source": "pragma solidity ^0.5.0;\n\ncontract Traders{\n    function getTrader(uint id) public returns(uint, string memory,string memory, string memory,uint){}\n}\ncontract Tracks{\n    function getTrack(uint id) public returns(uint, string memory, uint, address){}\n}\n//This is the best way to structure a digital entity in a contract\ncontract Agreements{\n    \n    struct Agreement{\n        uint id;\n        uint traderEmitterId;\n        uint traderReceiverId;\n        uint percentage;\n        string status;\n        uint isrc;\n        string traderEmiterName;\n        string traderReceiverName;\n    }\n\n    mapping(uint=>Agreement) public agreements;\n    mapping(uint=> uint) agreementIdByReceiver;\n\n\n    function createAgreement(uint id, \n                            uint traderEmitterId, \n                            uint traderReceiverId, \n                            uint percentageReceiver, \n                            string memory status, \n                            uint isrc,\n                            string memory traderEmiterName,\n                            string memory traderReceiverName,\n                            address tradersContractAddr,\n                            address tracksContractAddr\n                            ) public{\n      \n        agreementIdByReceiver[traderReceiverId]=id;//This is for query the agreement by receiver\n        percentageReceiver = percentageReceiver/100;\n        agreements[id]=Agreement(id,traderEmitterId, traderReceiverId, percentageReceiver, status, isrc,traderEmiterName, traderReceiverName);\n        \n        require(existTrader(traderEmitterId,tradersContractAddr));\n        require(existTrader(traderReceiverId,tradersContractAddr));\n        require(existTrack(isrc, tracksContractAddr));\n        emit stringLogs(\"Agreement created!!!\"); //this is an event\n        //TODO: check the percentage limit \n\n    }\n      function getAgreementIdByReceiver(uint receiverId) public returns(uint){\n        return agreementIdByReceiver[receiverId];\n    }\n    \n    function existTrack(uint isrc, address tracksContractAddr) public returns (bool){\n        Tracks tracksInterface = Tracks(tracksContractAddr);\n        (uint isrc, \n        string memory title, \n        uint revenueTotal, \n        address uploaderEOA)=tracksInterface.getTrack(isrc);\n        \n         if(isrc!=0 && bytes(title).length>0){\n            return true; \n        } else{\n            return false;\n        }  \n    }\n    \n \n    function existTrader(uint traderId,address tradersContractAddr) public returns (bool){\n          //We get the Traders contract with address                        \n        Traders tradersInterface = Traders(tradersContractAddr);\n\n        (uint idTrader,\n        string memory nameTrader, \n        string memory emailTrader, \n        string memory traderTypeTrader,\n        uint tokenAccountIdTrader)=tradersInterface.getTrader(traderId);\n        \n        if(idTrader!=0 && bytes(nameTrader).length>0){\n            return true; \n        } else{\n            return false;\n        }  \n    }\n    \n    function getAgreement(uint id) view public returns(uint,uint, uint, string memory,uint,string memory,string memory) {\n        //This is the best way to avoid error stack too deep\n        Agreement memory agreement = agreements[id];\n        return (\n                agreement.traderEmitterId,\n                agreement.traderReceiverId,\n                agreement.percentage,\n                agreement.status, \n                agreement.isrc,\n                agreement.traderEmiterName,\n                agreement.traderReceiverName);\n    }\n\n    event stringLogs(string stringLogs);\n    event intLogs(uint intLogs);\n}    \n",
  "sourcePath": "/home/nemesis1346/Documents/UniversityProjects/distribution-algorithm-hyperledger-composer/ethereum-node-server/contracts/Agreements.sol",
  "compiler": {
    "name": "solc",
    "version": "0.5.0+commit.1d4f565a.Emscripten.clang"
  },
  "schemaVersion": "3.0.2",
  "updatedAt": "2019-03-28T00:14:57.353Z",
  "devdoc": {
    "methods": {}
  },
  "userdoc": {
    "methods": {}
  }
}