{
  "contractName": "Agreements",
  "abi": [
    {
      "constant": true,
      "inputs": [
        {
          "name": "",
          "type": "uint256"
        }
      ],
      "name": "agreementAddrList",
      "outputs": [
        {
          "name": "",
          "type": "address"
        }
      ],
      "payable": false,
      "stateMutability": "view",
      "type": "function",
      "signature": "0x6fffaec0"
    },
    {
      "constant": true,
      "inputs": [
        {
          "name": "",
          "type": "address"
        }
      ],
      "name": "agreementStructList",
      "outputs": [
        {
          "name": "id",
          "type": "address"
        },
        {
          "name": "traderEmitterId",
          "type": "address"
        },
        {
          "name": "traderReceiverId",
          "type": "address"
        },
        {
          "name": "percentage",
          "type": "uint256"
        },
        {
          "name": "trackId",
          "type": "address"
        },
        {
          "name": "isAgreement",
          "type": "bool"
        }
      ],
      "payable": false,
      "stateMutability": "view",
      "type": "function",
      "signature": "0x9aa044af"
    },
    {
      "anonymous": false,
      "inputs": [
        {
          "indexed": false,
          "name": "stringLogs",
          "type": "string"
        }
      ],
      "name": "stringLogs",
      "type": "event",
      "signature": "0x7204b477e961d11af7867ee2b94f62807cfb4d9bb931dab71c541f19f2152d46"
    },
    {
      "anonymous": false,
      "inputs": [
        {
          "indexed": false,
          "name": "intLogs",
          "type": "uint256"
        }
      ],
      "name": "intLogs",
      "type": "event",
      "signature": "0x82a5e81cde1835f4f28f4fdaac7e5ea0827d449ba9eb096e75cd3626cf3ec27f"
    },
    {
      "constant": false,
      "inputs": [
        {
          "name": "id",
          "type": "address"
        }
      ],
      "name": "isAgreement",
      "outputs": [
        {
          "name": "",
          "type": "bool"
        }
      ],
      "payable": false,
      "stateMutability": "nonpayable",
      "type": "function",
      "signature": "0x904a8890"
    },
    {
      "constant": false,
      "inputs": [
        {
          "name": "id",
          "type": "address"
        },
        {
          "name": "traderEmitterId",
          "type": "address"
        },
        {
          "name": "traderReceiverId",
          "type": "address"
        },
        {
          "name": "percentageReceiver",
          "type": "uint256"
        },
        {
          "name": "trackId",
          "type": "address"
        },
        {
          "name": "tradersContractAddr",
          "type": "address"
        },
        {
          "name": "tracksContractAddr",
          "type": "address"
        }
      ],
      "name": "createAgreement",
      "outputs": [],
      "payable": false,
      "stateMutability": "nonpayable",
      "type": "function",
      "signature": "0xec856c6e"
    },
    {
      "constant": false,
      "inputs": [
        {
          "name": "receiverId",
          "type": "address"
        }
      ],
      "name": "getAgreementIdByReceiver",
      "outputs": [
        {
          "name": "",
          "type": "address"
        }
      ],
      "payable": false,
      "stateMutability": "nonpayable",
      "type": "function",
      "signature": "0xdb3e2baf"
    },
    {
      "constant": true,
      "inputs": [
        {
          "name": "id",
          "type": "address"
        }
      ],
      "name": "getAgreement",
      "outputs": [
        {
          "name": "",
          "type": "address"
        },
        {
          "name": "",
          "type": "address"
        },
        {
          "name": "",
          "type": "address"
        },
        {
          "name": "",
          "type": "uint256"
        },
        {
          "name": "",
          "type": "address"
        }
      ],
      "payable": false,
      "stateMutability": "view",
      "type": "function",
      "signature": "0x295c1fed"
    }
  ],
  "bytecode": "0x608060405234801561001057600080fd5b5061119d806100206000396000f3fe608060405260043610610078576000357c0100000000000000000000000000000000000000000000000000000000900463ffffffff168063295c1fed1461007d5780636fffaec0146101ae578063904a8890146102295780639aa044af14610292578063db3e2baf146103ce578063ec856c6e1461045f575b600080fd5b34801561008957600080fd5b506100cc600480360360208110156100a057600080fd5b81019080803573ffffffffffffffffffffffffffffffffffffffff16906020019092919050505061055a565b604051808673ffffffffffffffffffffffffffffffffffffffff1673ffffffffffffffffffffffffffffffffffffffff1681526020018573ffffffffffffffffffffffffffffffffffffffff1673ffffffffffffffffffffffffffffffffffffffff1681526020018473ffffffffffffffffffffffffffffffffffffffff1673ffffffffffffffffffffffffffffffffffffffff1681526020018381526020018273ffffffffffffffffffffffffffffffffffffffff1673ffffffffffffffffffffffffffffffffffffffff1681526020019550505050505060405180910390f35b3480156101ba57600080fd5b506101e7600480360360208110156101d157600080fd5b810190808035906020019092919050505061073f565b604051808273ffffffffffffffffffffffffffffffffffffffff1673ffffffffffffffffffffffffffffffffffffffff16815260200191505060405180910390f35b34801561023557600080fd5b506102786004803603602081101561024c57600080fd5b81019080803573ffffffffffffffffffffffffffffffffffffffff16906020019092919050505061077d565b604051808215151515815260200191505060405180910390f35b34801561029e57600080fd5b506102e1600480360360208110156102b557600080fd5b81019080803573ffffffffffffffffffffffffffffffffffffffff1690602001909291905050506107d5565b604051808773ffffffffffffffffffffffffffffffffffffffff1673ffffffffffffffffffffffffffffffffffffffff1681526020018673ffffffffffffffffffffffffffffffffffffffff1673ffffffffffffffffffffffffffffffffffffffff1681526020018573ffffffffffffffffffffffffffffffffffffffff1673ffffffffffffffffffffffffffffffffffffffff1681526020018481526020018373ffffffffffffffffffffffffffffffffffffffff1673ffffffffffffffffffffffffffffffffffffffff16815260200182151515158152602001965050505050505060405180910390f35b3480156103da57600080fd5b5061041d600480360360208110156103f157600080fd5b81019080803573ffffffffffffffffffffffffffffffffffffffff16906020019092919050505061089e565b604051808273ffffffffffffffffffffffffffffffffffffffff1673ffffffffffffffffffffffffffffffffffffffff16815260200191505060405180910390f35b34801561046b57600080fd5b50610558600480360360e081101561048257600080fd5b81019080803573ffffffffffffffffffffffffffffffffffffffff169060200190929190803573ffffffffffffffffffffffffffffffffffffffff169060200190929190803573ffffffffffffffffffffffffffffffffffffffff16906020019092919080359060200190929190803573ffffffffffffffffffffffffffffffffffffffff169060200190929190803573ffffffffffffffffffffffffffffffffffffffff169060200190929190803573ffffffffffffffffffffffffffffffffffffffff169060200190929190505050610907565b005b60008060008060008060008773ffffffffffffffffffffffffffffffffffffffff1673ffffffffffffffffffffffffffffffffffffffff16815260200190815260200160002060000160009054906101000a900473ffffffffffffffffffffffffffffffffffffffff166000808873ffffffffffffffffffffffffffffffffffffffff1673ffffffffffffffffffffffffffffffffffffffff16815260200190815260200160002060010160009054906101000a900473ffffffffffffffffffffffffffffffffffffffff166000808973ffffffffffffffffffffffffffffffffffffffff1673ffffffffffffffffffffffffffffffffffffffff16815260200190815260200160002060020160009054906101000a900473ffffffffffffffffffffffffffffffffffffffff166000808a73ffffffffffffffffffffffffffffffffffffffff1673ffffffffffffffffffffffffffffffffffffffff168152602001908152602001600020600301546000808b73ffffffffffffffffffffffffffffffffffffffff1673ffffffffffffffffffffffffffffffffffffffff16815260200190815260200160002060040160009054906101000a900473ffffffffffffffffffffffffffffffffffffffff169450945094509450945091939590929450565b60028181548110151561074e57fe5b906000526020600020016000915054906101000a900473ffffffffffffffffffffffffffffffffffffffff1681565b60008060008373ffffffffffffffffffffffffffffffffffffffff1673ffffffffffffffffffffffffffffffffffffffff16815260200190815260200160002060040160149054906101000a900460ff169050919050565b60006020528060005260406000206000915090508060000160009054906101000a900473ffffffffffffffffffffffffffffffffffffffff16908060010160009054906101000a900473ffffffffffffffffffffffffffffffffffffffff16908060020160009054906101000a900473ffffffffffffffffffffffffffffffffffffffff16908060030154908060040160009054906101000a900473ffffffffffffffffffffffffffffffffffffffff16908060040160149054906101000a900460ff16905086565b6000600160008373ffffffffffffffffffffffffffffffffffffffff1673ffffffffffffffffffffffffffffffffffffffff16815260200190815260200160002060009054906101000a900473ffffffffffffffffffffffffffffffffffffffff169050919050565b6109108761077d565b15610983576040517f08c379a00000000000000000000000000000000000000000000000000000000081526004018080602001828103825260188152602001807f41677265656d656e7420616c726561647920657869737473000000000000000081525060200191505060405180910390fd5b86600160008773ffffffffffffffffffffffffffffffffffffffff1673ffffffffffffffffffffffffffffffffffffffff16815260200190815260200160002060006101000a81548173ffffffffffffffffffffffffffffffffffffffff021916908373ffffffffffffffffffffffffffffffffffffffff160217905550606484811515610a0d57fe5b049350600082905060008290508173ffffffffffffffffffffffffffffffffffffffff16634039ad0d896040518263ffffffff167c0100000000000000000000000000000000000000000000000000000000028152600401808273ffffffffffffffffffffffffffffffffffffffff1673ffffffffffffffffffffffffffffffffffffffff168152602001915050602060405180830381600087803b158015610ab557600080fd5b505af1158015610ac9573d6000803e3d6000fd5b505050506040513d6020811015610adf57600080fd5b81019080805190602001909291905050501515610b64576040517f08c379a00000000000000000000000000000000000000000000000000000000081526004018080602001828103825260158152602001807f456d697474657220646f65736e7420657869737473000000000000000000000081525060200191505060405180910390fd5b8173ffffffffffffffffffffffffffffffffffffffff16634039ad0d886040518263ffffffff167c0100000000000000000000000000000000000000000000000000000000028152600401808273ffffffffffffffffffffffffffffffffffffffff1673ffffffffffffffffffffffffffffffffffffffff168152602001915050602060405180830381600087803b158015610bff57600080fd5b505af1158015610c13573d6000803e3d6000fd5b505050506040513d6020811015610c2957600080fd5b81019080805190602001909291905050501515610cae576040517f08c379a00000000000000000000000000000000000000000000000000000000081526004018080602001828103825260168152602001807f526563656976657220646f65736e74206578697374730000000000000000000081525060200191505060405180910390fd5b8073ffffffffffffffffffffffffffffffffffffffff16634bff9494866040518263ffffffff167c0100000000000000000000000000000000000000000000000000000000028152600401808273ffffffffffffffffffffffffffffffffffffffff1673ffffffffffffffffffffffffffffffffffffffff168152602001915050602060405180830381600087803b158015610d4957600080fd5b505af1158015610d5d573d6000803e3d6000fd5b505050506040513d6020811015610d7357600080fd5b81019080805190602001909291905050501515610df8576040517f08c379a00000000000000000000000000000000000000000000000000000000081526004018080602001828103825260138152602001807f547261636b20646f656e7374206578697374730000000000000000000000000081525060200191505060405180910390fd5b886000808b73ffffffffffffffffffffffffffffffffffffffff1673ffffffffffffffffffffffffffffffffffffffff16815260200190815260200160002060000160006101000a81548173ffffffffffffffffffffffffffffffffffffffff021916908373ffffffffffffffffffffffffffffffffffffffff160217905550876000808b73ffffffffffffffffffffffffffffffffffffffff1673ffffffffffffffffffffffffffffffffffffffff16815260200190815260200160002060010160006101000a81548173ffffffffffffffffffffffffffffffffffffffff021916908373ffffffffffffffffffffffffffffffffffffffff160217905550866000808b73ffffffffffffffffffffffffffffffffffffffff1673ffffffffffffffffffffffffffffffffffffffff16815260200190815260200160002060020160006101000a81548173ffffffffffffffffffffffffffffffffffffffff021916908373ffffffffffffffffffffffffffffffffffffffff160217905550856000808b73ffffffffffffffffffffffffffffffffffffffff1673ffffffffffffffffffffffffffffffffffffffff16815260200190815260200160002060030181905550846000808b73ffffffffffffffffffffffffffffffffffffffff1673ffffffffffffffffffffffffffffffffffffffff16815260200190815260200160002060040160006101000a81548173ffffffffffffffffffffffffffffffffffffffff021916908373ffffffffffffffffffffffffffffffffffffffff16021790555060016000808b73ffffffffffffffffffffffffffffffffffffffff1673ffffffffffffffffffffffffffffffffffffffff16815260200190815260200160002060040160146101000a81548160ff02191690831515021790555060028990806001815401808255809150509060018203906000526020600020016000909192909190916101000a81548173ffffffffffffffffffffffffffffffffffffffff021916908373ffffffffffffffffffffffffffffffffffffffff160217905550507f7204b477e961d11af7867ee2b94f62807cfb4d9bb931dab71c541f19f2152d466040518080602001828103825260148152602001807f41677265656d656e74206372656174656421212100000000000000000000000081525060200191505060405180910390a150505050505050505056fea165627a7a723058203df6a90110abb08498b15a57680b85d5cca8108fd15e3e6c5b10b6d9071424390029",
  "source": "pragma solidity ^0.5.0;\n\ncontract Traders{\n    function getTrader(address id) public returns(uint, string memory,string memory, string memory,uint){}\n    function isTrader(address id) public returns(bool){}\n}\ncontract Tracks{\n    function getTrack(address id) public returns(uint, string memory, uint, address){}\n    function isTrack(address id) public returns(bool){}\n}\n\n//This is the best way to structure a digital entity in a contract\ncontract Agreements{\n    \n    struct Agreement{\n        address id;\n        address traderEmitterId;\n        address traderReceiverId;\n        uint percentage;\n        address trackId;\n        bool isAgreement;\n    }\n\n    mapping(address=>Agreement) public agreementStructList;\n    mapping(address=> address) agreementIdByReceiver; //query\n    address[] public agreementAddrList;\n\n    function isAgreement(address id) public returns(bool){\n        return agreementStructList[id].isAgreement;\n    }\n\n    function createAgreement(address id, \n                            address traderEmitterId, \n                            address traderReceiverId, \n                            uint percentageReceiver, \n                            address trackId,\n                            address tradersContractAddr,\n                            address tracksContractAddr\n                            ) public{\n        if(isAgreement(id)) revert(\"Agreement already exists\");\n\n        agreementIdByReceiver[traderReceiverId]=id;//This is for query the agreement by receiver\n        percentageReceiver = percentageReceiver/100;\n        \n        Traders tradersContract= Traders(tradersContractAddr);\n        Tracks tracksContract = Tracks(tracksContractAddr);\n\n        if(!tradersContract.isTrader(traderEmitterId)) revert('Emitter doesnt exists');\n        if(!tradersContract.isTrader(traderReceiverId)) revert('Receiver doesnt exists');\n        if(!tracksContract.isTrack(trackId)) revert('Track doenst exists');\n\n        agreementStructList[id].id= id;\n        agreementStructList[id].traderEmitterId=traderEmitterId;\n        agreementStructList[id].traderReceiverId=traderReceiverId;\n        agreementStructList[id].percentage=percentageReceiver;\n        agreementStructList[id].trackId = trackId;\n        agreementStructList[id].isAgreement=true;\n        \n        agreementAddrList.push(id);\n\n        emit stringLogs(\"Agreement created!!!\"); //this is an event\n        //TODO: check the percentage limit \n\n    }\n      function getAgreementIdByReceiver(address receiverId) public returns(address){\n        return agreementIdByReceiver[receiverId];\n    }\n\n    function getAgreement(address id) view public returns(address,address, address, uint,address) {\n        //This is the best way to avoid error stack too deep\n        return (\n                agreementStructList[id].id,\n                agreementStructList[id].traderEmitterId,\n                agreementStructList[id].traderReceiverId,\n                agreementStructList[id].percentage,\n                agreementStructList[id].trackId);\n    }\n\n    event stringLogs(string stringLogs);\n    event intLogs(uint intLogs);\n}    \n",
  "sourcePath": "/Users/nemesis1346/Documents/University Projects/distribution-algorithm-hyperledger-composer/ethereum-node-server/contracts/Agreements.sol",
  "compiler": {
    "name": "solc",
    "version": "0.5.0+commit.1d4f565a.Emscripten.clang"
  },
  "schemaVersion": "3.0.2",
  "updatedAt": "2019-03-31T22:28:54.400Z",
  "devdoc": {
    "methods": {}
  },
  "userdoc": {
    "methods": {}
  }
}