{
  "contractName": "Agreements",
  "abi": [
    {
      "constant": true,
      "inputs": [
        {
          "name": "",
          "type": "uint256"
        }
      ],
      "name": "agreements",
      "outputs": [
        {
          "name": "id",
          "type": "uint256"
        },
        {
          "name": "traderEmitterId",
          "type": "uint256"
        },
        {
          "name": "traderReceiverId",
          "type": "uint256"
        },
        {
          "name": "percentage",
          "type": "uint256"
        },
        {
          "name": "status",
          "type": "string"
        },
        {
          "name": "isrc",
          "type": "uint256"
        },
        {
          "name": "traderEmiterName",
          "type": "string"
        },
        {
          "name": "traderReceiverName",
          "type": "string"
        }
      ],
      "payable": false,
      "stateMutability": "view",
      "type": "function",
      "signature": "0xbd14de96"
    },
    {
      "anonymous": false,
      "inputs": [
        {
          "indexed": false,
          "name": "stringLogs",
          "type": "string"
        }
      ],
      "name": "stringLogs",
      "type": "event",
      "signature": "0x7204b477e961d11af7867ee2b94f62807cfb4d9bb931dab71c541f19f2152d46"
    },
    {
      "anonymous": false,
      "inputs": [
        {
          "indexed": false,
          "name": "intLogs",
          "type": "uint256"
        }
      ],
      "name": "intLogs",
      "type": "event",
      "signature": "0x82a5e81cde1835f4f28f4fdaac7e5ea0827d449ba9eb096e75cd3626cf3ec27f"
    },
    {
      "constant": false,
      "inputs": [
        {
          "name": "id",
          "type": "uint256"
        },
        {
          "name": "traderEmitterId",
          "type": "uint256"
        },
        {
          "name": "traderReceiverId",
          "type": "uint256"
        },
        {
          "name": "percentageReceiver",
          "type": "uint256"
        },
        {
          "name": "status",
          "type": "string"
        },
        {
          "name": "isrc",
          "type": "uint256"
        },
        {
          "name": "traderEmiterName",
          "type": "string"
        },
        {
          "name": "traderReceiverName",
          "type": "string"
        },
        {
          "name": "tradersContractAddr",
          "type": "address"
        },
        {
          "name": "tracksContractAddr",
          "type": "address"
        }
      ],
      "name": "createAgreement",
      "outputs": [],
      "payable": false,
      "stateMutability": "nonpayable",
      "type": "function",
      "signature": "0x6af680b1"
    },
    {
      "constant": false,
      "inputs": [
        {
          "name": "isrc",
          "type": "uint256"
        },
        {
          "name": "tracksContractAddr",
          "type": "address"
        }
      ],
      "name": "existTrack",
      "outputs": [
        {
          "name": "",
          "type": "bool"
        }
      ],
      "payable": false,
      "stateMutability": "nonpayable",
      "type": "function",
      "signature": "0xf0717803"
    },
    {
      "constant": false,
      "inputs": [
        {
          "name": "traderId",
          "type": "uint256"
        },
        {
          "name": "tradersContractAddr",
          "type": "address"
        }
      ],
      "name": "existTrader",
      "outputs": [
        {
          "name": "",
          "type": "bool"
        }
      ],
      "payable": false,
      "stateMutability": "nonpayable",
      "type": "function",
      "signature": "0x87a04f62"
    },
    {
      "constant": false,
      "inputs": [
        {
          "name": "id",
          "type": "uint256"
        }
      ],
      "name": "getAgreement",
      "outputs": [
        {
          "name": "",
          "type": "uint256"
        },
        {
          "name": "",
          "type": "uint256"
        },
        {
          "name": "",
          "type": "uint256"
        },
        {
          "name": "",
          "type": "string"
        },
        {
          "name": "",
          "type": "uint256"
        },
        {
          "name": "",
          "type": "string"
        },
        {
          "name": "",
          "type": "string"
        }
      ],
      "payable": false,
      "stateMutability": "nonpayable",
      "type": "function",
      "signature": "0x4f9f6fe6"
    }
  ],
  "bytecode": "0x608060405234801561001057600080fd5b506111dd806100206000396000f3fe60806040526004361061006d576000357c0100000000000000000000000000000000000000000000000000000000900463ffffffff1680634f9f6fe6146100725780636af680b11461021a57806387a04f6214610483578063bd14de96146104f6578063f0717803146106a5575b600080fd5b34801561007e57600080fd5b506100ab6004803603602081101561009557600080fd5b8101908080359060200190929190505050610718565b60405180888152602001878152602001868152602001806020018581526020018060200180602001848103845288818151815260200191508051906020019080838360005b8381101561010b5780820151818401526020810190506100f0565b50505050905090810190601f1680156101385780820380516001836020036101000a031916815260200191505b50848103835286818151815260200191508051906020019080838360005b83811015610171578082015181840152602081019050610156565b50505050905090810190601f16801561019e5780820380516001836020036101000a031916815260200191505b50848103825285818151815260200191508051906020019080838360005b838110156101d75780820151818401526020810190506101bc565b50505050905090810190601f1680156102045780820380516001836020036101000a031916815260200191505b509a505050505050505050505060405180910390f35b34801561022657600080fd5b50610481600480360361014081101561023e57600080fd5b81019080803590602001909291908035906020019092919080359060200190929190803590602001909291908035906020019064010000000081111561028357600080fd5b82018360208201111561029557600080fd5b803590602001918460018302840111640100000000831117156102b757600080fd5b91908080601f016020809104026020016040519081016040528093929190818152602001838380828437600081840152601f19601f820116905080830192505050505050509192919290803590602001909291908035906020019064010000000081111561032457600080fd5b82018360208201111561033657600080fd5b8035906020019184600183028401116401000000008311171561035857600080fd5b91908080601f016020809104026020016040519081016040528093929190818152602001838380828437600081840152601f19601f820116905080830192505050505050509192919290803590602001906401000000008111156103bb57600080fd5b8201836020820111156103cd57600080fd5b803590602001918460018302840111640100000000831117156103ef57600080fd5b91908080601f016020809104026020016040519081016040528093929190818152602001838380828437600081840152601f19601f820116905080830192505050505050509192919290803573ffffffffffffffffffffffffffffffffffffffff169060200190929190803573ffffffffffffffffffffffffffffffffffffffff1690602001909291905050506109ab565b005b34801561048f57600080fd5b506104dc600480360360408110156104a657600080fd5b8101908080359060200190929190803573ffffffffffffffffffffffffffffffffffffffff169060200190929190505050610b46565b604051808215151515815260200191505060405180910390f35b34801561050257600080fd5b5061052f6004803603602081101561051957600080fd5b8101908080359060200190929190505050610d4b565b60405180898152602001888152602001878152602001868152602001806020018581526020018060200180602001848103845288818151815260200191508051906020019080838360005b8381101561059557808201518184015260208101905061057a565b50505050905090810190601f1680156105c25780820380516001836020036101000a031916815260200191505b50848103835286818151815260200191508051906020019080838360005b838110156105fb5780820151818401526020810190506105e0565b50505050905090810190601f1680156106285780820380516001836020036101000a031916815260200191505b50848103825285818151815260200191508051906020019080838360005b83811015610661578082015181840152602081019050610646565b50505050905090810190601f16801561068e5780820380516001836020036101000a031916815260200191505b509b50505050505050505050505060405180910390f35b3480156106b157600080fd5b506106fe600480360360408110156106c857600080fd5b8101908080359060200190929190803573ffffffffffffffffffffffffffffffffffffffff169060200190929190505050610f5b565b604051808215151515815260200191505060405180910390f35b60008060006060600060608061072c6110c6565b6000808a8152602001908152602001600020610100604051908101604052908160008201548152602001600182015481526020016002820154815260200160038201548152602001600482018054600181600116156101000203166002900480601f01602080910402602001604051908101604052809291908181526020018280546001816001161561010002031660029004801561080c5780601f106107e15761010080835404028352916020019161080c565b820191906000526020600020905b8154815290600101906020018083116107ef57829003601f168201915b5050505050815260200160058201548152602001600682018054600181600116156101000203166002900480601f0160208091040260200160405190810160405280929190818152602001828054600181600116156101000203166002900480156108b85780601f1061088d576101008083540402835291602001916108b8565b820191906000526020600020905b81548152906001019060200180831161089b57829003601f168201915b50505050508152602001600782018054600181600116156101000203166002900480601f01602080910402602001604051908101604052809291908181526020018280546001816001161561010002031660029004801561095a5780601f1061092f5761010080835404028352916020019161095a565b820191906000526020600020905b81548152906001019060200180831161093d57829003601f168201915b505050505081525050905080602001518160400151826060015183608001518460a001518560c001518660e00151839350819150809050975097509750975097509750975050919395979092949650565b6064878115156109b757fe5b049650610100604051908101604052808b81526020018a8152602001898152602001888152602001878152602001868152602001858152602001848152506000808c8152602001908152602001600020600082015181600001556020820151816001015560408201518160020155606082015181600301556080820151816004019080519060200190610a4b92919061110c565b5060a0820151816005015560c0820151816006019080519060200190610a7292919061110c565b5060e0820151816007019080519060200190610a8f92919061110c565b50905050610a9d8983610b46565b1515610aa857600080fd5b610ab28883610b46565b1515610abd57600080fd5b610ac78582610f5b565b1515610ad257600080fd5b7f7204b477e961d11af7867ee2b94f62807cfb4d9bb931dab71c541f19f2152d466040518080602001828103825260148152602001807f41677265656d656e74206372656174656421212100000000000000000000000081525060200191505060405180910390a150505050505050505050565b6000808290506000606080606060008573ffffffffffffffffffffffffffffffffffffffff1663bcfbd4458a6040518263ffffffff167c010000000000000000000000000000000000000000000000000000000002815260040180828152602001915050600060405180830381600087803b158015610bc457600080fd5b505af1158015610bd8573d6000803e3d6000fd5b505050506040513d6000823e3d601f19601f8201168201806040525060a0811015610c0257600080fd5b81019080805190602001909291908051640100000000811115610c2457600080fd5b82810190506020810184811115610c3a57600080fd5b8151856001820283011164010000000082111715610c5757600080fd5b50509291906020018051640100000000811115610c7357600080fd5b82810190506020810184811115610c8957600080fd5b8151856001820283011164010000000082111715610ca657600080fd5b50509291906020018051640100000000811115610cc257600080fd5b82810190506020810184811115610cd857600080fd5b8151856001820283011164010000000082111715610cf557600080fd5b5050929190602001805190602001909291905050509450945094509450945060008514158015610d26575060008451115b15610d3a5760019650505050505050610d45565b600096505050505050505b92915050565b6000602052806000526040600020600091509050806000015490806001015490806002015490806003015490806004018054600181600116156101000203166002900480601f016020809104026020016040519081016040528092919081815260200182805460018160011615610100020316600290048015610e0f5780601f10610de457610100808354040283529160200191610e0f565b820191906000526020600020905b815481529060010190602001808311610df257829003601f168201915b505050505090806005015490806006018054600181600116156101000203166002900480601f016020809104026020016040519081016040528092919081815260200182805460018160011615610100020316600290048015610eb35780601f10610e8857610100808354040283529160200191610eb3565b820191906000526020600020905b815481529060010190602001808311610e9657829003601f168201915b505050505090806007018054600181600116156101000203166002900480601f016020809104026020016040519081016040528092919081815260200182805460018160011615610100020316600290048015610f515780601f10610f2657610100808354040283529160200191610f51565b820191906000526020600020905b815481529060010190602001808311610f3457829003601f168201915b5050505050905088565b600080829050600060606000808473ffffffffffffffffffffffffffffffffffffffff1663629058ca896040518263ffffffff167c010000000000000000000000000000000000000000000000000000000002815260040180828152602001915050600060405180830381600087803b158015610fd757600080fd5b505af1158015610feb573d6000803e3d6000fd5b505050506040513d6000823e3d601f19601f82011682018060405250608081101561101557600080fd5b8101908080519060200190929190805164010000000081111561103757600080fd5b8281019050602081018481111561104d57600080fd5b815185600182028301116401000000008211171561106a57600080fd5b505092919060200180519060200190929190805190602001909291905050509350935093509350600084141580156110a3575060008351115b156110b6576001955050505050506110c0565b6000955050505050505b92915050565b6101006040519081016040528060008152602001600081526020016000815260200160008152602001606081526020016000815260200160608152602001606081525090565b828054600181600116156101000203166002900490600052602060002090601f016020900481019282601f1061114d57805160ff191683800117855561117b565b8280016001018555821561117b579182015b8281111561117a57825182559160200191906001019061115f565b5b509050611188919061118c565b5090565b6111ae91905b808211156111aa576000816000905550600101611192565b5090565b9056fea165627a7a72305820c02b2f1973c45c13d634b2fdbef580ff43ebc68b70317987dd6fa66e5b65e1040029",
  "source": "pragma solidity ^0.5.0;\n\ncontract Traders{\n    function getTrader(uint id) public returns(uint, string memory,string memory, string memory,uint){}\n}\ncontract Tracks{\n    function getTrack(uint id) public returns(uint, string memory, uint, address){}\n}\n//This is the best way to structure a digital entity in a contract\ncontract Agreements{\n    \n    struct Agreement{\n        uint id;\n        uint traderEmitterId;\n        uint traderReceiverId;\n        uint percentage;\n        string status;\n        uint isrc;\n        string traderEmiterName;\n        string traderReceiverName;\n    }\n\n    mapping(uint=>Agreement) public agreements;\n\n    function createAgreement(uint id, \n                            uint traderEmitterId, \n                            uint traderReceiverId, \n                            uint percentageReceiver, \n                            string memory status, \n                            uint isrc,\n                            string memory traderEmiterName,\n                            string memory traderReceiverName,\n                            address tradersContractAddr,\n                            address tracksContractAddr\n                            ) public{\n      \n        percentageReceiver = percentageReceiver/100;\n        agreements[id]=Agreement(id,traderEmitterId, traderReceiverId, percentageReceiver, status, isrc,traderEmiterName, traderReceiverName);\n        \n        require(existTrader(traderEmitterId,tradersContractAddr));\n        require(existTrader(traderReceiverId,tradersContractAddr));\n        require(existTrack(isrc, tracksContractAddr));\n        emit stringLogs(\"Agreement created!!!\"); //this is an event\n        //TODO: check the percentage limit \n\n    }\n    \n    function existTrack(uint isrc, address tracksContractAddr) public returns (bool){\n        Tracks tracksInterface = Tracks(tracksContractAddr);\n        (uint isrc, \n        string memory title, \n        uint revenueTotal, \n        address uploaderEOA)=tracksInterface.getTrack(isrc);\n        \n         if(isrc!=0 && bytes(title).length>0){\n            return true; \n        } else{\n            return false;\n        }  \n    }\n    \n \n    function existTrader(uint traderId,address tradersContractAddr) public returns (bool){\n          //We get the Traders contract with address                        \n        Traders tradersInterface = Traders(tradersContractAddr);\n\n        (uint idTrader,\n        string memory nameTrader, \n        string memory emailTrader, \n        string memory traderTypeTrader,\n        uint tokenAccountIdTrader)=tradersInterface.getTrader(traderId);\n        \n        if(idTrader!=0 && bytes(nameTrader).length>0){\n            return true; \n        } else{\n            return false;\n        }  \n    }\n    \n    function getAgreement(uint id) public returns(uint,uint, uint, string memory,uint,string memory,string memory) {\n        //This is the best way to avoid error stack too deep\n        Agreement memory agreement = agreements[id];\n        return (\n                agreement.traderEmitterId,\n                agreement.traderReceiverId,\n                agreement.percentage,\n                agreement.status, \n                agreement.isrc,\n                agreement.traderEmiterName,\n                agreement.traderReceiverName);\n    }\n\n    event stringLogs(string stringLogs);\n    event intLogs(uint intLogs);\n}    \n",
  "sourcePath": "/home/nemesis1346/Documents/UniversityProjects/distribution-algorithm-hyperledger-composer/ethereum-node-server/contracts/Agreements.sol",
  "compiler": {
    "name": "solc",
    "version": "0.5.0+commit.1d4f565a.Emscripten.clang"
  },
  "schemaVersion": "3.0.2",
  "updatedAt": "2019-03-26T20:45:51.631Z",
  "devdoc": {
    "methods": {}
  },
  "userdoc": {
    "methods": {}
  }
}