{
  "contractName": "CalleeTest",
  "abi": [
    {
      "constant": true,
      "inputs": [],
      "name": "anotherMessage",
      "outputs": [
        {
          "name": "",
          "type": "string"
        }
      ],
      "payable": false,
      "stateMutability": "view",
      "type": "function",
      "signature": "0x418f3afa"
    },
    {
      "constant": true,
      "inputs": [
        {
          "name": "",
          "type": "uint256"
        }
      ],
      "name": "structs",
      "outputs": [
        {
          "name": "id",
          "type": "uint256"
        },
        {
          "name": "name",
          "type": "string"
        }
      ],
      "payable": false,
      "stateMutability": "view",
      "type": "function",
      "signature": "0x55341938"
    },
    {
      "constant": true,
      "inputs": [],
      "name": "integerTest",
      "outputs": [
        {
          "name": "",
          "type": "uint256"
        }
      ],
      "payable": false,
      "stateMutability": "view",
      "type": "function",
      "signature": "0xe974cdb1"
    },
    {
      "anonymous": false,
      "inputs": [
        {
          "indexed": false,
          "name": "stringLogs",
          "type": "string"
        }
      ],
      "name": "stringLogs",
      "type": "event",
      "signature": "0x7204b477e961d11af7867ee2b94f62807cfb4d9bb931dab71c541f19f2152d46"
    },
    {
      "anonymous": false,
      "inputs": [
        {
          "indexed": false,
          "name": "intLogs",
          "type": "uint256"
        }
      ],
      "name": "intLogs",
      "type": "event",
      "signature": "0x82a5e81cde1835f4f28f4fdaac7e5ea0827d449ba9eb096e75cd3626cf3ec27f"
    },
    {
      "constant": false,
      "inputs": [],
      "name": "getString",
      "outputs": [
        {
          "name": "",
          "type": "string"
        }
      ],
      "payable": false,
      "stateMutability": "nonpayable",
      "type": "function",
      "signature": "0x89ea642f"
    },
    {
      "constant": false,
      "inputs": [
        {
          "name": "stringInput",
          "type": "string"
        }
      ],
      "name": "setString",
      "outputs": [
        {
          "name": "",
          "type": "string"
        }
      ],
      "payable": false,
      "stateMutability": "nonpayable",
      "type": "function",
      "signature": "0x7fcaf666"
    },
    {
      "constant": false,
      "inputs": [],
      "name": "getInteger",
      "outputs": [
        {
          "name": "",
          "type": "uint256"
        }
      ],
      "payable": false,
      "stateMutability": "nonpayable",
      "type": "function",
      "signature": "0x8b84925b"
    },
    {
      "constant": false,
      "inputs": [
        {
          "name": "id",
          "type": "uint256"
        }
      ],
      "name": "setInteger",
      "outputs": [
        {
          "name": "",
          "type": "uint256"
        }
      ],
      "payable": false,
      "stateMutability": "nonpayable",
      "type": "function",
      "signature": "0xac588675"
    },
    {
      "constant": false,
      "inputs": [
        {
          "name": "id",
          "type": "uint256"
        }
      ],
      "name": "getStruct",
      "outputs": [
        {
          "name": "",
          "type": "uint256"
        },
        {
          "name": "",
          "type": "string"
        }
      ],
      "payable": true,
      "stateMutability": "payable",
      "type": "function",
      "signature": "0xcdfa8495"
    },
    {
      "constant": false,
      "inputs": [
        {
          "name": "id",
          "type": "uint256"
        },
        {
          "name": "name",
          "type": "string"
        }
      ],
      "name": "setStruct",
      "outputs": [],
      "payable": false,
      "stateMutability": "nonpayable",
      "type": "function",
      "signature": "0xb56ac1f2"
    }
  ],
  "bytecode": "0x6080604052600080556040805190810160405280600481526020017f484f4c410000000000000000000000000000000000000000000000000000000081525060019080519060200190610053929190610066565b5034801561006057600080fd5b5061010b565b828054600181600116156101000203166002900490600052602060002090601f016020900481019282601f106100a757805160ff19168380011785556100d5565b828001600101855582156100d5579182015b828111156100d45782518255916020019190600101906100b9565b5b5090506100e291906100e6565b5090565b61010891905b808211156101045760008160009055506001016100ec565b5090565b90565b610a988061011a6000396000f3fe608060405260043610610099576000357c0100000000000000000000000000000000000000000000000000000000900463ffffffff168063418f3afa1461009e578063553419381461012e5780637fcaf666146101e957806389ea642f1461032a5780638b84925b146103ba578063ac588675146103e5578063b56ac1f214610434578063cdfa849514610506578063e974cdb1146105b4575b600080fd5b3480156100aa57600080fd5b506100b36105df565b6040518080602001828103825283818151815260200191508051906020019080838360005b838110156100f35780820151818401526020810190506100d8565b50505050905090810190601f1680156101205780820380516001836020036101000a031916815260200191505b509250505060405180910390f35b34801561013a57600080fd5b506101676004803603602081101561015157600080fd5b810190808035906020019092919050505061067d565b6040518083815260200180602001828103825283818151815260200191508051906020019080838360005b838110156101ad578082015181840152602081019050610192565b50505050905090810190601f1680156101da5780820380516001836020036101000a031916815260200191505b50935050505060405180910390f35b3480156101f557600080fd5b506102af6004803603602081101561020c57600080fd5b810190808035906020019064010000000081111561022957600080fd5b82018360208201111561023b57600080fd5b8035906020019184600183028401116401000000008311171561025d57600080fd5b91908080601f016020809104026020016040519081016040528093929190818152602001838380828437600081840152601f19601f820116905080830192505050505050509192919290505050610739565b6040518080602001828103825283818151815260200191508051906020019080838360005b838110156102ef5780820151818401526020810190506102d4565b50505050905090810190601f16801561031c5780820380516001836020036101000a031916815260200191505b509250505060405180910390f35b34801561033657600080fd5b5061033f610757565b6040518080602001828103825283818151815260200191508051906020019080838360005b8381101561037f578082015181840152602081019050610364565b50505050905090810190601f1680156103ac5780820380516001836020036101000a031916815260200191505b509250505060405180910390f35b3480156103c657600080fd5b506103cf6107f9565b6040518082815260200191505060405180910390f35b3480156103f157600080fd5b5061041e6004803603602081101561040857600080fd5b8101908080359060200190929190505050610802565b6040518082815260200191505060405180910390f35b34801561044057600080fd5b506105046004803603604081101561045757600080fd5b81019080803590602001909291908035906020019064010000000081111561047e57600080fd5b82018360208201111561049057600080fd5b803590602001918460018302840111640100000000831117156104b257600080fd5b91908080601f016020809104026020016040519081016040528093929190818152602001838380828437600081840152601f19601f820116905080830192505050505050509192919290505050610815565b005b6105326004803603602081101561051c57600080fd5b810190808035906020019092919050505061086b565b6040518083815260200180602001828103825283818151815260200191508051906020019080838360005b8381101561057857808201518184015260208101905061055d565b50505050905090810190601f1680156105a55780820380516001836020036101000a031916815260200191505b50935050505060405180910390f35b3480156105c057600080fd5b506105c9610941565b6040518082815260200191505060405180910390f35b60018054600181600116156101000203166002900480601f0160208091040260200160405190810160405280929190818152602001828054600181600116156101000203166002900480156106755780601f1061064a57610100808354040283529160200191610675565b820191906000526020600020905b81548152906001019060200180831161065857829003601f168201915b505050505081565b6002602052806000526040600020600091509050806000015490806001018054600181600116156101000203166002900480601f01602080910402602001604051908101604052809291908181526020018280546001816001161561010002031660029004801561072f5780601f106107045761010080835404028352916020019161072f565b820191906000526020600020905b81548152906001019060200180831161071257829003601f168201915b5050505050905082565b60608160019080519060200190610751929190610947565b50919050565b606060018054600181600116156101000203166002900480601f0160208091040260200160405190810160405280929190818152602001828054600181600116156101000203166002900480156107ef5780601f106107c4576101008083540402835291602001916107ef565b820191906000526020600020905b8154815290600101906020018083116107d257829003601f168201915b5050505050905090565b60008054905090565b6000816000819055506000549050919050565b604080519081016040528083815260200182815250600260008481526020019081526020016000206000820151816000015560208201518160010190805190602001906108639291906109c7565b509050505050565b60006060600260008481526020019081526020016000206000015460026000858152602001908152602001600020600101808054600181600116156101000203166002900480601f0160208091040260200160405190810160405280929190818152602001828054600181600116156101000203166002900480156109315780601f1061090657610100808354040283529160200191610931565b820191906000526020600020905b81548152906001019060200180831161091457829003601f168201915b5050505050905091509150915091565b60005481565b828054600181600116156101000203166002900490600052602060002090601f016020900481019282601f1061098857805160ff19168380011785556109b6565b828001600101855582156109b6579182015b828111156109b557825182559160200191906001019061099a565b5b5090506109c39190610a47565b5090565b828054600181600116156101000203166002900490600052602060002090601f016020900481019282601f10610a0857805160ff1916838001178555610a36565b82800160010185558215610a36579182015b82811115610a35578251825591602001919060010190610a1a565b5b509050610a439190610a47565b5090565b610a6991905b80821115610a65576000816000905550600101610a4d565b5090565b9056fea165627a7a72305820cb350df9bc9e3cb09b5d7968fef3e3db0f3cb4b804cb5bd5630ac94b669f72c10029",
  "source": "pragma solidity ^0.5.0;\n\n//This is the best way to structure a digital entity in a contract\ncontract CalleeTest{\n    uint public integerTest=0;\n    string public anotherMessage =\"HOLA\";\n    \n    struct StructTest{\n        uint id;\n        string name;\n    }\n    struct StructByString{\n        uint intProperty;\n        string stringProperty;\n    }\n\n    //mapping(string=>StructByString[]) public structsByString;\n    mapping(uint=>StructTest) public structs;\n\n    function getString() public returns(string memory){\n        return (anotherMessage);\n    }\n    function setString(string memory stringInput)public returns(string memory){\n        anotherMessage = stringInput;\n    }\n    function getInteger() public returns(uint){\n        return integerTest;\n    }\n    function setInteger(uint id) public returns(uint){\n        integerTest= id;\n        return integerTest;\n    }\n     function getStruct(uint id) public payable returns(uint, string memory) {\n        return (structs[id].id, structs[id].name);\n    }\n    function setStruct(uint id, string memory name) public{\n        structs[id]=StructTest(id,name);\n    }\n\n    event stringLogs(string stringLogs);\n    event intLogs(uint intLogs);\n}    \n",
  "sourcePath": "/home/nemesis1346/Documents/UniversityProjects/distribution-algorithm-hyperledger-composer/ethereum-node-server/contracts/CalleeTest.sol",
  "compiler": {
    "name": "solc",
    "version": "0.5.0+commit.1d4f565a.Emscripten.clang"
  },
  "schemaVersion": "3.0.2",
  "updatedAt": "2019-04-03T23:51:43.678Z",
  "devdoc": {
    "methods": {}
  },
  "userdoc": {
    "methods": {}
  }
}