{
  "contractName": "CalleeTest",
  "abi": [
    {
      "constant": true,
      "inputs": [],
      "name": "anotherMessage",
      "outputs": [
        {
          "name": "",
          "type": "string"
        }
      ],
      "payable": false,
      "stateMutability": "view",
      "type": "function"
    },
    {
      "constant": true,
      "inputs": [
        {
          "name": "",
          "type": "uint256"
        }
      ],
      "name": "structs",
      "outputs": [
        {
          "name": "id",
          "type": "uint256"
        },
        {
          "name": "name",
          "type": "string"
        }
      ],
      "payable": false,
      "stateMutability": "view",
      "type": "function"
    },
    {
      "constant": true,
      "inputs": [],
      "name": "integerTest",
      "outputs": [
        {
          "name": "",
          "type": "uint256"
        }
      ],
      "payable": false,
      "stateMutability": "view",
      "type": "function"
    },
    {
      "anonymous": false,
      "inputs": [
        {
          "indexed": false,
          "name": "stringLogs",
          "type": "string"
        }
      ],
      "name": "stringLogs",
      "type": "event"
    },
    {
      "anonymous": false,
      "inputs": [
        {
          "indexed": false,
          "name": "intLogs",
          "type": "uint256"
        }
      ],
      "name": "intLogs",
      "type": "event"
    },
    {
      "constant": false,
      "inputs": [],
      "name": "getString",
      "outputs": [
        {
          "name": "",
          "type": "string"
        }
      ],
      "payable": false,
      "stateMutability": "nonpayable",
      "type": "function"
    },
    {
      "constant": false,
      "inputs": [
        {
          "name": "stringInput",
          "type": "string"
        }
      ],
      "name": "setString",
      "outputs": [
        {
          "name": "",
          "type": "string"
        }
      ],
      "payable": false,
      "stateMutability": "nonpayable",
      "type": "function"
    },
    {
      "constant": false,
      "inputs": [],
      "name": "getInteger",
      "outputs": [
        {
          "name": "",
          "type": "uint256"
        }
      ],
      "payable": false,
      "stateMutability": "nonpayable",
      "type": "function"
    },
    {
      "constant": false,
      "inputs": [
        {
          "name": "id",
          "type": "uint256"
        }
      ],
      "name": "setInteger",
      "outputs": [
        {
          "name": "",
          "type": "uint256"
        }
      ],
      "payable": false,
      "stateMutability": "nonpayable",
      "type": "function"
    },
    {
      "constant": false,
      "inputs": [
        {
          "name": "id",
          "type": "uint256"
        }
      ],
      "name": "getStruct",
      "outputs": [
        {
          "name": "",
          "type": "uint256"
        },
        {
          "name": "",
          "type": "string"
        }
      ],
      "payable": true,
      "stateMutability": "payable",
      "type": "function"
    },
    {
      "constant": false,
      "inputs": [
        {
          "name": "id",
          "type": "uint256"
        },
        {
          "name": "name",
          "type": "string"
        }
      ],
      "name": "setStruct",
      "outputs": [],
      "payable": false,
      "stateMutability": "nonpayable",
      "type": "function"
    }
  ],
  "bytecode": "0x6000805560c0604052600460808190527f484f4c410000000000000000000000000000000000000000000000000000000060a09081526100429160019190610055565b5034801561004f57600080fd5b506100f0565b828054600181600116156101000203166002900490600052602060002090601f016020900481019282601f1061009657805160ff19168380011785556100c3565b828001600101855582156100c3579182015b828111156100c35782518255916020019190600101906100a8565b506100cf9291506100d3565b5090565b6100ed91905b808211156100cf57600081556001016100d9565b90565b610780806100ff6000396000f3fe6080604052600436106100985763ffffffff7c0100000000000000000000000000000000000000000000000000000000600035041663418f3afa811461009d57806355341938146101275780637fcaf666146101d057806389ea642f146102835780638b84925b14610298578063ac588675146102bf578063b56ac1f2146102e9578063cdfa8495146103a5578063e974cdb1146103c2575b600080fd5b3480156100a957600080fd5b506100b26103d7565b6040805160208082528351818301528351919283929083019185019080838360005b838110156100ec5781810151838201526020016100d4565b50505050905090810190601f1680156101195780820380516001836020036101000a031916815260200191505b509250505060405180910390f35b34801561013357600080fd5b506101516004803603602081101561014a57600080fd5b5035610464565b6040518083815260200180602001828103825283818151815260200191508051906020019080838360005b8381101561019457818101518382015260200161017c565b50505050905090810190601f1680156101c15780820380516001836020036101000a031916815260200191505b50935050505060405180910390f35b3480156101dc57600080fd5b506100b2600480360360208110156101f357600080fd5b81019060208101813564010000000081111561020e57600080fd5b82018360208201111561022057600080fd5b8035906020019184600183028401116401000000008311171561024257600080fd5b91908080601f016020809104026020016040519081016040528093929190818152602001838380828437600092019190915250929550610509945050505050565b34801561028f57600080fd5b506100b2610525565b3480156102a457600080fd5b506102ad6105bb565b60408051918252519081900360200190f35b3480156102cb57600080fd5b506102ad600480360360208110156102e257600080fd5b50356105c1565b3480156102f557600080fd5b506103a36004803603604081101561030c57600080fd5b8135919081019060408101602082013564010000000081111561032e57600080fd5b82018360208201111561034057600080fd5b8035906020019184600183028401116401000000008311171561036257600080fd5b91908080601f0160208091040260200160405190810160405280939291908181526020018383808284376000920191909152509295506105c9945050505050565b005b610151600480360360208110156103bb57600080fd5b503561060c565b3480156103ce57600080fd5b506102ad6106b6565b60018054604080516020600284861615610100026000190190941693909304601f8101849004840282018401909252818152929183018282801561045c5780601f106104315761010080835404028352916020019161045c565b820191906000526020600020905b81548152906001019060200180831161043f57829003601f168201915b505050505081565b60026020818152600092835260409283902080546001808301805487519281161561010002600019011695909504601f81018590048502820185019096528581529094919390929091908301828280156104ff5780601f106104d4576101008083540402835291602001916104ff565b820191906000526020600020905b8154815290600101906020018083116104e257829003601f168201915b5050505050905082565b805160609061051f9060019060208501906106bc565b50919050565b60018054604080516020601f600260001961010087891615020190951694909404938401819004810282018101909252828152606093909290918301828280156105b05780601f10610585576101008083540402835291602001916105b0565b820191906000526020600020905b81548152906001019060200180831161059357829003601f168201915b505050505090505b90565b60005490565b600081905590565b604080518082018252838152602080820184815260008681526002835293909320825181559251805192939261060592600185019201906106bc565b5050505050565b600081815260026020818152604080842080546001918201805484519381161561010002600019011695909504601f81018590048502830185019093528282526060949093909283918301828280156106a65780601f1061067b576101008083540402835291602001916106a6565b820191906000526020600020905b81548152906001019060200180831161068957829003601f168201915b5050505050905091509150915091565b60005481565b828054600181600116156101000203166002900490600052602060002090601f016020900481019282601f106106fd57805160ff191683800117855561072a565b8280016001018555821561072a579182015b8281111561072a57825182559160200191906001019061070f565b5061073692915061073a565b5090565b6105b891905b80821115610736576000815560010161074056fea165627a7a723058206cd289d471c90ee35ae59ee9fcb82d5067e73746baf989e692f06f17b6707c570029",
  "source": "pragma solidity ^0.5.0;\n\n//This is the best way to structure a digital entity in a contract\ncontract CalleeTest{\n    uint public integerTest=0;\n    string public anotherMessage =\"HOLA\";\n    \n    struct StructTest{\n        uint id;\n        string name;\n    }\n    struct StructByString{\n        uint intProperty;\n        string stringProperty;\n    }\n\n    //mapping(string=>StructByString[]) public structsByString;\n    mapping(uint=>StructTest) public structs;\n\n    function getString() public returns(string memory){\n        return (anotherMessage);\n    }\n    function setString(string memory stringInput)public returns(string memory){\n        anotherMessage = stringInput;\n    }\n    function getInteger() public returns(uint){\n        return integerTest;\n    }\n    function setInteger(uint id) public returns(uint){\n        integerTest= id;\n        return integerTest;\n    }\n     function getStruct(uint id) public payable returns(uint, string memory) {\n        return (structs[id].id, structs[id].name);\n    }\n    function setStruct(uint id, string memory name) public{\n        structs[id]=StructTest(id,name);\n    }\n\n    event stringLogs(string stringLogs);\n    event intLogs(uint intLogs);\n}    \n",
  "sourcePath": "/home/nemesis1346/Documents/UniversityProjects/distribution-algorithm-hyperledger-composer/ethereum-node-server/contracts/best-practices/CalleeTest.sol",
  "compiler": {
    "name": "solc",
    "version": "0.5.0+commit.1d4f565a.Emscripten.clang"
  },
  "schemaVersion": "3.0.2",
  "updatedAt": "2019-05-15T21:41:16.758Z",
  "devdoc": {
    "methods": {}
  },
  "userdoc": {
    "methods": {}
  }
}