{
  "contractName": "CallerAddressTest",
  "abi": [
    {
      "constant": true,
      "inputs": [],
      "name": "calleeTestInterface",
      "outputs": [
        {
          "name": "",
          "type": "address"
        }
      ],
      "payable": false,
      "stateMutability": "view",
      "type": "function"
    },
    {
      "constant": true,
      "inputs": [
        {
          "name": "",
          "type": "uint256"
        }
      ],
      "name": "agreements",
      "outputs": [
        {
          "name": "agreementId",
          "type": "uint256"
        },
        {
          "name": "emitterId",
          "type": "uint256"
        },
        {
          "name": "receiverId",
          "type": "uint256"
        }
      ],
      "payable": false,
      "stateMutability": "view",
      "type": "function"
    },
    {
      "anonymous": false,
      "inputs": [
        {
          "indexed": false,
          "name": "stringLogs",
          "type": "string"
        }
      ],
      "name": "stringLogs",
      "type": "event"
    },
    {
      "anonymous": false,
      "inputs": [
        {
          "indexed": false,
          "name": "intLogs",
          "type": "uint256"
        }
      ],
      "name": "intLogs",
      "type": "event"
    },
    {
      "constant": false,
      "inputs": [
        {
          "name": "agreementId",
          "type": "uint256"
        },
        {
          "name": "emitterId",
          "type": "uint256"
        },
        {
          "name": "receiverId",
          "type": "uint256"
        }
      ],
      "name": "createTraderTest",
      "outputs": [],
      "payable": false,
      "stateMutability": "nonpayable",
      "type": "function"
    },
    {
      "constant": false,
      "inputs": [
        {
          "name": "receiverId",
          "type": "uint256"
        }
      ],
      "name": "getAgreementByReceiver",
      "outputs": [
        {
          "name": "",
          "type": "uint256"
        }
      ],
      "payable": false,
      "stateMutability": "nonpayable",
      "type": "function"
    },
    {
      "constant": false,
      "inputs": [
        {
          "name": "calleAddress",
          "type": "address"
        }
      ],
      "name": "getTest2",
      "outputs": [],
      "payable": false,
      "stateMutability": "nonpayable",
      "type": "function"
    }
  ],
  "bytecode": "0x608060405234801561001057600080fd5b50610873806100206000396000f3fe60806040526004361061006c5763ffffffff7c01000000000000000000000000000000000000000000000000000000006000350416632b86c5a681146100715780636907ef87146100a2578063721eb7ec146100d7578063bd14de961461010d578063ea726c0114610155575b600080fd5b34801561007d57600080fd5b50610086610191565b60408051600160a060020a039092168252519081900360200190f35b3480156100ae57600080fd5b506100d5600480360360208110156100c557600080fd5b5035600160a060020a03166101a0565b005b3480156100e357600080fd5b506100d5600480360360608110156100fa57600080fd5b50803590602081013590604001356107ce565b34801561011957600080fd5b506101376004803603602081101561013057600080fd5b5035610815565b60408051938452602084019290925282820152519081900360600190f35b34801561016157600080fd5b5061017f6004803603602081101561017857600080fd5b5035610835565b60408051918252519081900360200190f35b600054600160a060020a031681565b6000805473ffffffffffffffffffffffffffffffffffffffff1916600160a060020a0383811691909117808355604080517fac588675000000000000000000000000000000000000000000000000000000008152600260048201529051919092169263ac58867592602480820193602093909283900390910190829087803b15801561022b57600080fd5b505af115801561023f573d6000803e3d6000fd5b505050506040513d602081101561025557600080fd5b505060008054604080517f8b84925b0000000000000000000000000000000000000000000000000000000081529051600160a060020a0390921691638b84925b9160048082019260209290919082900301818787803b1580156102b757600080fd5b505af11580156102cb573d6000803e3d6000fd5b505050506040513d60208110156102e157600080fd5b505160008054604080517f7fcaf66600000000000000000000000000000000000000000000000000000000815260206004820152600d60248201527f4d45535341474520494e5055540000000000000000000000000000000000000060448201529051939450600160a060020a0390911692637fcaf6669260648084019391929182900301818387803b15801561037757600080fd5b505af115801561038b573d6000803e3d6000fd5b505050506040513d6000823e601f3d908101601f1916820160405260208110156103b457600080fd5b8101908080516401000000008111156103cc57600080fd5b820160208101848111156103df57600080fd5b81516401000000008111828201871017156103f957600080fd5b505060008054604080517f89ea642f000000000000000000000000000000000000000000000000000000008152905160609750600160a060020a0390921695506389ea642f9450600480820194509082900301818387803b15801561045d57600080fd5b505af1158015610471573d6000803e3d6000fd5b505050506040513d6000823e601f3d908101601f19168201604052602081101561049a57600080fd5b8101908080516401000000008111156104b257600080fd5b820160208101848111156104c557600080fd5b81516401000000008111828201871017156104df57600080fd5b505060008054604080517fb56ac1f2000000000000000000000000000000000000000000000000000000008152602c600482015260248101829052601160448201527f74686973206973206120746573746e657400000000000000000000000000000060648201529051939750600160a060020a03909116955063b56ac1f29450608480820194509192919082900301818387803b15801561058057600080fd5b505af1158015610594573d6000803e3d6000fd5b505060008054604080517fcdfa8495000000000000000000000000000000000000000000000000000000008152600b6004820152905192945060609350600160a060020a039091169163cdfa849591602480820192879290919082900301818387803b15801561060357600080fd5b505af1158015610617573d6000803e3d6000fd5b505050506040513d6000823e601f3d908101601f19168201604090815281101561064057600080fd5b81516020830180519193928301929164010000000081111561066157600080fd5b8201602081018481111561067457600080fd5b815164010000000081118282018710171561068e57600080fd5b50506040805160208082526006908201527f54455354203200000000000000000000000000000000000000000000000000008183015290519597509095507f7204b477e961d11af7867ee2b94f62807cfb4d9bb931dab71c541f19f2152d4694908190036060019350915050a16040805183815290517f82a5e81cde1835f4f28f4fdaac7e5ea0827d449ba9eb096e75cd3626cf3ec27f9181900360200190a17f7204b477e961d11af7867ee2b94f62807cfb4d9bb931dab71c541f19f2152d46816040518080602001828103825283818151815260200191508051906020019080838360005b8381101561078d578181015183820152602001610775565b50505050905090810190601f1680156107ba5780820380516001836020036101000a031916815260200191505b509250505060405180910390a15050505050565b600081815260026020818152604080842087905580516060810182528781528083019687528082019586529684526001918290529092209451855592519084015551910155565b600160208190526000918252604090912080549181015460029091015483565b6000908152600260205260409020549056fea165627a7a7230582063cf1ca77a8a81d003afc3b95510faf010a1c6beba87128ccbb6ceeb4fca6ec50029",
  "source": "pragma solidity ^0.5.0;\n//This is the correct way to do it, its working \ncontract CalleeTest{\n    function getString() public returns(string memory){}\n    function setString(string memory stringInput)public returns(string memory){}\n    function getInteger() public returns(uint){}\n    function setInteger(uint id) public returns(uint){}\n    function getStruct(uint id) public payable returns(uint, string memory){}\n    function setStruct(uint id, string memory name) public{}\n}\n\n//This is the best way to structure a digital entity in a contract\ncontract CallerAddressTest{\n    CalleeTest public calleeTestInterface;\n    \n    //This is a test for query by other property\n    struct AgreementTest{\n        uint agreementId;\n        uint emitterId;\n        uint receiverId;\n    }\n    mapping(uint=>AgreementTest) public agreements;\n    mapping(uint=> uint) getAgreementIdByReceiver;\n\n\n    function createTraderTest(uint agreementId, uint emitterId, uint receiverId) public {\n        getAgreementIdByReceiver[receiverId]=agreementId;\n        agreements[agreementId]=AgreementTest(agreementId,emitterId,receiverId);\n    }\n    function getAgreementByReceiver(uint receiverId) public returns(uint){\n        return getAgreementIdByReceiver[receiverId];\n    }\n    \n    function getTest2(address calleAddress)public{\n        calleeTestInterface = CalleeTest(calleAddress); //this CREATES A NEW EMPTY CONTRACT INSTANCE\n        \n        calleeTestInterface.setInteger(2);\n        uint test2 = calleeTestInterface.getInteger();\n        \n        calleeTestInterface.setString(\"MESSAGE INPUT\");\n        string memory stringTest2=calleeTestInterface.getString();\n        \n        calleeTestInterface.setStruct(44,\"this is a testnet\");\n        (uint id, string memory name)=calleeTestInterface.getStruct(11);\n        \n        emit stringLogs('TEST 2');\n        //emit intLogs(test2);\n        //emit stringLogs(stringTest2);\n        emit intLogs(id);\n        emit stringLogs(name);\n    }\n\n    event stringLogs(string stringLogs);\n    event intLogs(uint intLogs);\n}    \n\n",
  "sourcePath": "/home/nemesis1346/Documents/UniversityProjects/distribution-algorithm-hyperledger-composer/ethereum-node-server/contracts/best-practices/CallerAddressTest.sol",
  "compiler": {
    "name": "solc",
    "version": "0.5.0+commit.1d4f565a.Emscripten.clang"
  },
  "schemaVersion": "3.0.2",
  "updatedAt": "2019-05-14T23:08:38.544Z",
  "devdoc": {
    "methods": {}
  },
  "userdoc": {
    "methods": {}
  }
}