{
  "contractName": "CallerAddressTest",
  "abi": [
    {
      "constant": true,
      "inputs": [],
      "name": "calleeTestInterface",
      "outputs": [
        {
          "name": "",
          "type": "address"
        }
      ],
      "payable": false,
      "stateMutability": "view",
      "type": "function"
    },
    {
      "anonymous": false,
      "inputs": [
        {
          "indexed": false,
          "name": "",
          "type": "string"
        }
      ],
      "name": "stringLogs",
      "type": "event"
    },
    {
      "anonymous": false,
      "inputs": [
        {
          "indexed": false,
          "name": "",
          "type": "uint256"
        }
      ],
      "name": "intLogs",
      "type": "event"
    },
    {
      "constant": false,
      "inputs": [
        {
          "name": "calleAddress",
          "type": "address"
        }
      ],
      "name": "getTest2",
      "outputs": [],
      "payable": false,
      "stateMutability": "nonpayable",
      "type": "function"
    }
  ],
  "bytecode": "0x608060405234801561001057600080fd5b506108e0806100206000396000f3fe60806040526004361061004c576000357c0100000000000000000000000000000000000000000000000000000000900463ffffffff1680632b86c5a6146100515780636907ef87146100a8575b600080fd5b34801561005d57600080fd5b506100666100f9565b604051808273ffffffffffffffffffffffffffffffffffffffff1673ffffffffffffffffffffffffffffffffffffffff16815260200191505060405180910390f35b3480156100b457600080fd5b506100f7600480360360208110156100cb57600080fd5b81019080803573ffffffffffffffffffffffffffffffffffffffff16906020019092919050505061011e565b005b6000809054906101000a900473ffffffffffffffffffffffffffffffffffffffff1681565b806000806101000a81548173ffffffffffffffffffffffffffffffffffffffff021916908373ffffffffffffffffffffffffffffffffffffffff1602179055506000809054906101000a900473ffffffffffffffffffffffffffffffffffffffff1673ffffffffffffffffffffffffffffffffffffffff1663ac58867560026040518263ffffffff167c010000000000000000000000000000000000000000000000000000000002815260040180828152602001915050602060405180830381600087803b1580156101ef57600080fd5b505af1158015610203573d6000803e3d6000fd5b505050506040513d602081101561021957600080fd5b81019080805190602001909291905050505060008060009054906101000a900473ffffffffffffffffffffffffffffffffffffffff1673ffffffffffffffffffffffffffffffffffffffff16638b84925b6040518163ffffffff167c0100000000000000000000000000000000000000000000000000000000028152600401602060405180830381600087803b1580156102b257600080fd5b505af11580156102c6573d6000803e3d6000fd5b505050506040513d60208110156102dc57600080fd5b810190808051906020019092919050505090506000809054906101000a900473ffffffffffffffffffffffffffffffffffffffff1673ffffffffffffffffffffffffffffffffffffffff16637fcaf6666040518163ffffffff167c010000000000000000000000000000000000000000000000000000000002815260040180806020018281038252600d8152602001807f4d45535341474520494e50555400000000000000000000000000000000000000815250602001915050600060405180830381600087803b1580156103b057600080fd5b505af11580156103c4573d6000803e3d6000fd5b505050506040513d6000823e3d601f19601f8201168201806040525060208110156103ee57600080fd5b81019080805164010000000081111561040657600080fd5b8281019050602081018481111561041c57600080fd5b815185600182028301116401000000008211171561043957600080fd5b50509291905050505060606000809054906101000a900473ffffffffffffffffffffffffffffffffffffffff1673ffffffffffffffffffffffffffffffffffffffff166389ea642f6040518163ffffffff167c0100000000000000000000000000000000000000000000000000000000028152600401600060405180830381600087803b1580156104c957600080fd5b505af11580156104dd573d6000803e3d6000fd5b505050506040513d6000823e3d601f19601f82011682018060405250602081101561050757600080fd5b81019080805164010000000081111561051f57600080fd5b8281019050602081018481111561053557600080fd5b815185600182028301116401000000008211171561055257600080fd5b505092919050505090506000809054906101000a900473ffffffffffffffffffffffffffffffffffffffff1673ffffffffffffffffffffffffffffffffffffffff1663b56ac1f2602c6040518263ffffffff167c01000000000000000000000000000000000000000000000000000000000281526004018082815260200180602001828103825260118152602001807f74686973206973206120746573746e657400000000000000000000000000000081525060200192505050600060405180830381600087803b15801561062657600080fd5b505af115801561063a573d6000803e3d6000fd5b50505050600060606000809054906101000a900473ffffffffffffffffffffffffffffffffffffffff1673ffffffffffffffffffffffffffffffffffffffff1663cdfa8495600b6040518263ffffffff167c010000000000000000000000000000000000000000000000000000000002815260040180828152602001915050600060405180830381600087803b1580156106d357600080fd5b505af11580156106e7573d6000803e3d6000fd5b505050506040513d6000823e3d601f19601f82011682018060405250604081101561071157600080fd5b8101908080519060200190929190805164010000000081111561073357600080fd5b8281019050602081018481111561074957600080fd5b815185600182028301116401000000008211171561076657600080fd5b5050929190505050915091507f7204b477e961d11af7867ee2b94f62807cfb4d9bb931dab71c541f19f2152d466040518080602001828103825260068152602001807f544553542032000000000000000000000000000000000000000000000000000081525060200191505060405180910390a17f82a5e81cde1835f4f28f4fdaac7e5ea0827d449ba9eb096e75cd3626cf3ec27f826040518082815260200191505060405180910390a17f7204b477e961d11af7867ee2b94f62807cfb4d9bb931dab71c541f19f2152d46816040518080602001828103825283818151815260200191508051906020019080838360005b83811015610873578082015181840152602081019050610858565b50505050905090810190601f1680156108a05780820380516001836020036101000a031916815260200191505b509250505060405180910390a1505050505056fea165627a7a723058203e32281bee238e6839eb1a10839af01530bcd1c55bec07f5ee5dc2cc67f2da010029",
  "source": "pragma solidity ^0.5.0;\n//This is the correct way to do it, its working \ncontract CalleeTest{\n    function getString() public returns(string memory){}\n    function setString(string memory stringInput)public returns(string memory){}\n    function getInteger() public returns(uint){}\n    function setInteger(uint id) public returns(uint){}\n    function getStruct(uint id) public payable returns(uint, string memory){}\n    function setStruct(uint id, string memory name) public{}\n}\n\n//This is the best way to structure a digital entity in a contract\ncontract CallerAddressTest{\n    CalleeTest public calleeTestInterface;\n    \n    function getTest2(address calleAddress)public{\n        calleeTestInterface = CalleeTest(calleAddress); //this CREATES A NEW EMPTY CONTRACT INSTANCE\n        \n        calleeTestInterface.setInteger(2);\n        uint test2 = calleeTestInterface.getInteger();\n        \n        calleeTestInterface.setString(\"MESSAGE INPUT\");\n        string memory stringTest2=calleeTestInterface.getString();\n        \n        calleeTestInterface.setStruct(44,\"this is a testnet\");\n        (uint id, string memory name)=calleeTestInterface.getStruct(11);\n        \n        emit stringLogs('TEST 2');\n        //emit intLogs(test2);\n        //emit stringLogs(stringTest2);\n        emit intLogs(id);\n        emit stringLogs(name);\n    }\n\n    event stringLogs(string);\n    event intLogs(uint);\n}    \n\n",
  "sourcePath": "/home/nemesis1346/Documents/UniversityProjects/distribution-algorithm-hyperledger-composer/ethereum-node-server/contracts/CalleeAddressTest.sol",
  "compiler": {
    "name": "solc",
    "version": "0.5.0+commit.1d4f565a.Emscripten.clang"
  },
  "schemaVersion": "3.0.2",
  "updatedAt": "2019-03-20T03:16:53.977Z",
  "devdoc": {
    "methods": {}
  },
  "userdoc": {
    "methods": {}
  }
}