{
  "contractName": "CallerAddressTest",
  "abi": [
    {
      "constant": true,
      "inputs": [],
      "name": "calleeTestInterface",
      "outputs": [
        {
          "name": "",
          "type": "address"
        }
      ],
      "payable": false,
      "stateMutability": "view",
      "type": "function"
    },
    {
      "constant": true,
      "inputs": [
        {
          "name": "",
          "type": "uint256"
        }
      ],
      "name": "agreements",
      "outputs": [
        {
          "name": "agreementId",
          "type": "uint256"
        },
        {
          "name": "emitterId",
          "type": "uint256"
        },
        {
          "name": "receiverId",
          "type": "uint256"
        }
      ],
      "payable": false,
      "stateMutability": "view",
      "type": "function"
    },
    {
      "anonymous": false,
      "inputs": [
        {
          "indexed": false,
          "name": "stringLogs",
          "type": "string"
        }
      ],
      "name": "stringLogs",
      "type": "event"
    },
    {
      "anonymous": false,
      "inputs": [
        {
          "indexed": false,
          "name": "intLogs",
          "type": "uint256"
        }
      ],
      "name": "intLogs",
      "type": "event"
    },
    {
      "constant": false,
      "inputs": [
        {
          "name": "agreementId",
          "type": "uint256"
        },
        {
          "name": "emitterId",
          "type": "uint256"
        },
        {
          "name": "receiverId",
          "type": "uint256"
        }
      ],
      "name": "createTraderTest",
      "outputs": [],
      "payable": false,
      "stateMutability": "nonpayable",
      "type": "function"
    },
    {
      "constant": false,
      "inputs": [
        {
          "name": "receiverId",
          "type": "uint256"
        }
      ],
      "name": "getAgreementByReceiver",
      "outputs": [
        {
          "name": "",
          "type": "uint256"
        }
      ],
      "payable": false,
      "stateMutability": "nonpayable",
      "type": "function"
    },
    {
      "constant": false,
      "inputs": [
        {
          "name": "calleAddress",
          "type": "address"
        }
      ],
      "name": "getTest2",
      "outputs": [],
      "payable": false,
      "stateMutability": "nonpayable",
      "type": "function"
    }
  ],
  "bytecode": "0x608060405234801561001057600080fd5b50610ab0806100206000396000f3fe60806040526004361061006d576000357c0100000000000000000000000000000000000000000000000000000000900463ffffffff1680632b86c5a6146100725780636907ef87146100c9578063721eb7ec1461011a578063bd14de9614610169578063ea726c01146101c6575b600080fd5b34801561007e57600080fd5b50610087610215565b604051808273ffffffffffffffffffffffffffffffffffffffff1673ffffffffffffffffffffffffffffffffffffffff16815260200191505060405180910390f35b3480156100d557600080fd5b50610118600480360360208110156100ec57600080fd5b81019080803573ffffffffffffffffffffffffffffffffffffffff16906020019092919050505061023a565b005b34801561012657600080fd5b506101676004803603606081101561013d57600080fd5b810190808035906020019092919080359060200190929190803590602001909291905050506109d0565b005b34801561017557600080fd5b506101a26004803603602081101561018c57600080fd5b8101908080359060200190929190505050610a3d565b60405180848152602001838152602001828152602001935050505060405180910390f35b3480156101d257600080fd5b506101ff600480360360208110156101e957600080fd5b8101908080359060200190929190505050610a67565b6040518082815260200191505060405180910390f35b6000809054906101000a900473ffffffffffffffffffffffffffffffffffffffff1681565b806000806101000a81548173ffffffffffffffffffffffffffffffffffffffff021916908373ffffffffffffffffffffffffffffffffffffffff1602179055506000809054906101000a900473ffffffffffffffffffffffffffffffffffffffff1673ffffffffffffffffffffffffffffffffffffffff1663ac58867560026040518263ffffffff167c010000000000000000000000000000000000000000000000000000000002815260040180828152602001915050602060405180830381600087803b15801561030b57600080fd5b505af115801561031f573d6000803e3d6000fd5b505050506040513d602081101561033557600080fd5b81019080805190602001909291905050505060008060009054906101000a900473ffffffffffffffffffffffffffffffffffffffff1673ffffffffffffffffffffffffffffffffffffffff16638b84925b6040518163ffffffff167c0100000000000000000000000000000000000000000000000000000000028152600401602060405180830381600087803b1580156103ce57600080fd5b505af11580156103e2573d6000803e3d6000fd5b505050506040513d60208110156103f857600080fd5b810190808051906020019092919050505090506000809054906101000a900473ffffffffffffffffffffffffffffffffffffffff1673ffffffffffffffffffffffffffffffffffffffff16637fcaf6666040518163ffffffff167c010000000000000000000000000000000000000000000000000000000002815260040180806020018281038252600d8152602001807f4d45535341474520494e50555400000000000000000000000000000000000000815250602001915050600060405180830381600087803b1580156104cc57600080fd5b505af11580156104e0573d6000803e3d6000fd5b505050506040513d6000823e3d601f19601f82011682018060405250602081101561050a57600080fd5b81019080805164010000000081111561052257600080fd5b8281019050602081018481111561053857600080fd5b815185600182028301116401000000008211171561055557600080fd5b50509291905050505060606000809054906101000a900473ffffffffffffffffffffffffffffffffffffffff1673ffffffffffffffffffffffffffffffffffffffff166389ea642f6040518163ffffffff167c0100000000000000000000000000000000000000000000000000000000028152600401600060405180830381600087803b1580156105e557600080fd5b505af11580156105f9573d6000803e3d6000fd5b505050506040513d6000823e3d601f19601f82011682018060405250602081101561062357600080fd5b81019080805164010000000081111561063b57600080fd5b8281019050602081018481111561065157600080fd5b815185600182028301116401000000008211171561066e57600080fd5b505092919050505090506000809054906101000a900473ffffffffffffffffffffffffffffffffffffffff1673ffffffffffffffffffffffffffffffffffffffff1663b56ac1f2602c6040518263ffffffff167c01000000000000000000000000000000000000000000000000000000000281526004018082815260200180602001828103825260118152602001807f74686973206973206120746573746e657400000000000000000000000000000081525060200192505050600060405180830381600087803b15801561074257600080fd5b505af1158015610756573d6000803e3d6000fd5b50505050600060606000809054906101000a900473ffffffffffffffffffffffffffffffffffffffff1673ffffffffffffffffffffffffffffffffffffffff1663cdfa8495600b6040518263ffffffff167c010000000000000000000000000000000000000000000000000000000002815260040180828152602001915050600060405180830381600087803b1580156107ef57600080fd5b505af1158015610803573d6000803e3d6000fd5b505050506040513d6000823e3d601f19601f82011682018060405250604081101561082d57600080fd5b8101908080519060200190929190805164010000000081111561084f57600080fd5b8281019050602081018481111561086557600080fd5b815185600182028301116401000000008211171561088257600080fd5b5050929190505050915091507f7204b477e961d11af7867ee2b94f62807cfb4d9bb931dab71c541f19f2152d466040518080602001828103825260068152602001807f544553542032000000000000000000000000000000000000000000000000000081525060200191505060405180910390a17f82a5e81cde1835f4f28f4fdaac7e5ea0827d449ba9eb096e75cd3626cf3ec27f826040518082815260200191505060405180910390a17f7204b477e961d11af7867ee2b94f62807cfb4d9bb931dab71c541f19f2152d46816040518080602001828103825283818151815260200191508051906020019080838360005b8381101561098f578082015181840152602081019050610974565b50505050905090810190601f1680156109bc5780820380516001836020036101000a031916815260200191505b509250505060405180910390a15050505050565b8260026000838152602001908152602001600020819055506060604051908101604052808481526020018381526020018281525060016000858152602001908152602001600020600082015181600001556020820151816001015560408201518160020155905050505050565b60016020528060005260406000206000915090508060000154908060010154908060020154905083565b60006002600083815260200190815260200160002054905091905056fea165627a7a72305820afe945479e731fc5097ef299ee314379b9162d5593b94d24df2dc4e7017676e90029",
  "source": "pragma solidity ^0.5.0;\n//This is the correct way to do it, its working \ncontract CalleeTest{\n    function getString() public returns(string memory){}\n    function setString(string memory stringInput)public returns(string memory){}\n    function getInteger() public returns(uint){}\n    function setInteger(uint id) public returns(uint){}\n    function getStruct(uint id) public payable returns(uint, string memory){}\n    function setStruct(uint id, string memory name) public{}\n}\n\n//This is the best way to structure a digital entity in a contract\ncontract CallerAddressTest{\n    CalleeTest public calleeTestInterface;\n    \n    //This is a test for query by other property\n    struct AgreementTest{\n        uint agreementId;\n        uint emitterId;\n        uint receiverId;\n    }\n    mapping(uint=>AgreementTest) public agreements;\n    mapping(uint=> uint) getAgreementIdByReceiver;\n\n\n    function createTraderTest(uint agreementId, uint emitterId, uint receiverId) public {\n        getAgreementIdByReceiver[receiverId]=agreementId;\n        agreements[agreementId]=AgreementTest(agreementId,emitterId,receiverId);\n    }\n    function getAgreementByReceiver(uint receiverId) public returns(uint){\n        return getAgreementIdByReceiver[receiverId];\n    }\n    \n    function getTest2(address calleAddress)public{\n        calleeTestInterface = CalleeTest(calleAddress); //this CREATES A NEW EMPTY CONTRACT INSTANCE\n        \n        calleeTestInterface.setInteger(2);\n        uint test2 = calleeTestInterface.getInteger();\n        \n        calleeTestInterface.setString(\"MESSAGE INPUT\");\n        string memory stringTest2=calleeTestInterface.getString();\n        \n        calleeTestInterface.setStruct(44,\"this is a testnet\");\n        (uint id, string memory name)=calleeTestInterface.getStruct(11);\n        \n        emit stringLogs('TEST 2');\n        //emit intLogs(test2);\n        //emit stringLogs(stringTest2);\n        emit intLogs(id);\n        emit stringLogs(name);\n    }\n\n    event stringLogs(string stringLogs);\n    event intLogs(uint intLogs);\n}    \n\n",
  "sourcePath": "/home/nemesis1346/Documents/UniversityProjects/distribution-algorithm-hyperledger-composer/ethereum-node-server/contracts/best-practices/CallerAddressTest.sol",
  "compiler": {
    "name": "solc",
    "version": "0.5.0+commit.1d4f565a.Emscripten.clang"
  },
  "schemaVersion": "3.0.2",
  "updatedAt": "2019-05-26T19:00:52.037Z",
  "devdoc": {
    "methods": {}
  },
  "userdoc": {
    "methods": {}
  }
}