{
  "contractName": "Distribution",
  "abi": [
    {
      "constant": false,
      "inputs": [
        {
          "name": "isrc",
          "type": "uint256"
        },
        {
          "name": "uploaderId",
          "type": "uint256"
        },
        {
          "name": "datetime",
          "type": "uint256"
        }
      ],
      "name": "distributionProcess",
      "outputs": [],
      "payable": false,
      "stateMutability": "nonpayable",
      "type": "function",
      "signature": "0x6193fa5c"
    }
  ],
  "bytecode": "0x608060405234801561001057600080fd5b5060c08061001f6000396000f3fe608060405260043610603f576000357c0100000000000000000000000000000000000000000000000000000000900463ffffffff1680636193fa5c146044575b600080fd5b348015604f57600080fd5b50608d60048036036060811015606457600080fd5b81019080803590602001909291908035906020019092919080359060200190929190505050608f565b005b50505056fea165627a7a723058209aa4d8a46a778552b89d9bb96bf5b0dcdda5b45cac56f409324bb9bd5be021800029",
  "source": "pragma solidity ^0.5.0;\n\ncontract Distribution{\n    \n    function distributionProcess(uint isrc, uint uploaderId, uint datetime) public {\n        \n    }\n}",
  "sourcePath": "/home/nemesis1346/Documents/UniversityProjects/distribution-algorithm-hyperledger-composer/ethereum-node-server/contracts/Distribution.sol",
  "compiler": {
    "name": "solc",
    "version": "0.5.0+commit.1d4f565a.Emscripten.clang"
  },
  "schemaVersion": "3.0.2",
  "updatedAt": "2019-05-22T23:12:19.899Z",
  "devdoc": {
    "methods": {}
  },
  "userdoc": {
    "methods": {}
  }
}