{
  "contractName": "MappedStructsWithIndex",
  "abi": [
    {
      "constant": true,
      "inputs": [
        {
          "name": "",
          "type": "uint256"
        }
      ],
      "name": "entityList",
      "outputs": [
        {
          "name": "",
          "type": "address"
        }
      ],
      "payable": false,
      "stateMutability": "view",
      "type": "function"
    },
    {
      "constant": true,
      "inputs": [
        {
          "name": "",
          "type": "address"
        }
      ],
      "name": "entityStructs",
      "outputs": [
        {
          "name": "entityData",
          "type": "uint256"
        },
        {
          "name": "isEntity",
          "type": "bool"
        }
      ],
      "payable": false,
      "stateMutability": "view",
      "type": "function"
    },
    {
      "constant": true,
      "inputs": [
        {
          "name": "entityAddress",
          "type": "address"
        }
      ],
      "name": "isEntity",
      "outputs": [
        {
          "name": "isIndeed",
          "type": "bool"
        }
      ],
      "payable": false,
      "stateMutability": "view",
      "type": "function"
    },
    {
      "constant": true,
      "inputs": [],
      "name": "getEntityCount",
      "outputs": [
        {
          "name": "entityCount",
          "type": "uint256"
        }
      ],
      "payable": false,
      "stateMutability": "view",
      "type": "function"
    },
    {
      "constant": false,
      "inputs": [
        {
          "name": "entityAddress",
          "type": "address"
        },
        {
          "name": "entityData",
          "type": "uint256"
        }
      ],
      "name": "newEntity",
      "outputs": [
        {
          "name": "rowNumber",
          "type": "uint256"
        }
      ],
      "payable": false,
      "stateMutability": "nonpayable",
      "type": "function"
    },
    {
      "constant": false,
      "inputs": [
        {
          "name": "entityAddress",
          "type": "address"
        },
        {
          "name": "entityData",
          "type": "uint256"
        }
      ],
      "name": "updateEntity",
      "outputs": [
        {
          "name": "success",
          "type": "bool"
        }
      ],
      "payable": false,
      "stateMutability": "nonpayable",
      "type": "function"
    }
  ],
  "bytecode": "0x608060405234801561001057600080fd5b50610568806100206000396000f3fe608060405260043610610078576000357c0100000000000000000000000000000000000000000000000000000000900463ffffffff168063070c38c01461007d57806314887c58146100f0578063404cbffb146101595780634dd448bf146101d45780635d1b45b514610244578063d599fdd41461026f575b600080fd5b34801561008957600080fd5b506100d6600480360360408110156100a057600080fd5b81019080803573ffffffffffffffffffffffffffffffffffffffff169060200190929190803590602001909291905050506102de565b604051808215151515815260200191505060405180910390f35b3480156100fc57600080fd5b5061013f6004803603602081101561011357600080fd5b81019080803573ffffffffffffffffffffffffffffffffffffffff169060200190929190505050610344565b604051808215151515815260200191505060405180910390f35b34801561016557600080fd5b506101926004803603602081101561017c57600080fd5b810190808035906020019092919050505061039c565b604051808273ffffffffffffffffffffffffffffffffffffffff1673ffffffffffffffffffffffffffffffffffffffff16815260200191505060405180910390f35b3480156101e057600080fd5b50610223600480360360208110156101f757600080fd5b81019080803573ffffffffffffffffffffffffffffffffffffffff1690602001909291905050506103da565b60405180838152602001821515151581526020019250505060405180910390f35b34801561025057600080fd5b5061025961040b565b6040518082815260200191505060405180910390f35b34801561027b57600080fd5b506102c86004803603604081101561029257600080fd5b81019080803573ffffffffffffffffffffffffffffffffffffffff16906020019092919080359060200190929190505050610418565b6040518082815260200191505060405180910390f35b60006102e983610344565b15156102f457600080fd5b816000808573ffffffffffffffffffffffffffffffffffffffff1673ffffffffffffffffffffffffffffffffffffffff168152602001908152602001600020600001819055506001905092915050565b60008060008373ffffffffffffffffffffffffffffffffffffffff1673ffffffffffffffffffffffffffffffffffffffff16815260200190815260200160002060010160009054906101000a900460ff169050919050565b6001818154811015156103ab57fe5b906000526020600020016000915054906101000a900473ffffffffffffffffffffffffffffffffffffffff1681565b60006020528060005260406000206000915090508060000154908060010160009054906101000a900460ff16905082565b6000600180549050905090565b600061042383610344565b1561042d57600080fd5b816000808573ffffffffffffffffffffffffffffffffffffffff1673ffffffffffffffffffffffffffffffffffffffff1681526020019081526020016000206000018190555060016000808573ffffffffffffffffffffffffffffffffffffffff1673ffffffffffffffffffffffffffffffffffffffff16815260200190815260200160002060010160006101000a81548160ff0219169083151502179055506001808490806001815401808255809150509060018203906000526020600020016000909192909190916101000a81548173ffffffffffffffffffffffffffffffffffffffff021916908373ffffffffffffffffffffffffffffffffffffffff1602179055500390509291505056fea165627a7a723058204803daee58181c143d8d1c8cf26983ff6641128505ddee498d50f8bcda4cfc480029",
  "source": "pragma solidity ^0.5.0;\n\ncontract MappedStructsWithIndex {\n\n  struct EntityStruct {\n    uint entityData;\n    bool isEntity;\n  }\n\n  mapping(address => EntityStruct) public entityStructs; //for the rest of the data with the same ids, therefore the loop must be done by the ui\n  address[] public entityList; //for addresses handling just ids\n\n  function isEntity(address entityAddress) public view returns(bool isIndeed) {\n      return entityStructs[entityAddress].isEntity;\n  }\n\n  function getEntityCount() public view returns(uint entityCount) {\n    return entityList.length;\n  }\n\n  function newEntity(address entityAddress, uint entityData) public returns(uint rowNumber) {\n    if(isEntity(entityAddress)) revert();\n    entityStructs[entityAddress].entityData = entityData;\n    entityStructs[entityAddress].isEntity = true;\n    return entityList.push(entityAddress) - 1;\n  }\n\n  function updateEntity(address entityAddress, uint entityData) public returns(bool success) {\n    if(!isEntity(entityAddress)) revert();\n    entityStructs[entityAddress].entityData    = entityData;\n    return true;\n  }\n}",
  "sourcePath": "/Users/nemesis1346/Documents/University Projects/distribution-algorithm-hyperledger-composer/ethereum-node-server/contracts/MappingBestPractices.sol",
  "compiler": {
    "name": "solc",
    "version": "0.5.0+commit.1d4f565a.Emscripten.clang"
  },
  "schemaVersion": "3.0.2",
  "updatedAt": "2019-03-31T21:30:02.714Z",
  "devdoc": {
    "methods": {}
  },
  "userdoc": {
    "methods": {}
  }
}