{
  "contractName": "MappedStructsWithIndex",
  "abi": [
    {
      "constant": true,
      "inputs": [
        {
          "name": "",
          "type": "uint256"
        }
      ],
      "name": "entityList",
      "outputs": [
        {
          "name": "",
          "type": "address"
        }
      ],
      "payable": false,
      "stateMutability": "view",
      "type": "function"
    },
    {
      "constant": true,
      "inputs": [
        {
          "name": "",
          "type": "address"
        }
      ],
      "name": "entityStructs",
      "outputs": [
        {
          "name": "entityData",
          "type": "uint256"
        },
        {
          "name": "isEntity",
          "type": "bool"
        }
      ],
      "payable": false,
      "stateMutability": "view",
      "type": "function"
    },
    {
      "constant": true,
      "inputs": [
        {
          "name": "entityAddress",
          "type": "address"
        }
      ],
      "name": "isEntity",
      "outputs": [
        {
          "name": "isIndeed",
          "type": "bool"
        }
      ],
      "payable": false,
      "stateMutability": "view",
      "type": "function"
    },
    {
      "constant": true,
      "inputs": [],
      "name": "getEntityCount",
      "outputs": [
        {
          "name": "entityCount",
          "type": "uint256"
        }
      ],
      "payable": false,
      "stateMutability": "view",
      "type": "function"
    },
    {
      "constant": false,
      "inputs": [
        {
          "name": "entityAddress",
          "type": "address"
        },
        {
          "name": "entityData",
          "type": "uint256"
        }
      ],
      "name": "newEntity",
      "outputs": [
        {
          "name": "rowNumber",
          "type": "uint256"
        }
      ],
      "payable": false,
      "stateMutability": "nonpayable",
      "type": "function"
    },
    {
      "constant": false,
      "inputs": [
        {
          "name": "entityAddress",
          "type": "address"
        },
        {
          "name": "entityData",
          "type": "uint256"
        }
      ],
      "name": "updateEntity",
      "outputs": [
        {
          "name": "success",
          "type": "bool"
        }
      ],
      "payable": false,
      "stateMutability": "nonpayable",
      "type": "function"
    }
  ],
  "bytecode": "0x608060405234801561001057600080fd5b5061034c806100206000396000f3fe6080604052600436106100775763ffffffff7c0100000000000000000000000000000000000000000000000000000000600035041663070c38c0811461007c57806314887c58146100c9578063404cbffb146100fc5780634dd448bf146101425780635d1b45b51461018e578063d599fdd4146101b5575b600080fd5b34801561008857600080fd5b506100b56004803603604081101561009f57600080fd5b50600160a060020a0381351690602001356101ee565b604080519115158252519081900360200190f35b3480156100d557600080fd5b506100b5600480360360208110156100ec57600080fd5b5035600160a060020a0316610225565b34801561010857600080fd5b506101266004803603602081101561011f57600080fd5b5035610246565b60408051600160a060020a039092168252519081900360200190f35b34801561014e57600080fd5b506101756004803603602081101561016557600080fd5b5035600160a060020a031661026e565b6040805192835290151560208301528051918290030190f35b34801561019a57600080fd5b506101a361028a565b60408051918252519081900360200190f35b3480156101c157600080fd5b506101a3600480360360408110156101d857600080fd5b50600160a060020a038135169060200135610290565b60006101f983610225565b151561020457600080fd5b50600160a060020a0391909116600090815260208190526040902055600190565b600160a060020a031660009081526020819052604090206001015460ff1690565b600180548290811061025457fe5b600091825260209091200154600160a060020a0316905081565b6000602081905290815260409020805460019091015460ff1682565b60015490565b600061029b83610225565b156102a557600080fd5b50600160a060020a039190911660008181526020819052604081209283556001928301805460ff191684179055825480840184559290527fb10e2d527612073b26eecdfd717e6a320cf44b4afac2b0732d9fcbe2b7fa0cf68201805473ffffffffffffffffffffffffffffffffffffffff191690911790559056fea165627a7a72305820ae4b2880d9c47e843f06dc4ad97b42cad1f653b49a07c893183cc8b131ce400f0029",
  "source": "pragma solidity ^0.5.0;\n\ncontract MappedStructsWithIndex {\n\n  struct EntityStruct {\n    uint entityData;\n    bool isEntity;\n  }\n\n  mapping(address => EntityStruct) public entityStructs; //for the rest of the data with the same ids, therefore the loop must be done by the ui\n  address[] public entityList; //for addresses handling just ids\n\n  function isEntity(address entityAddress) public view returns(bool isIndeed) {\n      return entityStructs[entityAddress].isEntity;\n  }\n\n  function getEntityCount() public view returns(uint entityCount) {\n    return entityList.length;\n  }\n\n  function newEntity(address entityAddress, uint entityData) public returns(uint rowNumber) {\n    if(isEntity(entityAddress)) revert();\n    entityStructs[entityAddress].entityData = entityData;\n    entityStructs[entityAddress].isEntity = true;\n    return entityList.push(entityAddress) - 1;\n  }\n\n  function updateEntity(address entityAddress, uint entityData) public returns(bool success) {\n    if(!isEntity(entityAddress)) revert();\n    entityStructs[entityAddress].entityData    = entityData;\n    return true;\n  }\n}",
  "sourcePath": "/home/nemesis1346/Documents/UniversityProjects/distribution-algorithm-hyperledger-composer/ethereum-node-server/contracts/best-practices/MappingBestPractices.sol",
  "compiler": {
    "name": "solc",
    "version": "0.5.0+commit.1d4f565a.Emscripten.clang"
  },
  "schemaVersion": "3.0.2",
  "updatedAt": "2019-05-10T03:12:12.897Z",
  "devdoc": {
    "methods": {}
  },
  "userdoc": {
    "methods": {}
  }
}