{
  "contractName": "Receipts",
  "abi": [
    {
      "constant": true,
      "inputs": [
        {
          "name": "",
          "type": "uint256"
        }
      ],
      "name": "receiptStructList",
      "outputs": [
        {
          "name": "id",
          "type": "uint256"
        },
        {
          "name": "trackId",
          "type": "address"
        },
        {
          "name": "ammount",
          "type": "uint256"
        },
        {
          "name": "traderEmitterId",
          "type": "address"
        },
        {
          "name": "traderReceiverId",
          "type": "address"
        },
        {
          "name": "agreementId",
          "type": "address"
        },
        {
          "name": "paymentStatus",
          "type": "string"
        },
        {
          "name": "datetime",
          "type": "string"
        },
        {
          "name": "uploaderId",
          "type": "address"
        }
      ],
      "payable": false,
      "stateMutability": "view",
      "type": "function",
      "signature": "0xe6abfac6"
    },
    {
      "anonymous": false,
      "inputs": [
        {
          "indexed": false,
          "name": "stringLogs",
          "type": "string"
        }
      ],
      "name": "stringLogs",
      "type": "event",
      "signature": "0x7204b477e961d11af7867ee2b94f62807cfb4d9bb931dab71c541f19f2152d46"
    },
    {
      "constant": false,
      "inputs": [
        {
          "name": "id",
          "type": "uint256"
        },
        {
          "name": "trackId",
          "type": "address"
        },
        {
          "name": "ammount",
          "type": "uint256"
        },
        {
          "name": "agreementId",
          "type": "address"
        },
        {
          "name": "datetime",
          "type": "string"
        }
      ],
      "name": "createReceipt",
      "outputs": [],
      "payable": false,
      "stateMutability": "nonpayable",
      "type": "function",
      "signature": "0x5ff828a2"
    },
    {
      "constant": true,
      "inputs": [
        {
          "name": "id",
          "type": "uint256"
        }
      ],
      "name": "getReceipt",
      "outputs": [
        {
          "name": "",
          "type": "uint256"
        },
        {
          "name": "",
          "type": "address"
        },
        {
          "name": "",
          "type": "uint256"
        },
        {
          "name": "",
          "type": "address"
        },
        {
          "name": "",
          "type": "string"
        }
      ],
      "payable": false,
      "stateMutability": "view",
      "type": "function",
      "signature": "0xb63e6ac3"
    },
    {
      "constant": false,
      "inputs": [
        {
          "name": "agreementId",
          "type": "address"
        },
        {
          "name": "traderEmitterId",
          "type": "address"
        },
        {
          "name": "traderReceiverId",
          "type": "address"
        },
        {
          "name": "trackId",
          "type": "address"
        },
        {
          "name": "datetime",
          "type": "string"
        },
        {
          "name": "agreementCtrAddress",
          "type": "address"
        }
      ],
      "name": "validateReceipt",
      "outputs": [
        {
          "name": "",
          "type": "bool"
        }
      ],
      "payable": false,
      "stateMutability": "nonpayable",
      "type": "function",
      "signature": "0xcbbc8f01"
    }
  ],
  "bytecode": "0x608060405234801561001057600080fd5b50610970806100206000396000f3fe6080604052600436106100615763ffffffff7c01000000000000000000000000000000000000000000000000000000006000350416635ff828a28114610066578063b63e6ac314610141578063cbbc8f0114610223578063e6abfac61461031d575b600080fd5b34801561007257600080fd5b5061013f600480360360a081101561008957600080fd5b813591600160a060020a0360208201358116926040830135926060810135909216919081019060a0810160808201356401000000008111156100ca57600080fd5b8201836020820111156100dc57600080fd5b803590602001918460018302840111640100000000831117156100fe57600080fd5b91908080601f0160208091040260200160405190810160405280939291908181526020018383808284376000920191909152509295506104b0945050505050565b005b34801561014d57600080fd5b5061016b6004803603602081101561016457600080fd5b5035610586565b6040518086815260200185600160a060020a0316600160a060020a0316815260200184815260200183600160a060020a0316600160a060020a0316815260200180602001828103825283818151815260200191508051906020019080838360005b838110156101e45781810151838201526020016101cc565b50505050905090810190601f1680156102115780820380516001836020036101000a031916815260200191505b50965050505050505060405180910390f35b34801561022f57600080fd5b50610309600480360360c081101561024657600080fd5b600160a060020a03823581169260208101358216926040820135831692606083013516919081019060a08101608082013564010000000081111561028957600080fd5b82018360208201111561029b57600080fd5b803590602001918460018302840111640100000000831117156102bd57600080fd5b91908080601f01602080910402602001604051908101604052809392919081815260200183838082843760009201919091525092955050509035600160a060020a031691506106659050565b604080519115158252519081900360200190f35b34801561032957600080fd5b506103476004803603602081101561034057600080fd5b5035610731565b604051808a815260200189600160a060020a0316600160a060020a0316815260200188815260200187600160a060020a0316600160a060020a0316815260200186600160a060020a0316600160a060020a0316815260200185600160a060020a0316600160a060020a03168152602001806020018060200184600160a060020a0316600160a060020a03168152602001838103835286818151815260200191508051906020019080838360005b8381101561040c5781810151838201526020016103f4565b50505050905090810190601f1680156104395780820380516001836020036101000a031916815260200191505b50838103825285518152855160209182019187019080838360005b8381101561046c578181015183820152602001610454565b50505050905090810190601f1680156104995780820380516001836020036101000a031916815260200191505b509b50505050505050505050505060405180910390f35b600085815260208181526040909120868155600181018054600160a060020a0380891673ffffffffffffffffffffffffffffffffffffffff19928316179092556002830187905560058301805492871692909116919091179055825161051e926007909201918401906108a9565b506040805160208082526010908201527f52656365697074204372656174656421000000000000000000000000000000008183015290517f7204b477e961d11af7867ee2b94f62807cfb4d9bb931dab71c541f19f2152d469181900360600190a15050505050565b600081815260208181526040808320805460018083015460028085015460058601546007909601805488516101009682161596909602600019011692909204601f810189900489028501890190975286845288978897889760609796600160a060020a039687169694959490911693929091839183018282801561064b5780601f106106205761010080835404028352916020019161064b565b820191906000526020600020905b81548152906001019060200180831161062e57829003601f168201915b505050505090509450945094509450945091939590929450565b604080517f4ac65cf4000000000000000000000000000000000000000000000000000000008152600160a060020a0388811660048301528781166024830152868116604483015285811660648301529151600092849290831691634ac65cf49160848082019260209290919082900301818887803b1580156106e657600080fd5b505af11580156106fa573d6000803e3d6000fd5b505050506040513d602081101561071057600080fd5b505115610721576000915050610727565b60019150505b9695505050505050565b6000602081815291815260409081902080546001808301546002808501546003860154600487015460058801546006890180548b516101009982161599909902600019011695909504601f81018c90048c0288018c01909a528987529699600160a060020a039586169993989286169791861696959091169491939192908301828280156108005780601f106107d557610100808354040283529160200191610800565b820191906000526020600020905b8154815290600101906020018083116107e357829003601f168201915b5050505060078301805460408051602060026001851615610100026000190190941693909304601f81018490048402820184019092528181529495949350908301828280156108905780601f1061086557610100808354040283529160200191610890565b820191906000526020600020905b81548152906001019060200180831161087357829003601f168201915b50505060089093015491925050600160a060020a031689565b828054600181600116156101000203166002900490600052602060002090601f016020900481019282601f106108ea57805160ff1916838001178555610917565b82800160010185558215610917579182015b828111156109175782518255916020019190600101906108fc565b50610923929150610927565b5090565b61094191905b80821115610923576000815560010161092d565b9056fea165627a7a72305820606b51aec0fbf276b7c377321c2b2fdffcc4c74c0a0524f7ccf2e5a612f6f50a0029",
  "source": "pragma solidity ^0.5.0;\ncontract Agreements{\n    function validateAgreementByEmRc(address agreementId,\n        address traderEmitterId, \n        address traderReceiverId,\n        address trackId) public returns(bool){}\n}\n\ncontract Receipts{\n\n    struct Receipt{\n        uint id;\n        address trackId;\n        uint ammount;\n        address traderEmitterId;\n        address traderReceiverId;\n        address agreementId;\n        string paymentStatus;\n        string datetime;\n        address uploaderId;\n    }\n    mapping(uint=>Receipt) public receiptStructList;\n    address[] receiptAddressList;\n\n    function createReceipt(\n        uint id,\n        address trackId,\n        uint ammount,\n        address agreementId,\n        string memory datetime\n       ) public{\n        receiptStructList[id].id=id;\n        receiptStructList[id].trackId=trackId;\n        receiptStructList[id].ammount=ammount;\n        receiptStructList[id].agreementId=agreementId;\n        receiptStructList[id].datetime=datetime;\n\n        emit stringLogs('Receipt Created!');\n        }\n        \n    function getReceipt(uint id) view public returns(uint, address, uint, address, string memory){\n        return(receiptStructList[id].id,\n        receiptStructList[id].trackId,\n        receiptStructList[id].ammount,\n        receiptStructList[id].agreementId,\n        receiptStructList[id].datetime);\n    }\n\n    function validateReceipt(\n     //   uint receiptId,\n        address agreementId,\n        address traderEmitterId,\n        address traderReceiverId,\n        address trackId,\n        string memory datetime,\n        address agreementCtrAddress) public returns(bool){\n            Agreements agreementContract = Agreements(agreementCtrAddress);\n           //TODO: Handle the timestamp\n           if(agreementContract.validateAgreementByEmRc(agreementId, traderEmitterId, traderReceiverId,trackId)) return false;\n            return true;\n    }\n\n    event stringLogs(string stringLogs);\n\n}",
  "sourcePath": "/home/nemesis1346/Documents/UniversityProjects/distribution-algorithm-hyperledger-composer/ethereum-node-server/contracts/Receipts.sol",
  "compiler": {
    "name": "solc",
    "version": "0.5.0+commit.1d4f565a.Emscripten.clang"
  },
  "schemaVersion": "3.0.2",
  "updatedAt": "2019-05-20T22:20:28.403Z",
  "devdoc": {
    "methods": {}
  },
  "userdoc": {
    "methods": {}
  }
}