{
  "contractName": "Receipts",
  "abi": [
    {
      "constant": true,
      "inputs": [
        {
          "name": "",
          "type": "uint256"
        }
      ],
      "name": "receiptStructList",
      "outputs": [
        {
          "name": "id",
          "type": "uint256"
        },
        {
          "name": "trackId",
          "type": "address"
        },
        {
          "name": "ammount",
          "type": "uint256"
        },
        {
          "name": "traderEmitterId",
          "type": "address"
        },
        {
          "name": "traderReceiverId",
          "type": "address"
        },
        {
          "name": "agreementId",
          "type": "address"
        },
        {
          "name": "paymentStatus",
          "type": "string"
        },
        {
          "name": "datetime",
          "type": "string"
        },
        {
          "name": "uploaderId",
          "type": "address"
        }
      ],
      "payable": false,
      "stateMutability": "view",
      "type": "function",
      "signature": "0xe6abfac6"
    },
    {
      "anonymous": false,
      "inputs": [
        {
          "indexed": false,
          "name": "stringLogs",
          "type": "string"
        }
      ],
      "name": "stringLogs",
      "type": "event",
      "signature": "0x7204b477e961d11af7867ee2b94f62807cfb4d9bb931dab71c541f19f2152d46"
    },
    {
      "constant": false,
      "inputs": [
        {
          "name": "id",
          "type": "uint256"
        },
        {
          "name": "trackId",
          "type": "address"
        },
        {
          "name": "ammount",
          "type": "uint256"
        },
        {
          "name": "agreementId",
          "type": "address"
        },
        {
          "name": "datetime",
          "type": "string"
        }
      ],
      "name": "createReceipt",
      "outputs": [],
      "payable": false,
      "stateMutability": "nonpayable",
      "type": "function",
      "signature": "0x5ff828a2"
    },
    {
      "constant": true,
      "inputs": [
        {
          "name": "id",
          "type": "uint256"
        }
      ],
      "name": "getReceipt",
      "outputs": [
        {
          "name": "",
          "type": "uint256"
        },
        {
          "name": "",
          "type": "address"
        },
        {
          "name": "",
          "type": "uint256"
        },
        {
          "name": "",
          "type": "address"
        },
        {
          "name": "",
          "type": "string"
        }
      ],
      "payable": false,
      "stateMutability": "view",
      "type": "function",
      "signature": "0xb63e6ac3"
    },
    {
      "constant": false,
      "inputs": [
        {
          "name": "agreementId",
          "type": "address"
        },
        {
          "name": "traderEmitterId",
          "type": "address"
        },
        {
          "name": "traderReceiverId",
          "type": "address"
        },
        {
          "name": "trackId",
          "type": "address"
        },
        {
          "name": "datetime",
          "type": "string"
        },
        {
          "name": "agreementCtrAddress",
          "type": "address"
        }
      ],
      "name": "validateReceipt",
      "outputs": [
        {
          "name": "",
          "type": "bool"
        }
      ],
      "payable": false,
      "stateMutability": "nonpayable",
      "type": "function",
      "signature": "0xcbbc8f01"
    }
  ],
  "bytecode": "0x608060405234801561001057600080fd5b50610db7806100206000396000f3fe608060405260043610610062576000357c0100000000000000000000000000000000000000000000000000000000900463ffffffff1680635ff828a214610067578063b63e6ac314610183578063cbbc8f01146102ab578063e6abfac61461042b575b600080fd5b34801561007357600080fd5b50610181600480360360a081101561008a57600080fd5b8101908080359060200190929190803573ffffffffffffffffffffffffffffffffffffffff16906020019092919080359060200190929190803573ffffffffffffffffffffffffffffffffffffffff169060200190929190803590602001906401000000008111156100fb57600080fd5b82018360208201111561010d57600080fd5b8035906020019184600183028401116401000000008311171561012f57600080fd5b91908080601f016020809104026020016040519081016040528093929190818152602001838380828437600081840152601f19601f820116905080830192505050505050509192919290505050610658565b005b34801561018f57600080fd5b506101bc600480360360208110156101a657600080fd5b81019080803590602001909291905050506107cd565b604051808681526020018573ffffffffffffffffffffffffffffffffffffffff1673ffffffffffffffffffffffffffffffffffffffff1681526020018481526020018373ffffffffffffffffffffffffffffffffffffffff1673ffffffffffffffffffffffffffffffffffffffff16815260200180602001828103825283818151815260200191508051906020019080838360005b8381101561026c578082015181840152602081019050610251565b50505050905090810190601f1680156102995780820380516001836020036101000a031916815260200191505b50965050505050505060405180910390f35b3480156102b757600080fd5b50610411600480360360c08110156102ce57600080fd5b81019080803573ffffffffffffffffffffffffffffffffffffffff169060200190929190803573ffffffffffffffffffffffffffffffffffffffff169060200190929190803573ffffffffffffffffffffffffffffffffffffffff169060200190929190803573ffffffffffffffffffffffffffffffffffffffff1690602001909291908035906020019064010000000081111561036b57600080fd5b82018360208201111561037d57600080fd5b8035906020019184600183028401116401000000008311171561039f57600080fd5b91908080601f016020809104026020016040519081016040528093929190818152602001838380828437600081840152601f19601f820116905080830192505050505050509192919290803573ffffffffffffffffffffffffffffffffffffffff169060200190929190505050610931565b604051808215151515815260200191505060405180910390f35b34801561043757600080fd5b506104646004803603602081101561044e57600080fd5b8101908080359060200190929190505050610ac8565b604051808a81526020018973ffffffffffffffffffffffffffffffffffffffff1673ffffffffffffffffffffffffffffffffffffffff1681526020018881526020018773ffffffffffffffffffffffffffffffffffffffff1673ffffffffffffffffffffffffffffffffffffffff1681526020018673ffffffffffffffffffffffffffffffffffffffff1673ffffffffffffffffffffffffffffffffffffffff1681526020018573ffffffffffffffffffffffffffffffffffffffff1673ffffffffffffffffffffffffffffffffffffffff16815260200180602001806020018473ffffffffffffffffffffffffffffffffffffffff1673ffffffffffffffffffffffffffffffffffffffff168152602001838103835286818151815260200191508051906020019080838360005b838110156105ae578082015181840152602081019050610593565b50505050905090810190601f1680156105db5780820380516001836020036101000a031916815260200191505b50838103825285818151815260200191508051906020019080838360005b838110156106145780820151818401526020810190506105f9565b50505050905090810190601f1680156106415780820380516001836020036101000a031916815260200191505b509b50505050505050505050505060405180910390f35b84600080878152602001908152602001600020600001819055508360008087815260200190815260200160002060010160006101000a81548173ffffffffffffffffffffffffffffffffffffffff021916908373ffffffffffffffffffffffffffffffffffffffff16021790555082600080878152602001908152602001600020600201819055508160008087815260200190815260200160002060050160006101000a81548173ffffffffffffffffffffffffffffffffffffffff021916908373ffffffffffffffffffffffffffffffffffffffff16021790555080600080878152602001908152602001600020600701908051906020019061075d929190610ce6565b507f7204b477e961d11af7867ee2b94f62807cfb4d9bb931dab71c541f19f2152d466040518080602001828103825260108152602001807f526563656970742043726561746564210000000000000000000000000000000081525060200191505060405180910390a15050505050565b60008060008060606000808781526020019081526020016000206000015460008088815260200190815260200160002060010160009054906101000a900473ffffffffffffffffffffffffffffffffffffffff16600080898152602001908152602001600020600201546000808a815260200190815260200160002060050160009054906101000a900473ffffffffffffffffffffffffffffffffffffffff166000808b8152602001908152602001600020600701808054600181600116156101000203166002900480601f0160208091040260200160405190810160405280929190818152602001828054600181600116156101000203166002900480156109175780601f106108ec57610100808354040283529160200191610917565b820191906000526020600020905b8154815290600101906020018083116108fa57829003601f168201915b505050505090509450945094509450945091939590929450565b6000808290508073ffffffffffffffffffffffffffffffffffffffff16634ac65cf4898989896040518563ffffffff167c0100000000000000000000000000000000000000000000000000000000028152600401808573ffffffffffffffffffffffffffffffffffffffff1673ffffffffffffffffffffffffffffffffffffffff1681526020018473ffffffffffffffffffffffffffffffffffffffff1673ffffffffffffffffffffffffffffffffffffffff1681526020018373ffffffffffffffffffffffffffffffffffffffff1673ffffffffffffffffffffffffffffffffffffffff1681526020018273ffffffffffffffffffffffffffffffffffffffff1673ffffffffffffffffffffffffffffffffffffffff168152602001945050505050602060405180830381600087803b158015610a6e57600080fd5b505af1158015610a82573d6000803e3d6000fd5b505050506040513d6020811015610a9857600080fd5b810190808051906020019092919050505015610ab8576000915050610abe565b60019150505b9695505050505050565b60006020528060005260406000206000915090508060000154908060010160009054906101000a900473ffffffffffffffffffffffffffffffffffffffff16908060020154908060030160009054906101000a900473ffffffffffffffffffffffffffffffffffffffff16908060040160009054906101000a900473ffffffffffffffffffffffffffffffffffffffff16908060050160009054906101000a900473ffffffffffffffffffffffffffffffffffffffff1690806006018054600181600116156101000203166002900480601f016020809104026020016040519081016040528092919081815260200182805460018160011615610100020316600290048015610c185780601f10610bed57610100808354040283529160200191610c18565b820191906000526020600020905b815481529060010190602001808311610bfb57829003601f168201915b505050505090806007018054600181600116156101000203166002900480601f016020809104026020016040519081016040528092919081815260200182805460018160011615610100020316600290048015610cb65780601f10610c8b57610100808354040283529160200191610cb6565b820191906000526020600020905b815481529060010190602001808311610c9957829003601f168201915b5050505050908060080160009054906101000a900473ffffffffffffffffffffffffffffffffffffffff16905089565b828054600181600116156101000203166002900490600052602060002090601f016020900481019282601f10610d2757805160ff1916838001178555610d55565b82800160010185558215610d55579182015b82811115610d54578251825591602001919060010190610d39565b5b509050610d629190610d66565b5090565b610d8891905b80821115610d84576000816000905550600101610d6c565b5090565b9056fea165627a7a723058207a1599e5ea9d7f3e86027e9ee9a59f82ff550eb9ee040ba77f858a267f6a24e60029",
  "source": "pragma solidity ^0.5.0;\ncontract Agreements{\n    function validateAgreementByEmRc(address agreementId,\n        address traderEmitterId, \n        address traderReceiverId,\n        address trackId) public returns(bool){}\n}\n\ncontract Receipts{\n\n    struct Receipt{\n        uint id;\n        address trackId;\n        uint ammount;\n        address traderEmitterId;\n        address traderReceiverId;\n        address agreementId;\n        string paymentStatus;\n        string datetime;\n        address uploaderId;\n    }\n    mapping(uint=>Receipt) public receiptStructList;\n    address[] receiptAddressList;\n\n    function createReceipt(\n        uint id,\n        address trackId,\n        uint ammount,\n        address agreementId,\n        string memory datetime\n       ) public{\n        receiptStructList[id].id=id;\n        receiptStructList[id].trackId=trackId;\n        receiptStructList[id].ammount=ammount;\n        receiptStructList[id].agreementId=agreementId;\n        receiptStructList[id].datetime=datetime;\n\n        emit stringLogs('Receipt Created!');\n        }\n        \n    function getReceipt(uint id) view public returns(uint, address, uint, address, string memory){\n        return(receiptStructList[id].id,\n        receiptStructList[id].trackId,\n        receiptStructList[id].ammount,\n        receiptStructList[id].agreementId,\n        receiptStructList[id].datetime);\n    }\n\n    function validateReceipt(\n     //   uint receiptId,\n        address agreementId,\n        address traderEmitterId,\n        address traderReceiverId,\n        address trackId,\n        string memory datetime,\n        address agreementCtrAddress) public returns(bool){\n            Agreements agreementContract = Agreements(agreementCtrAddress);\n           //TODO: Handle the timestamp\n           if(agreementContract.validateAgreementByEmRc(agreementId, traderEmitterId, traderReceiverId,trackId)) return false;\n            return true;\n    }\n\n    event stringLogs(string stringLogs);\n\n}",
  "sourcePath": "/home/nemesis1346/Documents/UniversityProjects/distribution-algorithm-hyperledger-composer/ethereum-node-server/contracts/Receipts.sol",
  "compiler": {
    "name": "solc",
    "version": "0.5.0+commit.1d4f565a.Emscripten.clang"
  },
  "schemaVersion": "3.0.2",
  "updatedAt": "2019-05-26T19:00:52.040Z",
  "devdoc": {
    "methods": {}
  },
  "userdoc": {
    "methods": {}
  }
}