{
  "contractName": "Receipts",
  "abi": [
    {
      "constant": true,
      "inputs": [
        {
          "name": "",
          "type": "uint256"
        }
      ],
      "name": "receiptStructList",
      "outputs": [
        {
          "name": "id",
          "type": "uint256"
        },
        {
          "name": "trackId",
          "type": "address"
        },
        {
          "name": "ammount",
          "type": "uint256"
        },
        {
          "name": "traderEmitterId",
          "type": "address"
        },
        {
          "name": "traderReceiverId",
          "type": "address"
        },
        {
          "name": "agreementId",
          "type": "address"
        },
        {
          "name": "paymentStatus",
          "type": "string"
        },
        {
          "name": "datetime",
          "type": "string"
        },
        {
          "name": "uploaderId",
          "type": "address"
        }
      ],
      "payable": false,
      "stateMutability": "view",
      "type": "function",
      "signature": "0xe6abfac6"
    },
    {
      "anonymous": false,
      "inputs": [
        {
          "indexed": false,
          "name": "stringLogs",
          "type": "string"
        }
      ],
      "name": "stringLogs",
      "type": "event",
      "signature": "0x7204b477e961d11af7867ee2b94f62807cfb4d9bb931dab71c541f19f2152d46"
    },
    {
      "constant": false,
      "inputs": [
        {
          "name": "id",
          "type": "uint256"
        },
        {
          "name": "trackId",
          "type": "address"
        },
        {
          "name": "ammount",
          "type": "uint256"
        },
        {
          "name": "agreementId",
          "type": "address"
        },
        {
          "name": "datetime",
          "type": "string"
        }
      ],
      "name": "createReceipt",
      "outputs": [],
      "payable": false,
      "stateMutability": "nonpayable",
      "type": "function",
      "signature": "0x5ff828a2"
    },
    {
      "constant": true,
      "inputs": [
        {
          "name": "id",
          "type": "uint256"
        }
      ],
      "name": "getReceipt",
      "outputs": [
        {
          "name": "",
          "type": "uint256"
        },
        {
          "name": "",
          "type": "address"
        },
        {
          "name": "",
          "type": "uint256"
        },
        {
          "name": "",
          "type": "address"
        },
        {
          "name": "",
          "type": "string"
        }
      ],
      "payable": false,
      "stateMutability": "view",
      "type": "function",
      "signature": "0xb63e6ac3"
    }
  ],
  "bytecode": "0x608060405234801561001057600080fd5b50610a95806100206000396000f3fe608060405260043610610057576000357c0100000000000000000000000000000000000000000000000000000000900463ffffffff1680635ff828a21461005c578063b63e6ac314610178578063e6abfac6146102a0575b600080fd5b34801561006857600080fd5b50610176600480360360a081101561007f57600080fd5b8101908080359060200190929190803573ffffffffffffffffffffffffffffffffffffffff16906020019092919080359060200190929190803573ffffffffffffffffffffffffffffffffffffffff169060200190929190803590602001906401000000008111156100f057600080fd5b82018360208201111561010257600080fd5b8035906020019184600183028401116401000000008311171561012457600080fd5b91908080601f016020809104026020016040519081016040528093929190818152602001838380828437600081840152601f19601f8201169050808301925050505050505091929192905050506104cd565b005b34801561018457600080fd5b506101b16004803603602081101561019b57600080fd5b8101908080359060200190929190505050610642565b604051808681526020018573ffffffffffffffffffffffffffffffffffffffff1673ffffffffffffffffffffffffffffffffffffffff1681526020018481526020018373ffffffffffffffffffffffffffffffffffffffff1673ffffffffffffffffffffffffffffffffffffffff16815260200180602001828103825283818151815260200191508051906020019080838360005b83811015610261578082015181840152602081019050610246565b50505050905090810190601f16801561028e5780820380516001836020036101000a031916815260200191505b50965050505050505060405180910390f35b3480156102ac57600080fd5b506102d9600480360360208110156102c357600080fd5b81019080803590602001909291905050506107a6565b604051808a81526020018973ffffffffffffffffffffffffffffffffffffffff1673ffffffffffffffffffffffffffffffffffffffff1681526020018881526020018773ffffffffffffffffffffffffffffffffffffffff1673ffffffffffffffffffffffffffffffffffffffff1681526020018673ffffffffffffffffffffffffffffffffffffffff1673ffffffffffffffffffffffffffffffffffffffff1681526020018573ffffffffffffffffffffffffffffffffffffffff1673ffffffffffffffffffffffffffffffffffffffff16815260200180602001806020018473ffffffffffffffffffffffffffffffffffffffff1673ffffffffffffffffffffffffffffffffffffffff168152602001838103835286818151815260200191508051906020019080838360005b83811015610423578082015181840152602081019050610408565b50505050905090810190601f1680156104505780820380516001836020036101000a031916815260200191505b50838103825285818151815260200191508051906020019080838360005b8381101561048957808201518184015260208101905061046e565b50505050905090810190601f1680156104b65780820380516001836020036101000a031916815260200191505b509b50505050505050505050505060405180910390f35b84600080878152602001908152602001600020600001819055508360008087815260200190815260200160002060010160006101000a81548173ffffffffffffffffffffffffffffffffffffffff021916908373ffffffffffffffffffffffffffffffffffffffff16021790555082600080878152602001908152602001600020600201819055508160008087815260200190815260200160002060050160006101000a81548173ffffffffffffffffffffffffffffffffffffffff021916908373ffffffffffffffffffffffffffffffffffffffff1602179055508060008087815260200190815260200160002060070190805190602001906105d29291906109c4565b507f7204b477e961d11af7867ee2b94f62807cfb4d9bb931dab71c541f19f2152d466040518080602001828103825260108152602001807f526563656970742043726561746564210000000000000000000000000000000081525060200191505060405180910390a15050505050565b60008060008060606000808781526020019081526020016000206000015460008088815260200190815260200160002060010160009054906101000a900473ffffffffffffffffffffffffffffffffffffffff16600080898152602001908152602001600020600201546000808a815260200190815260200160002060050160009054906101000a900473ffffffffffffffffffffffffffffffffffffffff166000808b8152602001908152602001600020600701808054600181600116156101000203166002900480601f01602080910402602001604051908101604052809291908181526020018280546001816001161561010002031660029004801561078c5780601f106107615761010080835404028352916020019161078c565b820191906000526020600020905b81548152906001019060200180831161076f57829003601f168201915b505050505090509450945094509450945091939590929450565b60006020528060005260406000206000915090508060000154908060010160009054906101000a900473ffffffffffffffffffffffffffffffffffffffff16908060020154908060030160009054906101000a900473ffffffffffffffffffffffffffffffffffffffff16908060040160009054906101000a900473ffffffffffffffffffffffffffffffffffffffff16908060050160009054906101000a900473ffffffffffffffffffffffffffffffffffffffff1690806006018054600181600116156101000203166002900480601f0160208091040260200160405190810160405280929190818152602001828054600181600116156101000203166002900480156108f65780601f106108cb576101008083540402835291602001916108f6565b820191906000526020600020905b8154815290600101906020018083116108d957829003601f168201915b505050505090806007018054600181600116156101000203166002900480601f0160208091040260200160405190810160405280929190818152602001828054600181600116156101000203166002900480156109945780601f1061096957610100808354040283529160200191610994565b820191906000526020600020905b81548152906001019060200180831161097757829003601f168201915b5050505050908060080160009054906101000a900473ffffffffffffffffffffffffffffffffffffffff16905089565b828054600181600116156101000203166002900490600052602060002090601f016020900481019282601f10610a0557805160ff1916838001178555610a33565b82800160010185558215610a33579182015b82811115610a32578251825591602001919060010190610a17565b5b509050610a409190610a44565b5090565b610a6691905b80821115610a62576000816000905550600101610a4a565b5090565b9056fea165627a7a72305820747c070702419db2bde1620d7198bbf0f79b9e42020b0524c88297a7cdda5eff0029",
  "source": "pragma solidity ^0.5.0;\n\ncontract Receipts{\n\n    struct Receipt{\n        uint id;\n        address trackId;\n        uint ammount;\n        address traderEmitterId;\n        address traderReceiverId;\n        address agreementId;\n        string paymentStatus;\n        string datetime;\n        address uploaderId;\n    }\n    mapping(uint=>Receipt) public receiptStructList;\n    address[] receiptAddressList;\n\n    function createReceipt(\n        uint id,\n        address trackId,\n        uint ammount,\n        address agreementId,\n        string memory datetime\n       ) public{\n        receiptStructList[id].id=id;\n        receiptStructList[id].trackId=trackId;\n        receiptStructList[id].ammount=ammount;\n        receiptStructList[id].agreementId=agreementId;\n        receiptStructList[id].datetime=datetime;\n\n        emit stringLogs('Receipt Created!');\n        }\n        \n    function getReceipt(uint id) view public returns(uint, address, uint, address, string memory){\n        return(receiptStructList[id].id,\n        receiptStructList[id].trackId,\n        receiptStructList[id].ammount,\n        receiptStructList[id].agreementId,\n        receiptStructList[id].datetime);\n    }\n\n    event stringLogs(string stringLogs);\n\n}",
  "sourcePath": "/home/nemesis1346/Documents/UniversityProjects/distribution-algorithm-hyperledger-composer/ethereum-node-server/contracts/Receipts.sol",
  "compiler": {
    "name": "solc",
    "version": "0.5.0+commit.1d4f565a.Emscripten.clang"
  },
  "schemaVersion": "3.0.2",
  "updatedAt": "2019-04-03T19:00:02.172Z",
  "devdoc": {
    "methods": {}
  },
  "userdoc": {
    "methods": {}
  }
}