{
  "contractName": "TokenAccounts",
  "abi": [
    {
      "constant": false,
      "inputs": [
        {
          "name": "tokenAccountId",
          "type": "address"
        }
      ],
      "name": "createTokenAccount",
      "outputs": [],
      "payable": true,
      "stateMutability": "payable",
      "type": "function",
      "signature": "0xe081b4b1"
    }
  ],
  "bytecode": "0x608060405234801561001057600080fd5b5060b48061001f6000396000f3fe608060405260043610603f576000357c0100000000000000000000000000000000000000000000000000000000900463ffffffff168063e081b4b1146044575b600080fd5b608360048036036020811015605857600080fd5b81019080803573ffffffffffffffffffffffffffffffffffffffff1690602001909291905050506085565b005b5056fea165627a7a72305820d70d4593b5d45bd1ed93d745f1a21c7f4d405082b01e26c053a3a951b8e619550029",
  "source": "pragma solidity ^0.5.0;\n//pragma experimental \ncontract TokenAccounts{\n    function createTokenAccount(address tokenAccountId) public payable{}\n}\n\n//This is the best way to structure a digital entity in a contract\ncontract Traders{\n    TokenAccounts public tokenAccountsInterface;\n    struct Trader{\n        address id;\n        string name;\n        address tokenAccountId;\n        bool isTrader;\n    }\n\n    mapping(address=>Trader) public traderStructList;\n    address[] public traderAddressList;\n    \n     function isTrader(address id) public view returns(bool){\n        return traderStructList[id].isTrader;\n    }\n\n    function createTrader(address id, string memory name, address tokenAccountId,address tokenAccountCtrAdd) public{\n        if(isTrader(id)) revert('Trader already created');\n\n       traderStructList[id].id = id;\n       traderStructList[id].name = name;\n       traderStructList[id].tokenAccountId=tokenAccountId;\n        traderStructList[id].isTrader =true;\n        \n        traderAddressList.push(id);\n        emit stringLogs(\"Trader Was Created\");\n\n        //We create the token account accessing the other contract\n        tokenAccountsInterface = TokenAccounts(tokenAccountCtrAdd);\n        tokenAccountsInterface.createTokenAccount(tokenAccountId);\n        emit stringLogs(\"Token Account Was Created in Trader Contract\");\n    }\n    \n     function getTraderCount() public view returns(uint count) {\n        return traderAddressList.length;\n    }\n    \n    function getTrader(address id) view public returns(address, string memory,address) {\n        return (traderStructList[id].id, \n        traderStructList[id].name,\n        traderStructList[id].tokenAccountId);\n    }\n\n\n    event stringLogs(string logs);\n}    \n",
  "sourcePath": "/home/nemesis1346/Documents/UniversityProjects/distribution-algorithm-hyperledger-composer/ethereum-node-server/contracts/Traders.sol",
  "compiler": {
    "name": "solc",
    "version": "0.5.0+commit.1d4f565a.Emscripten.clang"
  },
  "schemaVersion": "3.0.2",
  "updatedAt": "2019-04-02T18:27:19.598Z",
  "devdoc": {
    "methods": {}
  },
  "userdoc": {
    "methods": {}
  }
}