{
  "contractName": "TokenAccounts",
  "abi": [
    {
      "constant": true,
      "inputs": [
        {
          "name": "",
          "type": "uint256"
        }
      ],
      "name": "tokenAccAddrList",
      "outputs": [
        {
          "name": "",
          "type": "address"
        }
      ],
      "payable": false,
      "stateMutability": "view",
      "type": "function",
      "signature": "0x3ac0268a"
    },
    {
      "constant": true,
      "inputs": [
        {
          "name": "",
          "type": "address"
        }
      ],
      "name": "tokenAccountStrucList",
      "outputs": [
        {
          "name": "tokenAccountId",
          "type": "address"
        },
        {
          "name": "balanceEnabled",
          "type": "uint256"
        },
        {
          "name": "balanceDisabled",
          "type": "uint256"
        },
        {
          "name": "traderEOA",
          "type": "address"
        },
        {
          "name": "isTokenAccount",
          "type": "bool"
        }
      ],
      "payable": false,
      "stateMutability": "view",
      "type": "function",
      "signature": "0x970dceeb"
    },
    {
      "anonymous": false,
      "inputs": [
        {
          "indexed": false,
          "name": "stringLogs",
          "type": "string"
        }
      ],
      "name": "stringLogs",
      "type": "event",
      "signature": "0x7204b477e961d11af7867ee2b94f62807cfb4d9bb931dab71c541f19f2152d46"
    },
    {
      "constant": false,
      "inputs": [
        {
          "name": "id",
          "type": "address"
        }
      ],
      "name": "isTokenAccount",
      "outputs": [
        {
          "name": "",
          "type": "bool"
        }
      ],
      "payable": false,
      "stateMutability": "nonpayable",
      "type": "function",
      "signature": "0xef68a6d1"
    },
    {
      "constant": false,
      "inputs": [
        {
          "name": "id",
          "type": "address"
        }
      ],
      "name": "createTokenAccount",
      "outputs": [],
      "payable": true,
      "stateMutability": "payable",
      "type": "function",
      "signature": "0xe081b4b1"
    },
    {
      "constant": true,
      "inputs": [
        {
          "name": "tokenAccountId",
          "type": "address"
        }
      ],
      "name": "getTokenAccount",
      "outputs": [
        {
          "name": "",
          "type": "address"
        },
        {
          "name": "",
          "type": "uint256"
        },
        {
          "name": "",
          "type": "uint256"
        },
        {
          "name": "",
          "type": "address"
        }
      ],
      "payable": false,
      "stateMutability": "view",
      "type": "function",
      "signature": "0x93ffe5a4"
    },
    {
      "constant": false,
      "inputs": [
        {
          "name": "tokenAccountId",
          "type": "address"
        },
        {
          "name": "value",
          "type": "uint256"
        }
      ],
      "name": "addEnabledBalance",
      "outputs": [
        {
          "name": "",
          "type": "bool"
        }
      ],
      "payable": false,
      "stateMutability": "nonpayable",
      "type": "function",
      "signature": "0xa5776d4e"
    },
    {
      "constant": false,
      "inputs": [
        {
          "name": "tokenAccountId",
          "type": "address"
        },
        {
          "name": "value",
          "type": "uint256"
        }
      ],
      "name": "addDisabledBalance",
      "outputs": [
        {
          "name": "",
          "type": "bool"
        }
      ],
      "payable": false,
      "stateMutability": "nonpayable",
      "type": "function",
      "signature": "0x3d56293c"
    }
  ],
  "bytecode": "0x608060405234801561001057600080fd5b50610587806100206000396000f3fe6080604052600436106100825763ffffffff7c01000000000000000000000000000000000000000000000000000000006000350416633ac0268a81146100875780633d56293c146100cd57806393ffe5a41461011a578063970dceeb14610181578063a5776d4e146101ef578063e081b4b114610228578063ef68a6d114610250575b600080fd5b34801561009357600080fd5b506100b1600480360360208110156100aa57600080fd5b5035610283565b60408051600160a060020a039092168252519081900360200190f35b3480156100d957600080fd5b50610106600480360360408110156100f057600080fd5b50600160a060020a0381351690602001356102ab565b604080519115158252519081900360200190f35b34801561012657600080fd5b5061014d6004803603602081101561013d57600080fd5b5035600160a060020a03166102d4565b60408051600160a060020a039586168152602081019490945283810192909252909216606082015290519081900360800190f35b34801561018d57600080fd5b506101b4600480360360208110156101a457600080fd5b5035600160a060020a031661030c565b60408051600160a060020a03968716815260208101959095528481019390935293166060830152911515608082015290519081900360a00190f35b3480156101fb57600080fd5b506101066004803603604081101561021257600080fd5b50600160a060020a03813516906020013561035b565b61024e6004803603602081101561023e57600080fd5b5035600160a060020a0316610384565b005b34801561025c57600080fd5b506101066004803603602081101561027357600080fd5b5035600160a060020a0316610522565b600180548290811061029157fe5b600091825260209091200154600160a060020a0316905081565b600160a060020a0382166000908152602081905260409020600201805482019055600192915050565b600160a060020a0390811660009081526020819052604090208054600182015460028301546003909301549184169490939190911690565b6000602081905290815260409020805460018201546002830154600390930154600160a060020a0392831693919281169074010000000000000000000000000000000000000000900460ff1685565b600160a060020a0382166000908152602081905260409020600190810180548301905592915050565b61038d81610522565b156103f957604080517f08c379a000000000000000000000000000000000000000000000000000000000815260206004820152601b60248201527f546f6b656e206163636f756e7420616c72656164792065786973740000000000604482015290519081900360640190fd5b600160a060020a038116600081815260208181526040808320805473ffffffffffffffffffffffffffffffffffffffff1990811686178255600180830186905560028301869055600390920180547401000000000000000000000000000000000000000033918416821774ff000000000000000000000000000000000000000019161790915582548084018455929095527fb10e2d527612073b26eecdfd717e6a320cf44b4afac2b0732d9fcbe2b7fa0cf6909101805490911690941790935582518181526019918101919091527f546f6b656e74204163636f756e7420637265617465642121210000000000000081840152915190917f7204b477e961d11af7867ee2b94f62807cfb4d9bb931dab71c541f19f2152d46916060918190039190910190a15050565b600160a060020a031660009081526020819052604090206003015474010000000000000000000000000000000000000000900460ff169056fea165627a7a72305820f7b47dc0085a13a22e74b8d563747cf4cfab672b0dd2d68dd655b03d4e9076410029",
  "source": "//Version 2\npragma solidity ^0.5.0;\n\n//This is the best way to structure a digital entity in a contract\ncontract TokenAccounts{\n    \n    struct TokenAccount{\n        address tokenAccountId;\n        uint balanceEnabled;\n        uint balanceDisabled;\n        address traderEOA;\n        bool isTokenAccount;\n    }\n\n    mapping(address=>TokenAccount) public tokenAccountStrucList;\n    address[] public tokenAccAddrList;\n    \n    function isTokenAccount(address id) public returns(bool){\n        return tokenAccountStrucList[id].isTokenAccount;\n    }\n\n    function createTokenAccount(address id) public payable{\n        if(isTokenAccount(id)) revert('Token account already exist');\n        address traderEOA = msg.sender; \n        tokenAccountStrucList[id].tokenAccountId=id;\n        tokenAccountStrucList[id].balanceEnabled=0;\n        tokenAccountStrucList[id].balanceDisabled=0;\n        tokenAccountStrucList[id].traderEOA = traderEOA;\n        tokenAccountStrucList[id].isTokenAccount=true;\n\n        tokenAccAddrList.push(id);\n        \n        emit stringLogs(\"Tokent Account created!!!\"); //this is an event \n    }\n    \n    function getTokenAccount(address tokenAccountId) view public returns(address, uint, uint, address) {\n        return (tokenAccountStrucList[tokenAccountId].tokenAccountId, \n        tokenAccountStrucList[tokenAccountId].balanceEnabled, \n        tokenAccountStrucList[tokenAccountId].balanceDisabled, \n        tokenAccountStrucList[tokenAccountId].traderEOA);\n    }\n    function addEnabledBalance(address tokenAccountId, uint value)public returns(bool){\n        tokenAccountStrucList[tokenAccountId].balanceEnabled+=value;\n        return true;\n    }\n    function addDisabledBalance(address tokenAccountId, uint value) public returns(bool){\n        tokenAccountStrucList[tokenAccountId].balanceDisabled+= value;\n        return true;\n    }\n    event stringLogs(string stringLogs);\n\n}    \n",
  "sourcePath": "/home/nemesis1346/Documents/UniversityProjects/distribution-algorithm-hyperledger-composer/ethereum-node-server/contracts/TokenAccounts.sol",
  "compiler": {
    "name": "solc",
    "version": "0.5.0+commit.1d4f565a.Emscripten.clang"
  },
  "schemaVersion": "3.0.2",
  "updatedAt": "2019-05-17T20:13:29.093Z",
  "devdoc": {
    "methods": {}
  },
  "userdoc": {
    "methods": {}
  }
}