{
  "contractName": "TokenAccounts",
  "abi": [
    {
      "constant": false,
      "inputs": [
        {
          "name": "tokenAccountId",
          "type": "uint256"
        }
      ],
      "name": "createTokenAccount",
      "outputs": [],
      "payable": true,
      "stateMutability": "payable",
      "type": "function",
      "signature": "0x8c2c6161"
    }
  ],
  "bytecode": "0x6080604052348015600f57600080fd5b50609e8061001e6000396000f3fe608060405260043610603f576000357c0100000000000000000000000000000000000000000000000000000000900463ffffffff1680638c2c6161146044575b600080fd5b606d60048036036020811015605857600080fd5b8101908080359060200190929190505050606f565b005b5056fea165627a7a72305820f334d4913f135c414eec7b428c678a3fe5a3c7eadb8562c6ba0153a826bcac6e0029",
  "source": "pragma solidity ^0.5.0;\n//pragma experimental \ncontract TokenAccounts{\n    function createTokenAccount(uint tokenAccountId) public payable{}\n}\n\n//This is the best way to structure a digital entity in a contract\ncontract Traders{\n    TokenAccounts public tokenAccountsInterface;\n    struct Trader{\n        uint id;\n        string name;\n        string email;\n        string traderType;\n        uint tokenAccountId;\n        address tradersEOA;\n    }\n\n    mapping(uint=>Trader) public traders;\n\n    function createTrader(uint id, string memory name, string memory email, string memory traderType, uint tokenAccount, address tokenAccountContractAddr) public{\n        address tradersEOA = msg.sender; \n        traders[id]=Trader(id,name, email, traderType, tokenAccount,tradersEOA);\n        \n        //We create the token account accessing the other contract\n        tokenAccountsInterface = TokenAccounts(tokenAccountContractAddr);\n        tokenAccountsInterface.createTokenAccount(id);\n        emit stringLogs(\"Trader Was Created\");\n    }\n    \n    function getTrader(uint id) view public returns(uint, string memory,string memory, string memory,uint) {\n        return (traders[id].id, traders[id].name,traders[id].email,traders[id].traderType, traders[id].tokenAccountId);\n    }\n\n\n    event stringLogs(string stringLogs);\n}    \n",
  "sourcePath": "/home/nemesis1346/Documents/UniversityProjects/distribution-algorithm-hyperledger-composer/ethereum-node-server/contracts/Traders.sol",
  "compiler": {
    "name": "solc",
    "version": "0.5.0+commit.1d4f565a.Emscripten.clang"
  },
  "schemaVersion": "3.0.2",
  "updatedAt": "2019-03-27T00:27:29.706Z",
  "devdoc": {
    "methods": {}
  },
  "userdoc": {
    "methods": {}
  }
}