{
  "contractName": "TokenAccounts",
  "abi": [
    {
      "constant": true,
      "inputs": [
        {
          "name": "",
          "type": "uint256"
        }
      ],
      "name": "tokenAccounts",
      "outputs": [
        {
          "name": "tokenAccountId",
          "type": "uint256"
        },
        {
          "name": "balanceEnabled",
          "type": "uint256"
        },
        {
          "name": "balanceDisabled",
          "type": "uint256"
        },
        {
          "name": "traderEOA",
          "type": "address"
        }
      ],
      "payable": false,
      "stateMutability": "view",
      "type": "function",
      "signature": "0x60a6023e"
    },
    {
      "anonymous": false,
      "inputs": [
        {
          "indexed": false,
          "name": "",
          "type": "string"
        }
      ],
      "name": "stringLogs",
      "type": "event",
      "signature": "0x7204b477e961d11af7867ee2b94f62807cfb4d9bb931dab71c541f19f2152d46"
    },
    {
      "constant": false,
      "inputs": [
        {
          "name": "tokenAccountId",
          "type": "uint256"
        }
      ],
      "name": "createTokenAccount",
      "outputs": [],
      "payable": true,
      "stateMutability": "payable",
      "type": "function",
      "signature": "0x8c2c6161"
    },
    {
      "constant": false,
      "inputs": [
        {
          "name": "tokenAccountId",
          "type": "uint256"
        }
      ],
      "name": "getTokenAccount",
      "outputs": [
        {
          "name": "",
          "type": "uint256"
        },
        {
          "name": "",
          "type": "uint256"
        }
      ],
      "payable": false,
      "stateMutability": "nonpayable",
      "type": "function",
      "signature": "0xf1873afd"
    }
  ],
  "bytecode": "0x608060405234801561001057600080fd5b50610353806100206000396000f3fe608060405260043610610057576000357c0100000000000000000000000000000000000000000000000000000000900463ffffffff16806360a6023e1461005c5780638c2c6161146100ec578063f1873afd1461011a575b600080fd5b34801561006857600080fd5b506100956004803603602081101561007f57600080fd5b8101908080359060200190929190505050610170565b604051808581526020018481526020018381526020018273ffffffffffffffffffffffffffffffffffffffff1673ffffffffffffffffffffffffffffffffffffffff16815260200194505050505060405180910390f35b6101186004803603602081101561010257600080fd5b81019080803590602001909291905050506101c0565b005b34801561012657600080fd5b506101536004803603602081101561013d57600080fd5b81019080803590602001909291905050506102ef565b604051808381526020018281526020019250505060405180910390f35b60006020528060005260406000206000915090508060000154908060010154908060020154908060030160009054906101000a900473ffffffffffffffffffffffffffffffffffffffff16905084565b6000339050600080905060008090506080604051908101604052808581526020018381526020018281526020018473ffffffffffffffffffffffffffffffffffffffff1681525060008086815260200190815260200160002060008201518160000155602082015181600101556040820151816002015560608201518160030160006101000a81548173ffffffffffffffffffffffffffffffffffffffff021916908373ffffffffffffffffffffffffffffffffffffffff1602179055509050507f7204b477e961d11af7867ee2b94f62807cfb4d9bb931dab71c541f19f2152d466040518080602001828103825260198152602001807f546f6b656e74204163636f756e7420637265617465642121210000000000000081525060200191505060405180910390a150505050565b60008060008084815260200190815260200160002060000154600080858152602001908152602001600020600101549150915091509156fea165627a7a72305820648df205c9907d31da127475cd3f0715130be78fc88896c90426d0e990d2235b0029",
  "source": "//Version 2\npragma solidity ^0.5.0;\n\n//This is the best way to structure a digital entity in a contract\ncontract TokenAccounts{\n    \n    struct TokenAccount{\n        uint tokenAccountId;\n        uint balanceEnabled;\n        uint balanceDisabled;\n        address traderEOA;\n    }\n\n    mapping(uint=>TokenAccount) public tokenAccounts;\n\n\n    function createTokenAccount(uint tokenAccountId) public payable{\n        address traderEOA = msg.sender; \n        uint balanceEnabled=0;\n        uint balanceDisabled=0;\n        tokenAccounts[tokenAccountId]=TokenAccount(tokenAccountId, balanceEnabled, balanceDisabled, traderEOA);\n        emit stringLogs(\"Tokent Account created!!!\"); //this is an event \n    }\n    \n    function getTokenAccount(uint tokenAccountId) public returns(uint, uint) {\n        //return (tokenAccounts[tokenAccountId].tokenAccountId, tokenAccounts[tokenAccountId].balanceEnabled, tokenAccounts[tokenAccountId].balanceDisabled, tokenAccounts[tokenAccountId].traderEOA);\n        return (tokenAccounts[tokenAccountId].tokenAccountId, tokenAccounts[tokenAccountId].balanceEnabled);\n\n    }\n    \n    event stringLogs(string);\n\n}    \n",
  "sourcePath": "/home/nemesis1346/Documents/UniversityProjects/distribution-algorithm-hyperledger-composer/ethereum-node-server/contracts/TokenAccounts.sol",
  "compiler": {
    "name": "solc",
    "version": "0.5.0+commit.1d4f565a.Emscripten.clang"
  },
  "schemaVersion": "3.0.2",
  "updatedAt": "2019-03-26T19:26:12.958Z",
  "devdoc": {
    "methods": {}
  },
  "userdoc": {
    "methods": {}
  }
}