{
  "contractName": "Tracks",
  "abi": [
    {
      "constant": true,
      "inputs": [
        {
          "name": "",
          "type": "address"
        }
      ],
      "name": "trackStructList",
      "outputs": [
        {
          "name": "id",
          "type": "address"
        },
        {
          "name": "isrc",
          "type": "uint256"
        },
        {
          "name": "title",
          "type": "string"
        },
        {
          "name": "revenueTotal",
          "type": "uint256"
        },
        {
          "name": "uploaderEOA",
          "type": "address"
        },
        {
          "name": "isTrack",
          "type": "bool"
        }
      ],
      "payable": false,
      "stateMutability": "view",
      "type": "function",
      "signature": "0x17f94d9e"
    },
    {
      "constant": true,
      "inputs": [
        {
          "name": "",
          "type": "uint256"
        }
      ],
      "name": "trackAddressList",
      "outputs": [
        {
          "name": "",
          "type": "address"
        }
      ],
      "payable": false,
      "stateMutability": "view",
      "type": "function",
      "signature": "0xb443d212"
    },
    {
      "anonymous": false,
      "inputs": [
        {
          "indexed": false,
          "name": "message",
          "type": "string"
        }
      ],
      "name": "LogTrack",
      "type": "event",
      "signature": "0x52e73e92909114e4712a08650303d296004601777533eb66a3d0b90854df9933"
    },
    {
      "constant": true,
      "inputs": [
        {
          "name": "id",
          "type": "address"
        }
      ],
      "name": "isTrack",
      "outputs": [
        {
          "name": "",
          "type": "bool"
        }
      ],
      "payable": false,
      "stateMutability": "view",
      "type": "function",
      "signature": "0x4bff9494"
    },
    {
      "constant": false,
      "inputs": [
        {
          "name": "id",
          "type": "address"
        },
        {
          "name": "isrc",
          "type": "uint256"
        },
        {
          "name": "title",
          "type": "string"
        },
        {
          "name": "revenueTotal",
          "type": "uint256"
        }
      ],
      "name": "createTrack",
      "outputs": [],
      "payable": false,
      "stateMutability": "nonpayable",
      "type": "function",
      "signature": "0xea64949a"
    },
    {
      "constant": true,
      "inputs": [],
      "name": "getTrackCount",
      "outputs": [
        {
          "name": "count",
          "type": "uint256"
        }
      ],
      "payable": false,
      "stateMutability": "view",
      "type": "function",
      "signature": "0xb9e78bc4"
    },
    {
      "constant": true,
      "inputs": [
        {
          "name": "id",
          "type": "address"
        }
      ],
      "name": "getTrack",
      "outputs": [
        {
          "name": "",
          "type": "address"
        },
        {
          "name": "",
          "type": "uint256"
        },
        {
          "name": "",
          "type": "string"
        },
        {
          "name": "",
          "type": "uint256"
        },
        {
          "name": "",
          "type": "address"
        },
        {
          "name": "",
          "type": "bool"
        }
      ],
      "payable": false,
      "stateMutability": "view",
      "type": "function",
      "signature": "0xb7516c1f"
    }
  ],
  "bytecode": "0x608060405234801561001057600080fd5b50610819806100206000396000f3fe6080604052600436106100775763ffffffff7c010000000000000000000000000000000000000000000000000000000060003504166317f94d9e811461007c5780634bff949414610172578063b443d212146101b9578063b7516c1f146101ff578063b9e78bc414610232578063ea64949a14610259575b600080fd5b34801561008857600080fd5b506100af6004803603602081101561009f57600080fd5b5035600160a060020a0316610325565b6040518087600160a060020a0316600160a060020a031681526020018681526020018060200185815260200184600160a060020a0316600160a060020a0316815260200183151515158152602001828103825286818151815260200191508051906020019080838360005b8381101561013257818101518382015260200161011a565b50505050905090810190601f16801561015f5780820380516001836020036101000a031916815260200191505b5097505050505050505060405180910390f35b34801561017e57600080fd5b506101a56004803603602081101561019557600080fd5b5035600160a060020a031661040c565b604080519115158252519081900360200190f35b3480156101c557600080fd5b506101e3600480360360208110156101dc57600080fd5b5035610445565b60408051600160a060020a039092168252519081900360200190f35b34801561020b57600080fd5b506100af6004803603602081101561022257600080fd5b5035600160a060020a031661046d565b34801561023e57600080fd5b5061024761056c565b60408051918252519081900360200190f35b34801561026557600080fd5b506103236004803603608081101561027c57600080fd5b600160a060020a03823516916020810135918101906060810160408201356401000000008111156102ac57600080fd5b8201836020820111156102be57600080fd5b803590602001918460018302840111640100000000831117156102e057600080fd5b91908080601f0160208091040260200160405190810160405280939291908181526020018383808284376000920191909152509295505091359250610573915050565b005b6000602081815291815260409081902080546001808301546002808501805487516101009582161595909502600019011691909104601f8101889004880284018801909652858352600160a060020a03909316959094919291908301828280156103d05780601f106103a5576101008083540402835291602001916103d0565b820191906000526020600020905b8154815290600101906020018083116103b357829003601f168201915b505050506003830154600490930154919291600160a060020a038116915074010000000000000000000000000000000000000000900460ff1686565b600160a060020a031660009081526020819052604090206004015474010000000000000000000000000000000000000000900460ff1690565b600180548290811061045357fe5b600091825260209091200154600160a060020a0316905081565b600160a060020a038181166000908152602081815260408083208054600180830154600384015460048501546002958601805488516101009682161596909602600019011696909604601f8101899004890285018901909752868452979889986060988a988998899885169790959484169374010000000000000000000000000000000000000000900460ff1692909186918301828280156105505780601f1061052557610100808354040283529160200191610550565b820191906000526020600020905b81548152906001019060200180831161053357829003601f168201915b5050505050935095509550955095509550955091939550919395565b6001545b90565b61057c8461040c565b156105e857604080517f08c379a000000000000000000000000000000000000000000000000000000000815260206004820152601460248201527f547261636b20616c726561647920657869737473000000000000000000000000604482015290519081900360640190fd5b600160a060020a038416600081815260208181526040909120805473ffffffffffffffffffffffffffffffffffffffff19169092178255600182018590558351339261063d9260029091019190860190610755565b50600160a060020a0380861660008181526020818152604080832060038101889055600401805474ff00000000000000000000000000000000000000001996881673ffffffffffffffffffffffffffffffffffffffff1991821617969096167401000000000000000000000000000000000000000017905560018054808201825593527fb10e2d527612073b26eecdfd717e6a320cf44b4afac2b0732d9fcbe2b7fa0cf6909201805490941690921790925581518181526010918101919091527f547261636b2063726561746564212121000000000000000000000000000000008183015290517f52e73e92909114e4712a08650303d296004601777533eb66a3d0b90854df99339181900360600190a15050505050565b828054600181600116156101000203166002900490600052602060002090601f016020900481019282601f1061079657805160ff19168380011785556107c3565b828001600101855582156107c3579182015b828111156107c35782518255916020019190600101906107a8565b506107cf9291506107d3565b5090565b61057091905b808211156107cf57600081556001016107d956fea165627a7a72305820369f9b38e26470840f3935930cfbded3c35348c4a9325a2b49163b31498d43170029",
  "source": "//Version 2\npragma solidity ^0.5.0;\n\n//This is the best way to structure a digital entity in a contract\ncontract Tracks{\n    \n    struct Track{\n        address id;\n        uint isrc;\n        string title;\n        uint revenueTotal;\n        address uploaderEOA;\n        bool isTrack; //flag for controlling existence\n    }\n\n    mapping(address=>Track) public trackStructList;\n    address[] public trackAddressList;  //this is the best way to record all the addresses, is the responsability of the client to deal with the looping\n\n    function isTrack(address id) public view returns(bool){\n        return trackStructList[id].isTrack;\n    }\n\n    function createTrack(address id, uint isrc, string memory title, uint revenueTotal) public{\n        //We evaluate the existence of the same entity\n        if(isTrack(id)) revert('Track already exists');\n        \n        address uploaderEOA = msg.sender; \n        trackStructList[id].id = id; //this is created in the network where you are in \n        trackStructList[id].isrc = isrc;\n        trackStructList[id].title=title;\n        trackStructList[id].revenueTotal=revenueTotal;\n        trackStructList[id].uploaderEOA=uploaderEOA;\n        trackStructList[id].isTrack=true;\n        \n        trackAddressList.push(id);\n        \n        emit LogTrack(\"Track created!!!\"); //this is an event \n\n    }\n    \n    function getTrackCount() public view returns(uint count) {\n        return trackAddressList.length;\n    }\n    \n    function getTrack(address id) view public returns(address, uint, string memory, uint, address,bool) {\n        return (trackStructList[id].id,\n                trackStructList[id].isrc,\n                trackStructList[id].title,\n                trackStructList[id].revenueTotal,\n                trackStructList[id].uploaderEOA,\n                trackStructList[id].isTrack);\n    }\n    event LogTrack(string message);\n}    \n",
  "sourcePath": "/home/nemesis1346/Documents/UniversityProjects/distribution-algorithm-hyperledger-composer/ethereum-node-server/contracts/Tracks.sol",
  "compiler": {
    "name": "solc",
    "version": "0.5.0+commit.1d4f565a.Emscripten.clang"
  },
  "schemaVersion": "3.0.2",
  "updatedAt": "2019-05-15T17:44:21.522Z",
  "devdoc": {
    "methods": {}
  },
  "userdoc": {
    "methods": {}
  }
}