{
  "contractName": "Tracks",
  "abi": [
    {
      "constant": true,
      "inputs": [
        {
          "name": "",
          "type": "address"
        }
      ],
      "name": "trackStructList",
      "outputs": [
        {
          "name": "id",
          "type": "address"
        },
        {
          "name": "isrc",
          "type": "uint256"
        },
        {
          "name": "title",
          "type": "string"
        },
        {
          "name": "revenueTotal",
          "type": "uint256"
        },
        {
          "name": "uploaderEOA",
          "type": "address"
        },
        {
          "name": "isTrack",
          "type": "bool"
        }
      ],
      "payable": false,
      "stateMutability": "view",
      "type": "function",
      "signature": "0x17f94d9e"
    },
    {
      "constant": true,
      "inputs": [
        {
          "name": "",
          "type": "uint256"
        }
      ],
      "name": "trackAddressList",
      "outputs": [
        {
          "name": "",
          "type": "address"
        }
      ],
      "payable": false,
      "stateMutability": "view",
      "type": "function",
      "signature": "0xb443d212"
    },
    {
      "anonymous": false,
      "inputs": [
        {
          "indexed": false,
          "name": "message",
          "type": "string"
        }
      ],
      "name": "LogTrack",
      "type": "event",
      "signature": "0x52e73e92909114e4712a08650303d296004601777533eb66a3d0b90854df9933"
    },
    {
      "constant": true,
      "inputs": [
        {
          "name": "id",
          "type": "address"
        }
      ],
      "name": "isTrack",
      "outputs": [
        {
          "name": "",
          "type": "bool"
        }
      ],
      "payable": false,
      "stateMutability": "view",
      "type": "function",
      "signature": "0x4bff9494"
    },
    {
      "constant": false,
      "inputs": [
        {
          "name": "id",
          "type": "address"
        },
        {
          "name": "isrc",
          "type": "uint256"
        },
        {
          "name": "title",
          "type": "string"
        },
        {
          "name": "revenueTotal",
          "type": "uint256"
        }
      ],
      "name": "createTrack",
      "outputs": [],
      "payable": false,
      "stateMutability": "nonpayable",
      "type": "function",
      "signature": "0xea64949a"
    },
    {
      "constant": true,
      "inputs": [],
      "name": "getTrackCount",
      "outputs": [
        {
          "name": "count",
          "type": "uint256"
        }
      ],
      "payable": false,
      "stateMutability": "view",
      "type": "function",
      "signature": "0xb9e78bc4"
    },
    {
      "constant": true,
      "inputs": [
        {
          "name": "id",
          "type": "address"
        }
      ],
      "name": "getTrack",
      "outputs": [
        {
          "name": "",
          "type": "address"
        },
        {
          "name": "",
          "type": "uint256"
        },
        {
          "name": "",
          "type": "string"
        },
        {
          "name": "",
          "type": "uint256"
        },
        {
          "name": "",
          "type": "address"
        },
        {
          "name": "",
          "type": "bool"
        }
      ],
      "payable": false,
      "stateMutability": "view",
      "type": "function",
      "signature": "0xb7516c1f"
    },
    {
      "constant": false,
      "inputs": [
        {
          "name": "trackId",
          "type": "address"
        },
        {
          "name": "revenue",
          "type": "uint256"
        }
      ],
      "name": "updateTrackRevenue",
      "outputs": [],
      "payable": false,
      "stateMutability": "nonpayable",
      "type": "function",
      "signature": "0x7c1a1cd5"
    }
  ],
  "bytecode": "0x608060405234801561001057600080fd5b5061087c806100206000396000f3fe6080604052600436106100825763ffffffff7c010000000000000000000000000000000000000000000000000000000060003504166317f94d9e81146100875780634bff94941461017d5780637c1a1cd5146101c4578063b443d212146101ff578063b7516c1f14610245578063b9e78bc414610278578063ea64949a1461029f575b600080fd5b34801561009357600080fd5b506100ba600480360360208110156100aa57600080fd5b5035600160a060020a0316610369565b6040518087600160a060020a0316600160a060020a031681526020018681526020018060200185815260200184600160a060020a0316600160a060020a0316815260200183151515158152602001828103825286818151815260200191508051906020019080838360005b8381101561013d578181015183820152602001610125565b50505050905090810190601f16801561016a5780820380516001836020036101000a031916815260200191505b5097505050505050505060405180910390f35b34801561018957600080fd5b506101b0600480360360208110156101a057600080fd5b5035600160a060020a0316610450565b604080519115158252519081900360200190f35b3480156101d057600080fd5b506101fd600480360360408110156101e757600080fd5b50600160a060020a038135169060200135610489565b005b34801561020b57600080fd5b506102296004803603602081101561022257600080fd5b50356104a8565b60408051600160a060020a039092168252519081900360200190f35b34801561025157600080fd5b506100ba6004803603602081101561026857600080fd5b5035600160a060020a03166104d0565b34801561028457600080fd5b5061028d6105cf565b60408051918252519081900360200190f35b3480156102ab57600080fd5b506101fd600480360360808110156102c257600080fd5b600160a060020a03823516916020810135918101906060810160408201356401000000008111156102f257600080fd5b82018360208201111561030457600080fd5b8035906020019184600183028401116401000000008311171561032657600080fd5b91908080601f01602080910402602001604051908101604052809392919081815260200183838082843760009201919091525092955050913592506105d6915050565b6000602081815291815260409081902080546001808301546002808501805487516101009582161595909502600019011691909104601f8101889004880284018801909652858352600160a060020a03909316959094919291908301828280156104145780601f106103e957610100808354040283529160200191610414565b820191906000526020600020905b8154815290600101906020018083116103f757829003601f168201915b505050506003830154600490930154919291600160a060020a038116915074010000000000000000000000000000000000000000900460ff1686565b600160a060020a031660009081526020819052604090206004015474010000000000000000000000000000000000000000900460ff1690565b600160a060020a03909116600090815260208190526040902060030155565b60018054829081106104b657fe5b600091825260209091200154600160a060020a0316905081565b600160a060020a038181166000908152602081815260408083208054600180830154600384015460048501546002958601805488516101009682161596909602600019011696909604601f8101899004890285018901909752868452979889986060988a988998899885169790959484169374010000000000000000000000000000000000000000900460ff1692909186918301828280156105b35780601f10610588576101008083540402835291602001916105b3565b820191906000526020600020905b81548152906001019060200180831161059657829003601f168201915b5050505050935095509550955095509550955091939550919395565b6001545b90565b6105df84610450565b1561064b57604080517f08c379a000000000000000000000000000000000000000000000000000000000815260206004820152601460248201527f547261636b20616c726561647920657869737473000000000000000000000000604482015290519081900360640190fd5b600160a060020a038416600081815260208181526040909120805473ffffffffffffffffffffffffffffffffffffffff1916909217825560018201859055835133926106a092600290910191908601906107b8565b50600160a060020a0380861660008181526020818152604080832060038101889055600401805474ff00000000000000000000000000000000000000001996881673ffffffffffffffffffffffffffffffffffffffff1991821617969096167401000000000000000000000000000000000000000017905560018054808201825593527fb10e2d527612073b26eecdfd717e6a320cf44b4afac2b0732d9fcbe2b7fa0cf6909201805490941690921790925581518181526010918101919091527f547261636b2063726561746564212121000000000000000000000000000000008183015290517f52e73e92909114e4712a08650303d296004601777533eb66a3d0b90854df99339181900360600190a15050505050565b828054600181600116156101000203166002900490600052602060002090601f016020900481019282601f106107f957805160ff1916838001178555610826565b82800160010185558215610826579182015b8281111561082657825182559160200191906001019061080b565b50610832929150610836565b5090565b6105d391905b80821115610832576000815560010161083c56fea165627a7a7230582014e7a694666c6337f87f68275549217027ef5bbb6b13a8895e55ab8c459894c80029",
  "source": "//Version 2\npragma solidity ^0.5.0;\n\n//This is the best way to structure a digital entity in a contract\ncontract Tracks{\n    \n    struct Track{\n        address id;\n        uint isrc;\n        string title;\n        uint revenueTotal;\n        address uploaderEOA;\n        bool isTrack; //flag for controlling existence\n    }\n\n    mapping(address=>Track) public trackStructList;\n    address[] public trackAddressList;  //this is the best way to record all the addresses, is the responsability of the client to deal with the looping\n\n    function isTrack(address id) public view returns(bool){\n        return trackStructList[id].isTrack;\n    }\n\n    function createTrack(address id, uint isrc, string memory title, uint revenueTotal) public{\n        //We evaluate the existence of the same entity\n        if(isTrack(id)) revert('Track already exists');\n        \n        address uploaderEOA = msg.sender; \n        trackStructList[id].id = id; //this is created in the network where you are in \n        trackStructList[id].isrc = isrc;\n        trackStructList[id].title=title;\n        trackStructList[id].revenueTotal=revenueTotal;\n        trackStructList[id].uploaderEOA=uploaderEOA;\n        trackStructList[id].isTrack=true;\n        \n        trackAddressList.push(id);\n        \n        emit LogTrack(\"Track created!!!\"); //this is an event \n\n    }\n    \n    function getTrackCount() public view returns(uint count) {\n        return trackAddressList.length;\n    }\n    \n    function getTrack(address id) view public returns(address, uint, string memory, uint, address,bool) {\n        return (trackStructList[id].id,\n                trackStructList[id].isrc,\n                trackStructList[id].title,\n                trackStructList[id].revenueTotal,\n                trackStructList[id].uploaderEOA,\n                trackStructList[id].isTrack);\n    }\n\n    function updateTrackRevenue(address trackId, uint revenue) public{\n        trackStructList[trackId].revenueTotal = revenue;\n    }\n    event LogTrack(string message);\n\n}    \n",
  "sourcePath": "/home/nemesis1346/Documents/UniversityProjects/distribution-algorithm-hyperledger-composer/ethereum-node-server/contracts/Tracks.sol",
  "compiler": {
    "name": "solc",
    "version": "0.5.0+commit.1d4f565a.Emscripten.clang"
  },
  "schemaVersion": "3.0.2",
  "updatedAt": "2019-05-20T22:20:28.387Z",
  "devdoc": {
    "methods": {}
  },
  "userdoc": {
    "methods": {}
  }
}