{
  "contractName": "Tracks",
  "abi": [
    {
      "constant": true,
      "inputs": [
        {
          "name": "",
          "type": "uint256"
        }
      ],
      "name": "tracks",
      "outputs": [
        {
          "name": "isrc",
          "type": "uint256"
        },
        {
          "name": "title",
          "type": "string"
        },
        {
          "name": "revenueTotal",
          "type": "uint256"
        },
        {
          "name": "uploaderEOA",
          "type": "address"
        }
      ],
      "payable": false,
      "stateMutability": "view",
      "type": "function",
      "signature": "0xa2e34586"
    },
    {
      "anonymous": false,
      "inputs": [
        {
          "indexed": false,
          "name": "message",
          "type": "string"
        }
      ],
      "name": "LogTrack",
      "type": "event",
      "signature": "0x52e73e92909114e4712a08650303d296004601777533eb66a3d0b90854df9933"
    },
    {
      "constant": false,
      "inputs": [
        {
          "name": "isrc",
          "type": "uint256"
        },
        {
          "name": "title",
          "type": "string"
        },
        {
          "name": "revenueTotal",
          "type": "uint256"
        }
      ],
      "name": "createTrack",
      "outputs": [],
      "payable": false,
      "stateMutability": "nonpayable",
      "type": "function",
      "signature": "0x7dfd05ad"
    },
    {
      "constant": true,
      "inputs": [
        {
          "name": "isrc",
          "type": "uint256"
        }
      ],
      "name": "getTrack",
      "outputs": [
        {
          "name": "",
          "type": "uint256"
        },
        {
          "name": "",
          "type": "string"
        },
        {
          "name": "",
          "type": "uint256"
        },
        {
          "name": "",
          "type": "address"
        }
      ],
      "payable": false,
      "stateMutability": "view",
      "type": "function",
      "signature": "0x629058ca"
    }
  ],
  "bytecode": "0x608060405234801561001057600080fd5b5061073c806100206000396000f3fe608060405260043610610057576000357c0100000000000000000000000000000000000000000000000000000000900463ffffffff168063629058ca1461005c5780637dfd05ad14610151578063a2e345861461022d575b600080fd5b34801561006857600080fd5b506100956004803603602081101561007f57600080fd5b8101908080359060200190929190505050610322565b60405180858152602001806020018481526020018373ffffffffffffffffffffffffffffffffffffffff1673ffffffffffffffffffffffffffffffffffffffff168152602001828103825285818151815260200191508051906020019080838360005b838110156101135780820151818401526020810190506100f8565b50505050905090810190601f1680156101405780820380516001836020036101000a031916815260200191505b509550505050505060405180910390f35b34801561015d57600080fd5b5061022b6004803603606081101561017457600080fd5b81019080803590602001909291908035906020019064010000000081111561019b57600080fd5b8201836020820111156101ad57600080fd5b803590602001918460018302840111640100000000831117156101cf57600080fd5b91908080601f016020809104026020016040519081016040528093929190818152602001838380828437600081840152601f19601f8201169050808301925050505050505091929192908035906020019092919050505061044b565b005b34801561023957600080fd5b506102666004803603602081101561025057600080fd5b8101908080359060200190929190505050610583565b60405180858152602001806020018481526020018373ffffffffffffffffffffffffffffffffffffffff1673ffffffffffffffffffffffffffffffffffffffff168152602001828103825285818151815260200191508051906020019080838360005b838110156102e45780820151818401526020810190506102c9565b50505050905090810190601f1680156103115780820380516001836020036101000a031916815260200191505b509550505050505060405180910390f35b60006060600080600080868152602001908152602001600020600001546000808781526020019081526020016000206001016000808881526020019081526020016000206002015460008089815260200190815260200160002060030160009054906101000a900473ffffffffffffffffffffffffffffffffffffffff16828054600181600116156101000203166002900480601f0160208091040260200160405190810160405280929190818152602001828054600181600116156101000203166002900480156104355780601f1061040a57610100808354040283529160200191610435565b820191906000526020600020905b81548152906001019060200180831161041857829003601f168201915b5050505050925093509350935093509193509193565b60003390506080604051908101604052808581526020018481526020018381526020018273ffffffffffffffffffffffffffffffffffffffff168152506000808681526020019081526020016000206000820151816000015560208201518160010190805190602001906104c092919061066b565b506040820151816002015560608201518160030160006101000a81548173ffffffffffffffffffffffffffffffffffffffff021916908373ffffffffffffffffffffffffffffffffffffffff1602179055509050507f52e73e92909114e4712a08650303d296004601777533eb66a3d0b90854df99336040518080602001828103825260108152602001807f547261636b20637265617465642121210000000000000000000000000000000081525060200191505060405180910390a150505050565b6000602052806000526040600020600091509050806000015490806001018054600181600116156101000203166002900480601f0160208091040260200160405190810160405280929190818152602001828054600181600116156101000203166002900480156106355780601f1061060a57610100808354040283529160200191610635565b820191906000526020600020905b81548152906001019060200180831161061857829003601f168201915b5050505050908060020154908060030160009054906101000a900473ffffffffffffffffffffffffffffffffffffffff16905084565b828054600181600116156101000203166002900490600052602060002090601f016020900481019282601f106106ac57805160ff19168380011785556106da565b828001600101855582156106da579182015b828111156106d95782518255916020019190600101906106be565b5b5090506106e791906106eb565b5090565b61070d91905b808211156107095760008160009055506001016106f1565b5090565b9056fea165627a7a72305820f64a749218aff4033664c55582de3b227ce8db53cdf18c2436c9a68c0aee156c0029",
  "source": "//Version 2\npragma solidity ^0.5.0;\n\n//This is the best way to structure a digital entity in a contract\ncontract Tracks{\n    \n    struct Track{\n        uint isrc;\n        string title;\n        uint revenueTotal;\n        address uploaderEOA;\n    }\n\n    mapping(uint=>Track) public tracks;\n\n\n    function createTrack(uint isrc, string memory title, uint revenueTotal) public{\n        address uploaderEOA = msg.sender; \n        tracks[isrc]=Track(isrc, title, revenueTotal, uploaderEOA);\n        emit LogTrack(\"Track created!!!\"); //this is an event \n\n    }\n    \n    function getTrack(uint isrc) view public returns(uint, string memory, uint, address) {\n        return (tracks[isrc].isrc,tracks[isrc].title,tracks[isrc].revenueTotal,tracks[isrc].uploaderEOA);\n    }\n    \n    event LogTrack(string message);\n\n}    \n",
  "sourcePath": "/home/nemesis1346/Documents/UniversityProjects/distribution-algorithm-hyperledger-composer/ethereum-node-server/contracts/Tracks.sol",
  "compiler": {
    "name": "solc",
    "version": "0.5.0+commit.1d4f565a.Emscripten.clang"
  },
  "schemaVersion": "3.0.2",
  "updatedAt": "2019-03-27T00:27:29.700Z",
  "devdoc": {
    "methods": {}
  },
  "userdoc": {
    "methods": {}
  }
}