{
  "contractName": "Traders",
  "abi": [
    {
      "constant": true,
      "inputs": [
        {
          "name": "",
          "type": "uint256"
        }
      ],
      "name": "traderAddressList",
      "outputs": [
        {
          "name": "",
          "type": "address"
        }
      ],
      "payable": false,
      "stateMutability": "view",
      "type": "function",
      "signature": "0x012cdf8a"
    },
    {
      "constant": true,
      "inputs": [
        {
          "name": "",
          "type": "address"
        }
      ],
      "name": "traderStructList",
      "outputs": [
        {
          "name": "id",
          "type": "address"
        },
        {
          "name": "name",
          "type": "string"
        },
        {
          "name": "tokenAccountId",
          "type": "address"
        },
        {
          "name": "isTrader",
          "type": "bool"
        }
      ],
      "payable": false,
      "stateMutability": "view",
      "type": "function",
      "signature": "0x6d5f2cbc"
    },
    {
      "constant": true,
      "inputs": [],
      "name": "tokenAccountsInterface",
      "outputs": [
        {
          "name": "",
          "type": "address"
        }
      ],
      "payable": false,
      "stateMutability": "view",
      "type": "function",
      "signature": "0x886de786"
    },
    {
      "anonymous": false,
      "inputs": [
        {
          "indexed": false,
          "name": "logs",
          "type": "string"
        }
      ],
      "name": "stringLogs",
      "type": "event",
      "signature": "0x7204b477e961d11af7867ee2b94f62807cfb4d9bb931dab71c541f19f2152d46"
    },
    {
      "constant": true,
      "inputs": [
        {
          "name": "id",
          "type": "address"
        }
      ],
      "name": "isTrader",
      "outputs": [
        {
          "name": "",
          "type": "bool"
        }
      ],
      "payable": false,
      "stateMutability": "view",
      "type": "function",
      "signature": "0x4039ad0d"
    },
    {
      "constant": false,
      "inputs": [
        {
          "name": "id",
          "type": "address"
        },
        {
          "name": "name",
          "type": "string"
        },
        {
          "name": "tokenAccountId",
          "type": "address"
        },
        {
          "name": "tokenAccountCtrAdd",
          "type": "address"
        }
      ],
      "name": "createTrader",
      "outputs": [],
      "payable": false,
      "stateMutability": "nonpayable",
      "type": "function",
      "signature": "0xaa8008ad"
    },
    {
      "constant": true,
      "inputs": [],
      "name": "getTraderCount",
      "outputs": [
        {
          "name": "count",
          "type": "uint256"
        }
      ],
      "payable": false,
      "stateMutability": "view",
      "type": "function",
      "signature": "0xae99f4ad"
    },
    {
      "constant": true,
      "inputs": [
        {
          "name": "id",
          "type": "address"
        }
      ],
      "name": "getTrader",
      "outputs": [
        {
          "name": "",
          "type": "address"
        },
        {
          "name": "",
          "type": "string"
        },
        {
          "name": "",
          "type": "address"
        }
      ],
      "payable": false,
      "stateMutability": "view",
      "type": "function",
      "signature": "0xd2001382"
    }
  ],
  "bytecode": "0x608060405234801561001057600080fd5b5061099b806100206000396000f3fe6080604052600436106100825763ffffffff7c0100000000000000000000000000000000000000000000000000000000600035041663012cdf8a81146100875780634039ad0d146100cd5780636d5f2cbc14610114578063886de786146101e2578063aa8008ad146101f7578063ae99f4ad146102d2578063d2001382146102f9575b600080fd5b34801561009357600080fd5b506100b1600480360360208110156100aa57600080fd5b50356103be565b60408051600160a060020a039092168252519081900360200190f35b3480156100d957600080fd5b50610100600480360360208110156100f057600080fd5b5035600160a060020a03166103e6565b604080519115158252519081900360200190f35b34801561012057600080fd5b506101476004803603602081101561013757600080fd5b5035600160a060020a031661041f565b60408051600160a060020a038087168252841691810191909152811515606082015260806020808301828152865192840192909252855160a084019187019080838360005b838110156101a457818101518382015260200161018c565b50505050905090810190601f1680156101d15780820380516001836020036101000a031916815260200191505b509550505050505060405180910390f35b3480156101ee57600080fd5b506100b16104ff565b34801561020357600080fd5b506102d06004803603608081101561021a57600080fd5b600160a060020a03823516919081019060408101602082013564010000000081111561024557600080fd5b82018360208201111561025757600080fd5b8035906020019184600183028401116401000000008311171561027957600080fd5b91908080601f01602080910402602001604051908101604052809392919081815260200183838082843760009201919091525092955050600160a060020a03833581169450602090930135909216915061050e9050565b005b3480156102de57600080fd5b506102e7610805565b60408051918252519081900360200190f35b34801561030557600080fd5b5061032c6004803603602081101561031c57600080fd5b5035600160a060020a031661080c565b60408051600160a060020a038086168252831691810191909152606060208083018281528551928401929092528451608084019186019080838360005b83811015610381578181015183820152602001610369565b50505050905090810190601f1680156103ae5780820380516001836020036101000a031916815260200191505b5094505050505060405180910390f35b60028054829081106103cc57fe5b600091825260209091200154600160a060020a0316905081565b600160a060020a031660009081526001602052604090206002015474010000000000000000000000000000000000000000900460ff1690565b600160208181526000928352604092839020805481840180548651600261010097831615979097026000190190911695909504601f8101859004850286018501909652858552600160a060020a03909116949193929091908301828280156104c85780601f1061049d576101008083540402835291602001916104c8565b820191906000526020600020905b8154815290600101906020018083116104ab57829003601f168201915b50505060029093015491925050600160a060020a0381169060ff740100000000000000000000000000000000000000009091041684565b600054600160a060020a031681565b610517846103e6565b1561058357604080517f08c379a000000000000000000000000000000000000000000000000000000000815260206004820152601660248201527f54726164657220616c7265616479206372656174656400000000000000000000604482015290519081900360640190fd5b600160a060020a0384166000818152600160208181526040909220805473ffffffffffffffffffffffffffffffffffffffff1916909317835585516105ce93909101918601906108d7565b50600160a060020a0380851660008181526001602081815260408084206002908101805474ff000000000000000000000000000000000000000019988b1673ffffffffffffffffffffffffffffffffffffffff19918216179890981674010000000000000000000000000000000000000000179055805493840181559093527f405787fa12a823e0f2b7631cc41b3ba8828b3321ca811111fa75cd3aa3bb5ace909101805490941690921790925581518181526012918101919091527f54726164657220576173204372656174656400000000000000000000000000008183015290517f7204b477e961d11af7867ee2b94f62807cfb4d9bb931dab71c541f19f2152d469181900360600190a16000805473ffffffffffffffffffffffffffffffffffffffff1916600160a060020a0383811691909117808355604080517fe081b4b100000000000000000000000000000000000000000000000000000000815286841660048201529051919092169263e081b4b1926024808201939182900301818387803b15801561076057600080fd5b505af1158015610774573d6000803e3d6000fd5b5050604080516020808252602c908201527f546f6b656e204163636f756e7420576173204372656174656420696e20547261818301527f64657220436f6e74726163740000000000000000000000000000000000000000606082015290517f7204b477e961d11af7867ee2b94f62807cfb4d9bb931dab71c541f19f2152d469350908190036080019150a150505050565b6002545b90565b600160a060020a0381811660009081526001602081815260408084208054600280830154928601805485516101009882161598909802600019011691909104601f810186900486028701860190945283865295966060968896928216959094939091169284918301828280156108c35780601f10610898576101008083540402835291602001916108c3565b820191906000526020600020905b8154815290600101906020018083116108a657829003601f168201915b505050505091509250925092509193909250565b828054600181600116156101000203166002900490600052602060002090601f016020900481019282601f1061091857805160ff1916838001178555610945565b82800160010185558215610945579182015b8281111561094557825182559160200191906001019061092a565b50610951929150610955565b5090565b61080991905b80821115610951576000815560010161095b56fea165627a7a72305820a9a31ff7a9f8cf5e112ba9fde02688fe86e38c2fa11b384903066a5b0783952f0029",
  "source": "pragma solidity ^0.5.0;\n//pragma experimental \ncontract TokenAccounts{\n    function createTokenAccount(address tokenAccountId) public payable{}\n}\n\n//This is the best way to structure a digital entity in a contract\ncontract Traders{\n    TokenAccounts public tokenAccountsInterface;\n    struct Trader{\n        address id;\n        string name;\n        address tokenAccountId;\n        bool isTrader;\n    }\n\n    mapping(address=>Trader) public traderStructList;\n    address[] public traderAddressList;\n    \n     function isTrader(address id) public view returns(bool){\n        return traderStructList[id].isTrader;\n    }\n\n    function createTrader(address id, string memory name, address tokenAccountId,address tokenAccountCtrAdd) public{\n        if(isTrader(id)) revert('Trader already created');\n\n       traderStructList[id].id = id;\n       traderStructList[id].name = name;\n       traderStructList[id].tokenAccountId=tokenAccountId;\n        traderStructList[id].isTrader =true;\n        \n        traderAddressList.push(id);\n        emit stringLogs(\"Trader Was Created\");\n\n        //We create the token account accessing the other contract\n        tokenAccountsInterface = TokenAccounts(tokenAccountCtrAdd);\n        tokenAccountsInterface.createTokenAccount(tokenAccountId);\n        emit stringLogs(\"Token Account Was Created in Trader Contract\");\n    }\n    \n     function getTraderCount() public view returns(uint count) {\n        return traderAddressList.length;\n    }\n    \n    function getTrader(address id) view public returns(address, string memory,address) {\n        return (traderStructList[id].id, \n        traderStructList[id].name,\n        traderStructList[id].tokenAccountId);\n    }\n\n\n    event stringLogs(string logs);\n}    \n",
  "sourcePath": "/home/nemesis1346/Documents/UniversityProjects/distribution-algorithm-hyperledger-composer/ethereum-node-server/contracts/Traders.sol",
  "compiler": {
    "name": "solc",
    "version": "0.5.0+commit.1d4f565a.Emscripten.clang"
  },
  "schemaVersion": "3.0.2",
  "updatedAt": "2019-05-18T18:48:36.924Z",
  "devdoc": {
    "methods": {}
  },
  "userdoc": {
    "methods": {}
  }
}